S02200002E2E2F41637475616C41637475616C526F626F7450726F6A6563742E733139B6
S32D0000C00000000020D1FD00002D0101002D0101002D0101002D0101002D01010000000000000000000000000039
S32D0000C028000000002D0101002D010100000000002D0101002D0101002D0101002D0101002D0101002D01010072
S32D0000C0502D0101002D0101002D0101002D0101002D0101002D0101002D0101002D0101002D0101002D010100EC
S32D0000C0782D0101002D0101002D0101002D0101002D0101002D0101002D0101002D0101002D0101002D010100C4
S32D0000C0A02D0101002D0101002D0101002D0101002D0101002D0101002D0101002D0101002D0101002D0101009C
S32D0000C0C82D0101002D0101002D0101002D0101002D0101002D0101002D0101002D0101002D0101002D01010074
S32D0000C0F02D0101002D9401002D0101002D0101002D0101002D0101002D0101002D0101002D0101002D010100B9
S32D0000C1182D0101002D0101002D0101002D0101002D0101002D0101002D0101002D0101002D0101002D01010023
S32D0000C1402D0101002D0101002D0101002D010100555E01002D0101002D0101002D0101002D0101002D01010076
S32D0000C1682D0101002D0101002D0101002D0101002D0101002D0101002D0101002D0101002D0101002D010100D3
S32D0000C1902D0101002D0101002D010100095901005D570100315801007D010100E15901002D0101002D0101003A
S32D0000C1B82D0101002D0101002D0101002D0101002D0101002D0101002D0101002D0101002D0101002D01010083
S32D0000C41081F0004102E000BF83F0004330B54FEA41044FEA430594EA050F08BF90EA020F1FBF54EA000C55EAC6
S32D0000C438020C7FEA645C7FEA655C00F0E2804FEA5454D4EB5555B8BF6D420CDD2C4480EA020281EA030382EA0F
S32D0000C460000083EA010180EA020281EA0303362D88BF30BD11F0004F4FEA01314FF4801C4CEA113102D0404263
S32D0000C48861EB410113F0004F4FEA03334CEA133302D0524263EB430394EA050F00F0A780A4F10104D5F1200E8A
S32D0000C4B00DDB02FA0EFC22FA05F2801841F1000103FA0EF2801843FA05F359410EE0A5F120050EF1200E012A2D
S32D0000C4D803FA0EFC28BF4CF0020C43FA05F3C01851EBE37101F0004507D54FF0000EDCF1000C7EEB00006EEB67
S32D0000C5000101B1F5801F1BD3B1F5001F0CD349085FEA30004FEA3C0C04F101044FEA445212F5800F80F09A8000
S32D0000C528BCF1004F08BF5FEA500C50F1000041EB045141EA050130BD5FEA4C0C404141EB010111F4801FA4F114
S32D0000C5500104E9D191F0000F04BF01460020B1FA81F308BF2033A3F10B03B3F120020CDA0C3208DD02F1140C87
S32D0000C578C2F10C0201FA0CF021FA02F10CE002F11402D8BFC2F1200C01FA02F120FA0CFCDCBF41EA0C019040B1
S32D0000C5A0E41AA2BF01EB0451294330BD6FEA04041F3C1CDA0C340EDC04F11404C4F1200220FA04F001FA02F3B6
S32D0000C5C840EA030021FA04F345EA030130BDC4F10C04C4F1200220FA02F001FA04F340EA0300294630BD21FAA8
S32D0000C5F004F0294630BD94F0000F83F4801306BF81F480110134013D4EE77FEA645C18BF7FEA655C29D094EA1C
S32D0000C618050F08BF90EA020F05D054EA000C04BF1946104630BD91EA030F1EBF0021002030BD5FEA545C05D1A3
S32D0000C6404000494128BF41F0004130BD14F580043CBF01F5801130BD01F0004545F0FE4141F470014FF0000031
S32D0000C66830BD7FEA645C1ABF194610467FEA655C1CBF0B46024650EA013406BF52EA033591EA030F41F40021D7
S32D0000C69030BD00BF90F0000F04BF0021704730B54FF4806404F132044FF000054FF0000150E700BF90F0000F66
S32D0000C6B804BF0021704730B54FF4806404F1320410F0004548BF40424FF000013EE700BF42004FEAE2014FEAF9
S32D0000C6E031014FEA02701FBF12F07F4393F07F4F81F06051704792F0000F14BF93F07F4F704730B54FF460741B
S32D0000C70801F0004521F0004120E700BF50EA010208BF704730B54FF000050AE050EA010208BF704730B511F046
S32D0000C730004502D5404261EB41014FF4806404F132045FEA915C3FF4DCAE4FF003025FEADC0C18BF03325FEAA0
S32D0000C758DC0C18BF033202EBDC02C2F1200300FA03FC20FA02F001FA03FE40EA0E0021FA02F11444C1E600BF19
S32D0000C78070B54FF0FF0C4CF4E06C1CEA11541DBF1CEA135594EA0C0F95EA0C0F00F0DEF82C4481EA030621EAF3
S32D0000C7A84C5123EA4C5350EA013518BF52EA033541F4801143F4801338D0A0FB02CE4FF00005E1FB02E506F05F
S32D0000C7D00042E0FB03E54FF00006E1FB03569CF0000F18BF4EF0010EA4F1FF04B6F5007F64F5407404D25FEA0F
S32D0000C7F84E0E6D4146EB060642EAC62141EA55514FEAC52040EA5E504FEACE2EB4F1FD0C88BFBCF5E06F1ED8D2
S32D0000C820BEF1004F08BF5FEA500E50F1000041EB045170BD06F0004646EA010140EA020081EA0301B4EB5C0487
S32D0000C848C2BFD4EB0C0541EA045170BD41F480114FF0000E013C00F3AB8014F1360FDEBF002001F0004170BDF0
S32D0000C870C4F10004203C35DA0C341BDC04F11404C4F1200500FA05F320FA04F001FA05F240EA020001F0004207
S32D0000C89821F0004110EBD37021FA04F642EB06015EEA430E08BF20EAD37070BDC4F10C04C4F1200500FA04F32F
S32D0000C8C020FA05F001FA04F240EA020001F0004110EBD37041F100015EEA430E08BF20EAD37070BDC4F12005C7
S32D0000C8E800FA05F24EEA020E20FA04F301FA05F243EA020321FA04F001F0004121FA04F220EA020000EBD37028
S32D0000C9105EEA430E08BF20EAD37070BD94F0000F0FD101F00046400041EB010111F4801F08BF013CF7D041EA6D
S32D0000C938060195F0000F18BF704703F00046520043EB030313F4801F08BF013DF7D043EA0603704794EA0C0FF1
S32D0000C9600CEA135518BF95EA0C0F0CD050EA410618BF52EA4306D1D181EA030101F000414FF0000070BD50EA38
S32D0000C988410606BF1046194652EA430619D094EA0C0F02D150EA013613D195EA0C0F05D152EA03361CBF10467B
S32D0000C9B019460AD181EA030101F0004141F0FE4141F470014FF0000070BD41F0FE4141F4780170BD70B54FF04D
S32D0000C9D8FF0C4CF4E06C1CEA11541DBF1CEA135594EA0C0F95EA0C0F00F0A7F8A4EB050481EA030E52EA03359B
S32D0000CA004FEA013100F088804FEA03334FF0805545EA131343EA12634FEA022245EA111545EA10654FEA002676
S32D0000CA280EF000419D4208BF964244F1FD0404F5407402D25B084FEA3202B61A65EB03055B084FEA32024FF461
S32D0000CA5080104FF4002CB6EB020E75EB030E22BFB61A754640EA0C005B084FEA3202B6EB020E75EB030E22BF22
S32D0000CA78B61A754640EA5C005B084FEA3202B6EB020E75EB030E22BFB61A754640EA9C005B084FEA3202B6EBEA
S32D0000CAA0020E75EB030E22BFB61A754640EADC0055EA060E18D04FEA051545EA16754FEA06164FEAC30343EAAC
S32D0000CAC852734FEAC2025FEA1C1CC0D111F4801F0BD141EA00014FF000004FF0004CB6E711F4801F04BF0143AE
S32D0000CAF00020B4F1FD0C88BFBCF5E06F3FF6AFAEB5EB030C04BFB6EB020C5FEA500C50F1000041EB045170BDBC
S32D0000CB180EF0004E4EEA113114EB5C04C2BFD4EB0C0541EA045170BD41F480114FF0000E013C90E645EA060EC3
S32D0000CB408DE60CEA135594EA0C0F08BF95EA0C0F3FF43BAF94EA0C0F0AD150EA01347FF434AF95EA0C0F7FF499
S32D0000CB6825AF104619462CE795EA0C0F06D152EA03353FF4FDAE1046194622E750EA410618BF52EA43067FF432
S32D0000CB90C5AE50EA41047FF40DAF52EA43057FF4EBAE12E74FF0FF3C06E000BF4FF0010C02E000BF4FF0010C75
S32D0000CBB84DF804CD4FEA410C7FEA6C5C4FEA430C18BF7FEA6C5C1BD001B050EA410C0CBF52EA430C91EA030FEC
S32D0000CBE002BF90EA020F0020704710F1000F91EA030F58BF994208BF90422CBFD8176FEAE37040F0010070476E
S32D0000CC084FEA410C7FEA6C5C02D150EA013C07D14FEA430C7FEA6C5CD6D152EA033CD3D05DF8040B704700BFCD
S32D0000CC308446104662468C461946634600E000BF01B5FFF7B7FF002848BF10F1000F01BD4DF808EDFFF7F4FF13
S32D0000CC580CBF012000205DF808FB00BF4DF808EDFFF7EAFF34BF012000205DF808FB00BF4DF808EDFFF7E0FF18
S32D0000CC8094BF012000205DF808FB00BF4DF808EDFFF7CEFF94BF012000205DF808FB00BF4DF808EDFFF7C4FF40
S32D0000CCA834BF012000205DF808FB00BF4FEA410212F5001215D211D56FF47873B3EB625212D94FEAC12343F0D6
S32D0000CCD0004343EA505311F0004F23FA02F018BF404270474FF00000704750EA013005D111F0004008BF6FF016
S32D0000CCF8004070474FF00000704700BF4A0011D212F5001211D20DD56FF47873B3EB62520ED44FEAC12343F085
S32D0000CD20004343EA505323FA02F070474FF00000704750EA013002D14FF0FF3070474FF0000070474FEA410241
S32D0000CD48B2F1E04324BFB3F5001CDCF1FE5C0DD901F0004C4FEAC0024CEA5070B2F1004F40EB830008BF20F09E
S32D0000CD700100704711F0804F21D113F13872BCBF01F00040704741F480114FEA5252C2F11802C2F1200C10FAB1
S32D0000CD980CF320FA02F018BF40F001004FEAC1234FEAD32303FA0CFC40EA0C0023FA02F34FEA4303CCE77FEA26
S32D0000CDC0625307D150EA01331EBF4FF0FE4040F44000704701F0004040F0FE4040F40000704700BF80F00040CC
S32D0000CDE802E000BF81F0004142001FBF5FEA410392EA030F7FEA226C7FEA236C6AD04FEA1262D2EB1363C1BF06
S32D0000CE10D218414048404140B8BF5B42192B88BF704710F0004F40F4000020F07F4018BF404211F0004F41F4FA
S32D0000CE38000121F07F4118BF494292EA030F3FD0A2F1010241FA03FC10EB0C00C3F1200301FA03F100F000432B
S32D0000CE6002D5494260EB4000B0F5000F13D3B0F1807F06D340084FEA310102F10102FE2A51D2B1F1004F40EB94
S32D0000CE88C25008BF20F0010040EA03007047490040EB000010F4000FA2F10102EDD1B0FA80FCACF1080CB2EB5F
S32D0000CEB00C0200FA0CF0AABF00EBC25052421843BCBFD0401843704792F0000F81F4000106BF80F400000132EB
S32D0000CED8013BB5E74FEA41037FEA226C18BF7FEA236C21D092EA030F04D092F0000F08BF0846704790EA010FD7
S32D0000CF001CBF0020704712F07F4F04D1400028BF40F00040704712F100723CBF00F50000704700F0004343F0DC
S32D0000CF28FE4040F4000070477FEA226216BF08467FEA23630146420206BF5FEA412390EA010F40F480007047C1
S32D0000CF504FF0000304E000BF10F0004348BF40425FEA000C08BF704743F0964301464FF000001CE050EA010264
S32D0000CF7808BF70474FF000030AE000BF50EA010208BF704711F0004302D5404261EB41015FEA010C02BF84465B
S32D0000CFA00146002043F0B64308BFA3F18053A3F50003BCFA8CF2083AA3EBC25310DB01FA02FC634400FA02FC6B
S32D0000CFC8C2F12002BCF1004F20FA02F243EB020008BF20F00100704702F1200201FA02FCC2F1200250EA4C0034
S32D0000CFF021FA02F243EB020008BF20EADC7070474FF0FF0C1CEAD0521EBF1CEAD15392EA0C0F93EA0C0F6FD019
S32D0000D0181A4480EA010C400218BF5FEA41211ED04FF0006343EA501043EA5111A0FB01310CF00040B1F5000FE7
S32D0000D0403EBF490041EAD3715B0040EA010062F17F02FD2A1DD8B3F1004F40EBC25008BF20F00100704790F058
S32D0000D068000F0CF0004C08BF49024CEA502040EA51207F3AC2BFD2F1FF0340EAC250704740F400004FF0000388
S32D0000D090013A5DDC12F1190FDCBF00F000407047C2F10002410021FA02F1C2F1200200FA02FC5FEA310040F1D5
S32D0000D0B8000053EA4C0308BF20EADC70704792F0000F00F0004C02BF400010F4000F013AF9D040EA0C0093F04C
S32D0000D0E0000F01F0004C02BF490011F4000F013BF9D041EA0C018FE70CEAD15392EA0C0F18BF93EA0C0F0AD00B
S32D0000D10830F0004C18BF31F0004CD8D180EA010000F00040704790F0000F17BF90F0004F084691F0000F91F0BB
S32D0000D130004F14D092EA0C0F01D142020FD193EA0C0F03D14B0218BF084608D180EA010000F0004040F0FE4051
S32D0000D15840F40000704740F0FE4040F4400070474FF0FF0C1CEAD0521EBF1CEAD15392EA0C0F93EA0C0F69D044
S32D0000D180A2EB030280EA010C49024FEA402037D04FF0805343EA111143EA10130CF000408B4238BF5B0042F14E
S32D0000D1A87D024FF4000C8B4224BF5B1A40EA0C00B3EB510F24BFA3EB510340EA5C00B3EB910F24BFA3EB9103A4
S32D0000D1D040EA9C00B3EBD10F24BFA3EBD10340EADC001B0118BF5FEA1C1CE0D1FD2A3FF650AF8B4240EBC25018
S32D0000D1F808BF20F0010070470CF0004C4CEA50207F32C2BFD2F1FF0340EAC250704740F400004FF00003013AF1
S32D0000D22037E792F0000F00F0004C02BF400010F4000F013AF9D040EA0C0093F0000F01F0004C02BF490011F4C9
S32D0000D248000F013BF9D041EA0C0195E70CEAD15392EA0C0F08D142027FF47DAF93EA0C0F7FF470AF084676E7AE
S32D0000D27093EA0C0F04D14B023FF44CAF08466EE730F0004C18BF31F0004CCAD130F000427FF45CAF31F0004376
S32D0000D2987FF43CAF5FE700BF4FF0FF3C06E000BF4FF0010C02E000BF4FF0010C4DF804CD4FEA40024FEA41039F
S32D0000D2C07FEA226C18BF7FEA236C11D001B052EA530C18BF90EA010F58BFB2EB030088BFC81738BF6FEAE1706E
S32D0000D2E818BF40F0010070477FEA226C02D15FEA402C05D17FEA236CE4D15FEA412CE1D05DF8040B704700BF16
S32D0000D310844608466146FFE70FB5FFF7C9FF002848BF10F1000F0FBD4DF808EDFFF7F4FF0CBF012000205DF839
S32D0000D33808FB00BF4DF808EDFFF7EAFF34BF012000205DF808FB00BF4DF808EDFFF7E0FF94BF012000205DF8A9
S32D0000D36008FB00BF4DF808EDFFF7D2FF94BF012000205DF808FB00BF4DF808EDFFF7C8FF34BF012000205DF8B1
S32D0000D38808FB00BF4FEA4002B2F1FE4F0FD34FF09E03B3EB12620DD94FEA002343F0004310F0004F23FA02F060
S32D0000D3B018BF404270474FF00000704712F1610F01D1420205D110F0004008BF6FF0004070474FF00000704797
S32D0000D3D880B582B000AF786078680DF0ABFD0346184607F10807BD4680BD00BF80B582B000AF786078680DF03C
S32D0000D400BDFE0346184607F10807BD4680BD00BF80B582B000AF786078680DF043FF0346184607F10807BD46D8
S32D0000D42880BD00BF80B582B000AF786078680DF0EDFE0346184607F10807BD4680BD00BF80B582B000AF786089
S32D0000D45039603868FFF780FD0346786819460DF01FFF0346184607F10807BD4680BD00BF80B483B000AF7860C4
S32D0000D4787B6823F00043184607F10C07BD4680BC704700BF0000000080B582B000AF78607868FFF71DF902460D
S32D0000D4A00B461046194608A3D3E90023FFF768F902460B4610461946FFF744FC0346184607F10807BD4680BD05
S32D0000D4C8F8C1631ADCA54C4080B582B000AF78607868FFF7FDF802460B461046194608A3D3E90023FFF748F92B
S32D0000D4F002460B4610461946FFF724FC0346184607F10807BD4680BD399D52A246DF913F90B585B000AFF8607C
S32D0000D518B9607A603B607868F968FFF763FC034618464FF00201FFF78BFF04463868B968FFF758FC034618465C
S32D0000D5404FF00201FFF780FF034620461946FFF74FFC03461846FFF75BFF0346184607F11407BD4690BD00BFF7
S32D0000D56880B500AF41F28040C1F6FF704FF0000109F0D4FB41F28040C1F6FF704FF0010109F02AFC80BD00BF1B
S32D0000D59080B500AF41F2E840C1F6FF700DF004FA034618462949FFF7BFFE0346002B45D141F2E840C1F6FF7036
S32D0000D5B80DF006FA034618462249FFF7B1FE0346002B37D141F2E840C1F6FF700DF008FA034618461B49FFF794
S32D0000D5E0A3FE0346002B29D141F2E840C1F6FF700DF0DAF9034618461549FFF795FE0346002B1BD141F2E84074
S32D0000D608C1F6FF700DF0DCF9034618460E49FFF787FE0346002B0DD141F2E840C1F6FF700DF0DEF90346184635
S32D0000D6300749FFF779FE0346002B02D04FF0010301E04FF00003184680BD00BF000080BF000000C0000000000A
S32D0000D65880B500AF04E006A1D1E9000107F008FFFFF792FF0346002BF5D180BDAFF300807B14AE47E17A843FBA
S32D0000D68080B500AF41F2E840C1F6FF700DF08CF9034618464249FFF747FE0346002B10D141F2E840C1F6FF7052
S32D0000D6A80DF07EF9034618463C49FFF739FE0346002B02D14FF0010301E04FF00003002B0BD041F2E840C1F6C2
S32D0000D6D0FF700DF069F9024641F24813C1F6FF731A6041F2E840C1F6FF700DF06DF9034618462B49FFF718FEDA
S32D0000D6F80346002B10D141F2E840C1F6FF700DF05FF9034618462549FFF70AFE0346002B02D14FF0010301E05B
S32D0000D7204FF00003002B0BD041F2E840C1F6FF700DF04AF9024641F24C13C1F6FF731A6041F2E840C1F6FF70D4
S32D0000D7480DF04EF9034618461349FFF7E9FD0346002B10D141F2E840C1F6FF700DF040F9034618460D49FFF791
S32D0000D770DBFD0346002B02D14FF0010301E04FF00003002B0BD041F2E840C1F6FF700DF02BF9024641F2501380
S32D0000D798C1F6FF731A6080BD000080BF000000C090B585B000AF786039604FF001031C4678683968FFF7DCFDF5
S32D0000D7C00346002B02D14FF000031C46E3B2002B06D078683968FFF709FB0346FB6010E078682849FFF704FB65
S32D0000D7E803461C4626483968FFF7FCFA034620461946FFF7F9FA0346FB604FF001031C4678683968FFF7B4FD05
S32D0000D8100346002B02D14FF000031C46E3B2002B11D038681749FFF7E3FA03461C4616487968FFF7DBFA03468D
S32D0000D83820461946FFF7D8FA0346BB6005E038687968FFF7CFFA0346BB604FF001031C46F868B968FFF778FDB7
S32D0000D8600346002B02D14FF000031C46E3B2002B01D0FB6800E0BB68184607F11407BD4690BD00BF0000000038
S32D0000D8880000B44390B587B000AFF860B9607A603B607868F968FFF7A5FA03467B613868B968FFF79FFA0346D6
S32D0000D8B03B614FF001031C4678696649FFF75CFD0346002B02D14FF000031C46E3B2002B2AD04FF001031C46E0
S32D0000D8D838695E49FFF74CFD0346002B02D14FF000031C46E3B2002B1AD03869FFF7BCFD04467869FFF7B8FDE0
S32D0000D900034620461946FFF72FFC03461846FFF763FD03461846FFF7BBFD034618464D49FFF766FA03468FE02D
S32D0000D9284FF001031C4678694849FFF70DFD0346002B02D14FF000031C46E3B2002B2AD04FF001031C463869CF
S32D0000D9504049FFF711FD0346002B02D14FF000031C46E3B2002B1AD07869FFF781FD04463869FFF77DFD03468E
S32D0000D97820461946FFF7F4FB03461846FFF728FD03461846FFF780FD034618463049FFF72BFA034654E04FF004
S32D0000D9A001031C4678692B49FFF7D2FC0346002B02D14FF000031C46E3B2002B2AD04FF001031C463869234983
S32D0000D9C8FFF7C2FC0346002B02D14FF000031C46E3B2002B1AD03869FFF746FD04467869FFF742FD03462046FF
S32D0000D9F01946FFF7B9FB03461846FFF7EDFC03461846FFF745FD034618461449FFF7F0F9034619E07869FFF79F
S32D0000DA182BFD04463869FFF727FD034620461946FFF79EFB03461846FFF7D2FC03461846FFF72AFD0346184640
S32D0000DA400749FFF7D5F90346184607F11C07BD4690BD00BF000000000000B4420000344300008743000000009C
S32D0000DA682DE9B0438AB004AFF860B9607A603B60F868FEF72DFE04460D46B868FEF728FE80468946786BFEF7EF
S32D0000DA9023FE02460B46CDE90089CDE9022341F20850C1F6FF704DF60431C0F2010122462B460DF07DF9FFF775
S32D0000DAB8CFFDF868B96800F0D7FF4FF000037B6141F20850C1F6FF704DF64031C0F201010DF06AF963E2FFF75B
S32D0000DAE057FD0346002B4DD041F2E840C1F6FF700CF05AFF034618462149FFF715FC0346002B1BD141F2E8408A
S32D0000DB08C1F6FF700CF05CFF034618461A49FFF707FC0346002B0DD141F2E840C1F6FF700CF05EFF034618469C
S32D0000DB301349FFF7F9FB0346002B02D04FF0010301E04FF00003002B0FD041F24413C1F6FF734FF001021A704C
S32D0000DB5841F25013C1F6FF731B68184600F068FA50E203A1D1E9000107F082FC17E200BF7B14AE47E17A843F4D
S32D0000DB80000000C097F83830002B1ED07B6903F101037B617869FFF7DFF90546F86BDFF88014FFF72DFA0346C1
S32D0000DBA84FF00102144628461946FFF7E1FB0346002B02D14FF000031C46E3B2002B40F00D82FFF759FD01F06D
S32D0000DBD077F9044601F0BAFA034620461946FA68BB68FFF753FE03463B61FFF7BDFC41F28040C1F6FF704DF6FE
S32D0000DBF87031C0F2010109F0CBFA41F2E840C1F6FF700CF0CDFE034641F28040C1F6FF70194609F005FB41F2B7
S32D0000DC208040C1F6FF704DF68431C0F2010109F0B3FA41F2E840C1F6FF700CF0C5FE034641F28040C1F6FF70FC
S32D0000DC48194609F0EDFA41F28040C1F6FF704DF68831C0F2010109F069FB41F28040C1F6FF704DF68C31C0F27E
S32D0000DC70010109F091FA41F28040C1F6FF70F96809F0D2FA41F28040C1F6FF704DF68431C0F2010109F080FA89
S32D0000DC9841F28040C1F6FF70B96809F0C1FA41F28040C1F6FF704DF68831C0F2010109F03DFB41F28040C1F6CC
S32D0000DCC0FF704DF6A031C0F2010109F065FA41F2E840C1F6FF700CF087FE034641F28040C1F6FF70194609F0EB
S32D0000DCE839FB41F28040C1F6FF704DF6B431C0F2010109F04DFA41F28040C1F6FF70396909F028FB41F2E84073
S32D0000DD10C1F6FF700CF048FE03461846FEF7DCFC04460D4641F2E840C1F6FF700CF04CFE03461846FEF7D0FC3D
S32D0000DD3802460B46CDE9002341F20850C1F6FF704DF6C831C0F2010122462B460DF02CF8F868FEF7BDFC044658
S32D0000DD600D46B868FEF7B8FC02460B46CDE9002341F20850C1F6FF704DF6F031C0F2010122462B460DF014F85C
S32D0000DD8841F2E840C1F6FF700CF02AFE03461846FEF79EFC02460B4641F20850C1F6FF704DF61841C0F20101F8
S32D0000DDB00CF0FEFF3869FEF78FFC02460B4641F20850C1F6FF704DF63C41C0F201010CF0EFFF41F2E840C1F671
S32D0000DDD8FF700CF005FE034618463969FFF7E0FC03464FF00102144618468C49FFF7C0FA0346002B02D14FF046
S32D0000DE0000031C46E3B2002B00F0B08041F20850C1F6FF704DF66041C0F201010CF0C8FF01F04EF8044601F031
S32D0000DE2891F9034620461946FA68BB68FFF76CFB03464FF00102144618467849FFF798FA0346002B02D14FF040
S32D0000DE5000031C46E3B2002B1ED041F2E840C1F6FF700CF0C1FD034618463969FFF79CFC03464FF0010214469A
S32D0000DE7818466B49FFF77CFA0346002B02D14FF000031C46E3B2002B02D04FF0010301E04FF00003002B39D0E7
S32D0000DEA041F20850C1F6FF704DF6A441C0F201010CF07EFF41F2E840C1F6FF700CF094FD03461846FEF708FCA0
S32D0000DEC804460D463869FEF703FC02460B46CDE9002341F20850C1F6FF704DF6E041C0F2010122462B460CF0EA
S32D0000DEF05FFF41F21C10C1F6FF7002F0C9F941F22410C1F6FF7002F0C3F9F868B96800F0AFFD43E041F2E84097
S32D0000DF18C1F6FF700CF064FD03461846396900F037FD0346002B0ED041F21C10C1F6FF703C4902F0F9F941F278
S32D0000DF402410C1F6FF703A4902F0F2F926E041F21C10C1F6FF70364902F0EAF941F22410C1F6FF70314902F021
S32D0000DF68E3F917E038683149FFF746F8034641F21C10C1F6FF70194602F0D6F938682B49FFF73AF8034641F2C4
S32D0000DF902410C1F6FF70194602F0CAF91EA1D1E9000107F069FA00F08BFF044601F0CEF8034620461946FA6836
S32D0000DFB8BB68FFF7A9FA03464FF00102144618467968FFF7D5F90346002B02D14FF000031C46E3B2002B7FF479
S32D0000DFE07EAD00E000BF41F21C10C1F6FF7002F04FF941F22410C1F6FF7002F049F997F83030002B02D0786BFA
S32D0000E00800F04EFD07F11807BD46BDE8B08300BFFCA9F1D24D62503F00002041000000400000F0410000C8417D
S32D0000E03000000C420000C84290B583B000AF78604FF001031C4678689149FFF78BF90346002B02D14FF0000309
S32D0000E0581C46E3B2002B2AD04FF001031C4678688A49FFF767F90346002B02D14FF000031C46E3B2002B1AD03B
S32D0000E08041F21C10C1F6FF70834902F051F94EF28033C0F201031B6883F0004341F22410C1F6FF70194602F025
S32D0000E0A843F973A1D1E9000107F0E2F98FE04FF001031C4678687549FFF750F90346002B02D14FF000031C4691
S32D0000E0D0E3B2002B2AD04FF001031C4678686F49FFF72CF90346002B02D14FF000031C46E3B2002B1AD04EF23B
S32D0000E0F87C33C0F201031B6883F0004341F21C10C1F6FF70194602F00FF941F22410C1F6FF705F4902F008F956
S32D0000E12055A1D1E9000107F0A7F954E04FF001031C4678685949FFF715F90346002B02D14FF000031C46E3B2AA
S32D0000E148002B2AD04FF001031C4678685249FFF7F1F80346002B02D14FF000031C46E3B2002B1AD04EF27C3301
S32D0000E170C0F201031B6883F0004341F21C10C1F6FF70194602F0D4F841F22410C1F6FF70414902F0CDF83AA147
S32D0000E198D1E9000107F06CF919E041F21C10C1F6FF703B4902F0C0F84EF28033C0F201031B6883F0004341F281
S32D0000E1C02410C1F6FF70194602F0B2F82CA1D1E9000107F051F941F21C10C1F6FF702E4902F0A6F841F2241020
S32D0000E1E8C1F6FF702A4902F09FF804E024A1D1E9000107F03DF941F2E840C1F6FF700CF0CFFB034618462549FA
S32D0000E210FFF78AF80346002B0DD141F2E840C1F6FF700CF0C1FB034618461F49FFF77CF80346002B02D04FF0DF
S32D0000E238010301E04FF00003002BD7D14FF000004FF07E5101F5E00107F012F941F21C10C1F6FF7002F018F811
S32D0000E26041F22410C1F6FF7002F012F807F10C07BD4690BDAFF30080333333333333F33F9A9999999999D93F77
S32D0000E288FCA9F1D24D62503F000000000000B4420000C8420000344300008743000080BF000000C0AFF3008060
S32D0000E2B02DE9B0438AB004AFF860B9607A60FB70F868FEF709FA04460D46B868FEF704FA804689467868FEF722
S32D0000E2D8FFF902460B46CDE90089CDE9022341F20850C1F6FF704DF60431C0F2010122462B460CF059FDFFF76F
S32D0000E300ABF9F868B96800F0B7FC4FF000037B6141F20850C1F6FF704DF64031C0F201010CF046FDEEE2FFF7EB
S32D0000E32833F90346002B46D041F2E840C1F6FF700CF036FB03461846BD49FEF7F1FF0346002B1BD141F2E84016
S32D0000E350C1F6FF700CF038FB03461846B649FEF7E3FF0346002B0DD141F2E840C1F6FF700CF03AFB0346184622
S32D0000E378AF49FEF7D5FF0346002B02D04FF0010301E04FF00003002B0FD041F24413C1F6FF734FF001021A7081
S32D0000E3A041F25013C1F6FF731B681846FFF744FEDAE29DA1D1E9000107F05EF8A2E297F83830002B1DD07B69FE
S32D0000E3C803F101037B617869FEF7C2FD0546F86B9849FEF711FE03464FF00102144628461946FEF7C5FF034677
S32D0000E3F0002B02D14FF000031C46E3B2002B40F0A08200F05DFD044600F0A0FE034620461946FA68BB68FFF7A0
S32D0000E41839FA0346184600F02BFD03463B61FFF79FF841F28040C1F6FF704DF67031C0F2010108F0ADFE41F2EB
S32D0000E440E840C1F6FF700CF0AFFA034641F28040C1F6FF70194608F0E7FE41F28040C1F6FF704DF68431C0F25A
S32D0000E468010108F095FE41F2E840C1F6FF700CF0A7FA034641F28040C1F6FF70194608F0CFFE41F28040C1F6AB
S32D0000E490FF704DF68831C0F2010108F04BFF41F28040C1F6FF704DF68C31C0F2010108F073FE41F28040C1F61D
S32D0000E4B8FF70F96808F0B4FE41F28040C1F6FF704DF68431C0F2010108F062FE41F28040C1F6FF70B96808F06D
S32D0000E4E0A3FE41F28040C1F6FF704DF68831C0F2010108F01FFF41F28040C1F6FF704DF6A031C0F2010108F0B5
S32D0000E50847FE41F2E840C1F6FF700CF069FA034641F28040C1F6FF70194608F01BFF41F28040C1F6FF704DF691
S32D0000E530B431C0F2010108F02FFE41F28040C1F6FF70396908F00AFF41F2E840C1F6FF700CF02AFA03461846FB
S32D0000E558FEF7BEF804460D4641F2E840C1F6FF700CF02EFA03461846FEF7B2F802460B46CDE9002341F2085065
S32D0000E580C1F6FF704DF61051C0F2010122462B460CF00EFCF868FEF79FF804460D46B868FEF79AF802460B4647
S32D0000E5A8CDE9002341F20850C1F6FF704DF64051C0F2010122462B460CF0F6FB41F2E840C1F6FF700CF00CFAEA
S32D0000E5D003461846FEF780F802460B4641F20850C1F6FF704DF67051C0F201010CF0E0FB3869FEF771F80246E9
S32D0000E5F80B4641F20850C1F6FF704DF69C51C0F201010CF0D1FBFEF7BFFF0346002B13D005A1D1E9000106F0E6
S32D0000E6202BFF6FE1AFF300807B14AE47E17A843FFCA9F1D24D62503F000000C00000204141F2E840C1F6FF7046
S32D0000E6480CF0CEF9034618463969FFF7A9F803464FF0010214461846C949FEF789FE0346002B02D14FF00003A7
S32D0000E6701C46E3B2002B00F01A8141F20850C1F6FF704DF66041C0F201010CF091FB00F017FC044600F05AFD6A
S32D0000E698034620461946FA68BB68FEF735FF03464FF0010214461846B649FEF761FE0346002B02D14FF0000379
S32D0000E6C01C46E3B2002B1ED041F2E840C1F6FF700CF08AF9034618463969FFF765F803464FF00102144618463D
S32D0000E6E8A949FEF745FE0346002B02D14FF000031C46E3B2002B02D04FF0010301E04FF00003002B39D041F290
S32D0000E7100850C1F6FF704DF6A441C0F201010CF047FB41F2E840C1F6FF700CF05DF903461846FDF7D1FF0446BB
S32D0000E7380D463869FDF7CCFF02460B46CDE9002341F20850C1F6FF704DF6E041C0F2010122462B460CF028FBCD
S32D0000E76041F21C10C1F6FF7001F092FD41F22410C1F6FF7001F08CFDF868B96800F078F9BBE041F2E840C1F6F0
S32D0000E788FF700CF02DF903461846396900F000F90346002B43D041F20850C1F6FF704DF6C851C0F201010CF05C
S32D0000E7B0FFFA4EF27C33C0F201031B6883F000431846796BFEF71CFC034641F21C10C1F6FF70194601F0ACFD4E
S32D0000E7D84EF28033C0F201031B6883F000431846796BFEF709FC03461846FDF771FF02460B46104619465EA39B
S32D0000E800D3E90023FDF7BCFF02460B4610461946FEF798FA034641F22410C1F6FF70194601F086FD69E041F262
S32D0000E8280850C1F6FF704DF6FC51C0F201010CF0BBFA4EF27C33C0F201031B6883F000431846796BFEF7D8FB67
S32D0000E85003461846FDF740FF02460B461046194645A3D3E90023FDF78BFF02460B4610461946FEF767FA034640
S32D0000E87841F21C10C1F6FF70194601F055FD4EF28033C0F201031B6883F000431846796BFEF7B2FB034641F209
S32D0000E8A02410C1F6FF70194601F042FD25E04EF27C33C0F201031B6883F000431846796BFEF79EFB034641F232
S32D0000E8C81C10C1F6FF70194601F02EFD4EF28033C0F201031B6883F000431846796BFEF78BFB034641F2241006
S32D0000E8F0C1F6FF70194601F01BFD21A1D1E9000106F0BAFD00F0DCFA044600F01FFC034620461946FA68BB6894
S32D0000E918FEF7FAFD03464FF0010214461846396BFEF726FD0346002B02D14FF000031C46E3B2002B7FF4F3AC29
S32D0000E94000E000BF41F21C10C1F6FF7001F0A0FC41F22410C1F6FF7001F09AFCFB78002B02D0786800F0A0F80C
S32D0000E96807F11807BD46BDE8B08300BFAFF30080333333333333E33FFCA9F1D24D62503F0000803F00000040B5
S32D0000E9900000F041AFF3008090B585B000AF786039604FF001031C4678683968FEF7E4FC0346002B02D14FF0EB
S32D0000E9B800031C46E3B2002B06D078683968FEF711FA0346FB6010E078682549FEF70CFA03461C462348396821
S32D0000E9E0FEF704FA034620461946FEF701FA0346FB604FF001031C4678683968FEF7BCFC0346002B02D14FF01B
S32D0000EA0800031C46E3B2002B11D038681449FEF7EBF903461C4613487968FEF7E3F9034620461946FEF7E0F970
S32D0000EA300346BB6005E038687968FEF7D7F90346BB604FF001031C46B868F968FEF780FC0346002B02D14FF0A8
S32D0000EA5800031C46E3B2184607F11407BD4690BD000000000000B44390B583B000AF7860396000F021FA0446F1
S32D0000EA8000F064FB0346204619467A683B68FEF7FDFE0346184600F007F807F10C07BD4690BD00BF00000000E6
S32D0000EAA890B583B000AF78607868FDF711FE02460B4641F20850C1F6FF704DF63061C0F201010CF071F99AE0AC
S32D0000EAD0FEF7C2FDFEF748FD41F28040C1F6FF704DF65C61C0F2010108F024FC41F28040C1F6FF704DF6A03118
S32D0000EAF8C0F2010108F04CFB41F2E840C1F6FF700BF06EFF034641F28040C1F6FF70194608F020FC41F280404C
S32D0000EB20C1F6FF704DF6B431C0F2010108F034FB41F28040C1F6FF70796808F00FFC41F2E840C1F6FF700BF025
S32D0000EB484FFF034618467968FFF722FF0346002B28D04EF27C33C0F201031B6883F000431846FDF7B5FD02461C
S32D0000EB700B46104619463AA3D3E90023FDF700FE02460B4610461946FEF7DCF8034641F21C10C1F6FF7019467F
S32D0000EB9801F0CAFB41F22410C1F6FF70324901F0C3FB27E041F21C10C1F6FF702E4901F0BBFB4EF28033C0F293
S32D0000EBC001031B6883F000431846FDF785FD02460B461046194622A3D3E90023FDF7D0FD02460B461046194615
S32D0000EBE8FEF7ACF8034641F22410C1F6FF70194601F09AFB1AA1D1E9000106F039FC41F2E840C1F6FF700BF08E
S32D0000EC10EBFE034618467968FEF7C6FD03464FF00102144618461349FEF7A6FB0346002B02D14FF000031C468D
S32D0000EC38E3B2002B7FF448AF41F21C10C1F6FF7001F022FB41F22410C1F6FF7001F01CFB07F10C07BD4690BD01
S32D0000EC60333333333333D33FFCA9F1D24D62503F0000F0410000A04090B583B000AF7860396000F01DF90446A3
S32D0000EC8800F060FA0346204619467A683B68FEF7F9FD0346184600F007F807F10C07BD4690BD00BF00000000E6
S32D0000ECB090B583B000AF78607868FDF70DFD02460B4641F20850C1F6FF704DF66861C0F201010CF06DF891E07D
S32D0000ECD8FEF7BEFCFEF744FC41F28040C1F6FF704DF6A461C0F2010108F020FB41F28040C1F6FF704DF6A031D5
S32D0000ED00C0F2010108F048FA41F2E840C1F6FF700BF06AFE034641F28040C1F6FF70194608F01CFB41F2804050
S32D0000ED28C1F6FF704DF6B431C0F2010108F030FA786800F09DF8034641F28040C1F6FF70194608F007FB41F246
S32D0000ED50E840C1F6FF700BF047FE0446786800F08BF8034620461946FFF716FE0346002B1AD04EF27C33C0F253
S32D0000ED7801031B6883F0004318463949FEF73CF9034641F21C10C1F6FF70194601F0CCFA41F22410C1F6FF70B5
S32D0000EDA0324901F0C5FA19E041F21C10C1F6FF702E4901F0BDFA4EF28033C0F201031B6883F0004318462849CC
S32D0000EDC8FEF71AF9034641F22410C1F6FF70194601F0AAFA20A1D1E9000106F049FB04E01DA1D1E9000106F042
S32D0000EDF043FBFEF7CDFB0346002BF5D141F2E840C1F6FF700BF0F0FD0446786800F034F8034620461946FEF70E
S32D0000EE18C7FC03464FF00102144618461249FEF7A7FA0346002B02D14FF000031C46E3B2002B7FF44DAF41F288
S32D0000EE401C10C1F6FF7001F023FA41F22410C1F6FF7001F01DFA07F10C07BD4690BD00BFFCA9F1D24D62503FEF
S32D0000EE680000003F000048420000A040AFF3008080B582B000AF786078680D49FDF7B4FF0346184608A3D3E9D8
S32D0000EE90002300F019FF02460B4610461946FDF751FF0346184607F10807BD4680BD00BF0000000000807640B4
S32D0000EEB800003443AFF3008090B583B000AF41F2E840C1F6FF700BF08BFD03464FF00102144618469749FEF750
S32D0000EEE041FA0346002B02D14FF000031C46E3B2002B19D041F2E840C1F6FF700BF074FD03464FF00102144663
S32D0000EF0818468D49FEF716FA0346002B02D14FF000031C46E3B2002B02D04FF0010301E04FF00003002B21D0A3
S32D0000EF3041F2E840C1F6FF700BF036FD044641F2E840C1F6FF700BF04FFD03461846FEF7BFFA03461846FEF701
S32D0000EF584DFA034618467749FEF74EF8034620461946FDF741FF03467B60DDE041F2E840C1F6FF700BF034FDD2
S32D0000EF8003464FF00102144618466D49FEF7EAF90346002B02D14FF000031C46E3B2002B19D041F2E840C1F6EC
S32D0000EFA8FF700BF01DFD03464FF00102144618466249FEF7BFF90346002B02D14FF000031C46E3B2002B02D09F
S32D0000EFD04FF0010301E04FF00003002B26D041F2E840C1F6FF700BF0DFFC044641F2E840C1F6FF700BF0F8FC7B
S32D0000EFF8034618465049FDF7F5FE03461846FEF763FA03461846FEF70DFA034618464949FDF7F2FF034620465B
S32D0000F0201946FDF7E3FE03467B6081E041F2E840C1F6FF700BF0D8FC03464FF00102144618464049FEF78EF971
S32D0000F0480346002B02D14FF000031C46E3B2002B19D041F2E840C1F6FF700BF0C1FC03464FF00102144618468A
S32D0000F0703549FEF763F90346002B02D14FF000031C46E3B2002B02D04FF0010301E04FF00003002B26D041F26C
S32D0000F098E840C1F6FF700BF083FC044641F2E840C1F6FF700BF09CFC034618462349FDF799FE03461846FEF7EA
S32D0000F0C007FA03461846FEF795F9034618461B49FDF796FF034620461946FDF787FE03467B6025E041F2E84058
S32D0000F0E8C1F6FF700BF05CFC044641F2E840C1F6FF700BF075FC034618461149FDF772FE03461846FEF7E0F970
S32D0000F11003461846FEF78AF9034618460749FDF76FFF034620461946FDF762FE03467B607B68184607F10C0787
S32D0000F138BD4690BD000000000000B442000034430000874390B583B000AF41F2E840C1F6FF700BF045FC0346F5
S32D0000F1604FF00102144618469749FEF7FBF80346002B02D14FF000031C46E3B2002B19D041F2E840C1F6FF70AA
S32D0000F1880BF02EFC03464FF00102144618468D49FEF7D0F80346002B02D14FF000031C46E3B2002B02D04FF0A2
S32D0000F1B0010301E04FF00003002B21D041F2E840C1F6FF700BF000FC044641F2E840C1F6FF700BF009FC034662
S32D0000F1D81846FEF779F903461846FEF723F9034618467749FDF708FF034620461946FDF7FBFD03467B60DDE04F
S32D0000F20041F2E840C1F6FF700BF0EEFB03464FF00102144618466D49FEF7A4F80346002B02D14FF000031C4606
S32D0000F228E3B2002B19D041F2E840C1F6FF700BF0D7FB03464FF00102144618466249FEF779F80346002B02D126
S32D0000F2504FF000031C46E3B2002B02D04FF0010301E04FF00003002B26D041F2E840C1F6FF700BF0A9FB044669
S32D0000F27841F2E840C1F6FF700BF0B2FB034618465049FDF7AFFD03461846FEF71DF903461846FEF7ABF8034625
S32D0000F2A018464949FDF7ACFE034620461946FDF79FFD03467B6081E041F2E840C1F6FF700BF092FB03464FF0FE
S32D0000F2C80102144618464049FEF748F80346002B02D14FF000031C46E3B2002B19D041F2E840C1F6FF700BF08F
S32D0000F2F07BFB03464FF00102144618463549FEF71DF80346002B02D14FF000031C46E3B2002B02D04FF00103EF
S32D0000F31801E04FF00003002B26D041F2E840C1F6FF700BF04DFB044641F2E840C1F6FF700BF056FB0346184601
S32D0000F3402349FDF753FD03461846FEF7C1F803461846FEF76BF8034618461B49FDF750FE034620461946FDF74C
S32D0000F36841FD03467B6025E041F2E840C1F6FF700BF026FB044641F2E840C1F6FF700BF02FFB03461846114982
S32D0000F390FDF72CFD03461846FEF79AF803461846FEF728F8034618460749FDF729FE034620461946FDF71AFD1D
S32D0000F3B803467B607B68184607F10C07BD4690BD000000000000B442000034430000874380B500AF00F05AFC06
S32D0000F3E000F012F84FF000004FF0804101F5101106F042F800F0D8F900F05CFC4FF00003184680BD0000000099
S32D0000F40880B582B000AF10E0FEF7AAF841F28040C1F6FF704DF6C061C0F2010107F086FFB3A1D1E9000106F087
S32D0000F43023F807F104023B4641F28040C1F6FF7011461A4607F074FD034683F00103DBB2002BDDD1FEF700F9C8
S32D0000F45841F2E840C1F6FF700BF0A2FA024641F25413C1F6FF731A6041F2E840C1F6FF700BF0A6FA024641F252
S32D0000F4805813C1F6FF731A6041F2E840C1F6FF700BF0AAFA024641F25C13C1F6FF731A604FF000004FF07E5156
S32D0000F4A801F5E00105F0E4FF10E0FEF759F841F28040C1F6FF704DF6E061C0F2010107F035FF8BA1D1E90001EE
S32D0000F4D005F0D2FF07F104023B4641F28040C1F6FF7011461A4607F023FD034683F00103DBB2002BDDD1FEF7C7
S32D0000F4F8AFF841F2E840C1F6FF700BF051FA024641F26013C1F6FF731A6041F2E840C1F6FF700BF055FA0246D4
S32D0000F52041F26413C1F6FF731A604FF000004FF07E5101F5E00105F09FFF10E0FEF714F841F28040C1F6FF70AF
S32D0000F5484DF60471C0F2010107F0F0FE68A1D1E9000105F08DFF07F104023B4641F28040C1F6FF7011461A46B0
S32D0000F57007F0DEFC034683F00103DBB2002BDDD1FEF76AF841F2E840C1F6FF700BF00CFA024641F26813C1F6F0
S32D0000F598FF731A6041F2E840C1F6FF700BF010FA024641F26C13C1F6FF731A6041F2E840C1F6FF700BF014FAAC
S32D0000F5C0024641F27013C1F6FF731A604FF000004FF07E5101F5E00105F04EFF10E0FDF7C3FF41F28040C1F6C6
S32D0000F5E8FF704DF62871C0F2010107F09FFE40A1D1E9000105F03CFF07F104023B4641F28040C1F6FF701146A7
S32D0000F6101A4607F08DFC034683F00103DBB2002BDDD1FEF719F841F2E840C1F6FF700BF0BBF9024641F274138E
S32D0000F638C1F6FF731A6041F2E840C1F6FF700BF0BFF9024641F27813C1F6FF731A604FF000004FF07E5101F5E1
S32D0000F660E00105F009FF10E0FDF77EFF41F28040C1F6FF704DF65071C0F2010107F05AFE1DA1D1E9000105F0AF
S32D0000F688F7FE07F104023B4641F28040C1F6FF7011461A4607F048FC034683F00103DBB2002BDDD1FDF7D4FFE8
S32D0000F6B041F2E840C1F6FF700BF076F9024641F27C13C1F6FF731A6041F2E840C1F6FF700BF07AF9024641F22A
S32D0000F6D88013C1F6FF731A604FF000004FF07E5101F5E00105F0C4FE17E000BFAFF300809A9999999999B93F8C
S32D0000F700FDF732FF41F28040C1F6FF704DF67871C0F2010107F00EFE21A1D1E9000105F0ABFE07F104023B4620
S32D0000F72841F28040C1F6FF7011461A4607F0FCFB034683F00103DBB2002BDDD1FDF788FF41F2E840C1F6FF70D3
S32D0000F7500BF02AF9024641F28413C1F6FF731A6041F2E840C1F6FF700BF02EF9024641F28813C1F6FF731A605C
S32D0000F77841F2E840C1F6FF700BF032F9024641F28C13C1F6FF731A60FDF7EAFE07F10807BD4680BDAFF30080BA
S32D0000F7A09A9999999999B93F90B587B004AF41F25413C1F6FF73196841F25813C1F6FF731A6841F25C13C1F697
S32D0000F7C8FF731B684FF00100009001934FF000030293DFF85834039308461146DFF85024DFF85034FEF73CF975
S32D0000F7F041F22C10C1F6FF70DFF8441406F030FD4FF000004FF07E5101F5E00105F034FE41F22C10C1F6FF7024
S32D0000F818DFF8281406F020FD4FF000030093DFF80C3401934FF000030293DFF800340393DFF80C04DFF80C14C6
S32D0000F840DFF80C24DFF80C34FEF70EF941F26013C1F6FF731B681846FF49FDF7C7FA03461A4641F26413C1F6C9
S32D0000F868FF731B684FF000010091F04901914FF000010291ED49039110461946EC4AF54BFEF7EEF841F21C10DF
S32D0000F890C1F6FF7000F0FCFC41F22410C1F6FF7000F0F6FCE54B7B6041F24010C1F6FF7006F00EF903464FF094
S32D0000F8B8010214461846DF49FDF75AFD0346002B02D14FF000031C46E3B2002B3ED041F26013C1F6FF731C68E8
S32D0000F8E041F26413C1F6FF731B681846DC49FDF77FFA03464FF001020092DA4A01924FF000020292CB4A039261
S32D0000F90820461946CA4ACB4BFEF7AAF841F26013C1F6FF731C6841F26413C1F6FF731B681846CD49FDF75EFAE2
S32D0000F93003464FF000020092BE4A01924FF001020292C94A039220461946BB4AC74BFEF78BF849E041F2601351
S32D0000F958C1F6FF731B681846BD49FDF743FA03461C4641F26413C1F6FF731B681846BA49FDF73AFA03464FF02E
S32D0000F98001020092B74A01924FF000020292A94A039220461946A84AA84BFEF765F841F26013C1F6FF731B6885
S32D0000F9A81846AB49FDF71EFA03461C4641F26413C1F6FF731B681846A749FDF713FA03464FF000020092994A84
S32D0000F9D001924FF0010202929D4A039220461946954AA24BFEF740F841F26813C1F6FF73196841F26C13C1F6A5
S32D0000F9F8FF731A6841F27013C1F6FF731B684FF00100009001934FF000030293874B039308461146874A944B93
S32D0000FA20FEF722F841F22C10C1F6FF70914906F017FC4FF000004FF0804101F5801105F01BFD41F22C10C1F638
S32D0000FA48FF707E4906F008FC4FF000030093774B01934FF000030293744B039384488549854A7A4BFDF7FCFFEC
S32D0000FA704FF0000300936F4B01934FF0000302936C4B03937F488049774A784BFDF7ECFF41F24413C1F6FF737B
S32D0000FA981B7883F00103DBB2002B19D041F27413C1F6FF731A6841F27813C1F6FF731B684FF0010100915D494E
S32D0000FAC001914FF0000102915A490391104619465A4A5A4BFDF7C8FF41F22C10C1F6FF70644906F0BDFB4FF094
S32D0000FAE800004FF07E5101F5C00105F0C1FC41F24413C1F6FF731B7883F00103DBB2002B19D041F27C13C1F6A2
S32D0000FB10FF731A6841F28013C1F6FF731B6845490091444901914FF0000102914149039110461946414A4FF0B3
S32D0000FB380103FEF7B9FB41F22C10C1F6FF703F4906F08AFB4FF000004FF07E5101F5E00105F08EFC41F244132D
S32D0000FB60C1F6FF731B7883F00103DBB2002B1DD041F28413C1F6FF73196841F28813C1F6FF731A6841F28C13E0
S32D0000FB88C1F6FF731B684FF00100009001934FF000030293384B039308461146244A254BFDF75EFF41F24413F1
S32D0000FBB0C1F6FF731B7883F00103DBB2002B15D041F22C10C1F6FF702A4906F049FB4FF000004FF07E5101F5D2
S32D0000FBD8E00105F04DFC41F22C10C1F6FF70174906F03AFB4FF000030093104B01934FF0000302930D4B039337
S32D0000FC0022482149184A124BFDF72EFF4FF000030093084B01934FF000030293054B03931A481B49104A0A4B34
S32D0000FC28FDF71EFF07F10C07BD4690BD000000000000403F0000003F0000F0420000F0410000804100007041AF
S32D0000FC500000803F9A99193F00009040CDCCCC3E0000404000008743000000403333333F9A99993E0000DC423F
S32D0000FC780000E641000086410000C03F0000F84100005C420000C0400000004180B500AF41F2E840C1F6FF70F4
S32D0000FCA00AF0B2F941F20850C1F6FF700AF092FF80BD00BF80B500AF41F20850C1F6FF700BF05AF880BD00BF7B
S32D0000FCC880B586B000AFF860C7E90023F868FCF7FFFC02460B4610461946D7E900230BF0D9FA02460B4610468D
S32D0000FCF0194607F11807BD4680BD00BF80B582B000AF786039607B68012B36D13A684FF6FF739A4231D141F26A
S32D0000FD181C10C1F6FF704FF00001184A00F05CFA41F22410C1F6FF704FF00101134A00F053FA41F22C10C1F6F5
S32D0000FD40FF704FF0000106F06BFA41F23810C1F6FF704FF0030105F0DDFB41F23C10C1F6FF704FF0030105F0FD
S32D0000FD68D5FB41F24010C1F6FF704FF0000105F09BFE07F10807BD4680BD00BF0000104180B500AF4FF00100AB
S32D0000FD904FF6FF71FFF7B2FF80BD00BF80B500AF41F68812C1F6FF7241F21C13C1F6FF73D31A194641F21C13D7
S32D0000FDB8C1F6FF731A460B4610464FF000011A460CF011FE80BD00BF0DF086FE00F0B0F9FFF7E0FF0DF058FE04
S32D0000FDE00DF0F4FD0DF08CFE00F00CF84FF0000041F29011C1F6FF71FFF7EEFA034618460CF0D0FD80B500AF20
S32D0000FE084FF4E043C4F204034FF4E042C4F2040202F5805202F13802126842F4785203F5805303F138031A60A4
S32D0000FE3000F02EF900F094F841F2CC33C1F6FF734FF058021A6041F2CC33C1F6FF731B684FF47A7202FB03F2A4
S32D0000FE5841F2C833C1F6FF731A6041F2C833C1F6FF731B681A464FF4E043C4F2040303F5825303F104031B6803
S32D0000FE8003F070634FEA136303F10103B2FBF3F31A4641F2D033C1F6FF731A604FF4E043C4F204034FF4E04293
S32D0000FEA8C4F2040202F5805202F13C02126842F0225203F5805303F13C031A604FF4E043C4F204034FF4E04256
S32D0000FED0C4F2040202F5805202F13002126842F0006203F5805303F130031A604FF45043C4F203034FF4807219
S32D0000FEF81A614FF0640005F035F94FF45043C4F203034FF45042C4F20302526922F010025A614FF45043C4F253
S32D0000FF2003034FF000021A604FF45043C4F203034FF010025A6105F0FDFE05F0A5FF41F2C430C1F6FF7005F089
S32D0000FF4895F941F28040C1F6FF7006F049FD41F2883005F073FA80BD80B400AF4FF48043C4F206034FF0000235
S32D0000FF705A704FF48043C4F206034FF098021A704FF48043C4F206039B79DBB203F01003002B0CBF00230123C8
S32D0000FF98DBB2002BF0D14FF48043C4F206039B79DBB203F00C034FEA9303022B0CBF00230123DBB2002BEED1D5
S32D0000FFC04FF48043C4F206034FF018021A714FF48043C4F206034FF000025A714FF4E043C4F2040303F58253A9
S32D0000FFE803F104034FF00002C0F213121A604FF48043C4F206034FF054025A7100BF4FF48043C4F206039B79A1
S32D00010010DBB203F02003002B14BF00230123DBB2002BF0D100BF4FF48043C4F206039B79DBB203F04003002BDA
S32D0001003814BF00230123DBB2002BF0D14FF48043C4F206034FF48042C4F206021278D2B202F03F02D2B21A702F
S32D000100604FF48043C4F206039B79DBB203F00C034FEA9303032B0CBF00230123DBB2002BEED14FF000031846E3
S32D00010088BD4680BC704700BF80B400AF4FF44043C4F204034FF480725A634FF2C003C4F20F034FF2C002C4F2B7
S32D000100B00F02526942F400525A614FF2C003C4F20F034FF2C002C4F20F02126842F400521A604FF44043C4F284
S32D000100D8040340F20312C0F20A021A634FF46143CEF200034FF46142CEF20002D2F8882142F08062C3F8882133
S32D000101004FF46143CEF200034FF46142CEF20002926842F080629A60BD4680BC704700BF80B483B000AF7860D3
S32D00010128FEE700BF80B400AF00BEBD4680BC704780B400AF4FF0E0224CF20003C0F20003C2F8083D4FF40053BE
S32D00010150C4F205034CF22052DA814FF40053C4F205034DF62812DA814FF40053C4F205034FF0D2021A80BD4687
S32D0001017880BC704780B500AF4FF44043C4F20403D3F8A03003F48053002B0CBF00230123DBB2002B1FD04FF472
S32D000101A04043C4F204034FF44042C4F20402D2F8A02022F48052C3F8A02041F20850C1F6FF700AF0D9FD4FF2C0
S32D000101C8C003C4F20F034FF2C002C4F20F02126822F400521A6080BD90B585B000AFF8600B467A60FB72FB689E
S32D000101F0FA7A1A71FB684FF000025A714FF001031C4678682049FDF7B7F80346002B02D14FF000031C46E3B261
S32D00010218002B02D01A4B7B6011E04FF001031C4678681849FDF790F80346002B02D14FF000031C46E3B2002B7C
S32D0001024001D0124B7B607868FCF746FA02460B46104619460AA3D3E90023FCF791FA02460B4610461946FCF7DA
S32D000102686DFD0246FB681A60FB68184607F11407BD4690BDAFF30080ABAAAAAAAAAA2040000040410000803FF5
S32D0001029080B582B000AF78607B685B79002B10D07B684FF000025A717B681B7941F2C430C1F6FF7019464FF03E
S32D000102B800024FF01E0305F023F807F10807BD4680BD00BF80B584B000AF786039603B687F2B03DD4FF07F0328
S32D000102E0FB7309E03B6813F1800F03DA4FF08003FB7301E03B68FB737B685B79FA7B9A420FD07B68FA7B5A7159
S32D000103087B681A79FB7B41F2C430C1F6FF7011461A464FF01E0304F0F3FF07F11007BD4680BD00BF0000000082
S32D00010330B0B584B000AF786039604FF001031C4638684D49FCF7FAFF0346002B02D14FF000031C46E3B2002B73
S32D0001035802D0474B3B6011E04FF001031C4638684449FDF705F80346002B02D14FF000031C46E3B2002B01D047
S32D000103803E4B3B603868FCF7A7F904460D467B681B681846FCF7A0F902460B46104619464FF000024FF0804379
S32D000103A803F5B203FCF712FB02460B4620462946FCF7E2F902460B4610461946FCF7BEFC03463B604FF001031B
S32D000103D01C4638682A49FCF7C5FF0346002B02D14FF000031C46E3B2002B14D03868FCF773F902460B46104655
S32D000103F819461DA3D3E90023FCF7BEF902460B4610461946FCF752FC0346FB6022E03868FCF75EF902460B4676
S32D00010420104619464FF000024FF0804303F5C003FCF7A6F902460B46104619464FF000024FF0804303F5B2032A
S32D00010448FCF7C4FA02460B4610461946FCF72EFC0346FB607868F968FFF734FF07F11007BD46B0BDAFF30080BA
S32D0001047052B81E85EB51F43F0000C8C20000C84200000000AFF3008080B485B000AF02460B46FA71BB71BB790F
S32D00010498002B07D141F29413C1F6FF734FF000021A7006E041F29413C1F6FF734FF001021A704FF03803FB73C7
S32D000104C041F29413C1F6FF731A78FB7B1343FB734FF4C043C4F206034FF4C042C4F206029278D2B242F0100264
S32D000104E8D2B29A704FF4C043C4F206034FF4C042C4F206029278D2B242F02002D2B29A704FF4C043C4F20603DA
S32D00010510FA7B1A7107F11407BD4680BC704700BF80B483B000AF4FF001037B6004E000BF7B6803F101037B6067
S32D000105387B68312BCCBF00230123DBB2002BF2D107F10C07BD4680BC704700BF80B582B000AF02460B46FA712E
S32D00010560BB7141F29513C1F6FF731B7818464FF00001FFF789FF4FF4C043C4F20603DB78DBB203F00203002B85
S32D0001058814BF00230123DBB2002BF0D14FF4C043C4F206034FF4C042C4F20602D278D2B242F00202D2B2DA70D7
S32D000105B04FF4C043C4F20603FA791A714FF4C043C4F20603DB78DBB203F00203002B14BF00230123DBB2002B3F
S32D000105D8F0D14FF4C043C4F206034FF4C042C4F20602D278D2B242F00202D2B2DA704FF4C043C4F20603BA7921
S32D000106001A714FF4C043C4F20603DB78DBB203F00203002B14BF00230123DBB2002BF0D14FF4C043C4F20603A0
S32D000106284FF4C042C4F20602D278D2B242F00202D2B2DA704FF4C043C4F206034FF4C042C4F206029278D2B238
S32D0001065022F02002D2B29A704FF4C043C4F206034FF4C042C4F206029278D2B222F01002D2B29A70FFF754FF28
S32D0001067807F10807BD4680BD80B582B000AF0346FB71FB79184600F06BF807F10807BD4680BD00BF80B582B0AF
S32D000106A000AF02460B46FA71BB7100F039F8FB794FEA4303DBB21846FFF7E2FFBB791846FFF7DEFF00F03EF8EB
S32D000106C807F10807BD4680BD80B500AF4FF0FF0000F046F80346184680BD00BF80B584B000AF0346FB7100F00C
S32D000106F017F8FB794FEA4303DBB243F00103DBB2DBB21846FFF7BCFFFFF7E2FF0346FB7300F018F8FB7B18468A
S32D0001071807F11007BD4680BD80B400AF4FF24003C4F20F034FF24002C4F20F02926842F480129A60BD4680BCEF
S32D00010740704700BF80B400AF4FF24003C4F20F034FF24002C4F20F02526842F480125A60BD4680BC704700BFAA
S32D0001076880B485B000AF0346FB714FF00003BB7303E0FB7B03F10103FB734FF44043C4F20A03DB6A4FF0000356
S32D00010790002BF2D14FF44043C4F20A034FF44042C4F20A02D26A42F00042DA624FF44043C4F20A03FA795A6397
S32D000107B800BF4FF44043C4F20A03DB6A03F40033002B14BF00230123DBB2002BF1D14FF44043C4F20A039B6B0D
S32D000107E0BB73BB7B184607F11407BD4680BC704780B582B000AF4FF4E043C4F204034FF4E042C4F2040202F5CE
S32D00010808805202F13002126842F4805203F5805303F130031A604FF42043C4F204034FF480721A654FF2400341
S32D00010830C4F20F034FF24002C4F20F02526942F480125A61FFF77EFF4FF42043C4F204034FF400725A654FF4BC
S32D000108582043C4F204034FF400729A654FF42043C4F204034FF40072DA654FF44043C4F20A034FF44062C8F21E
S32D0001088000021A604FF44043C4F20A034FF00502C3F60062DA604FF000037B6007E04FF0FF00FFF7EDFE7B68A3
S32D000108A803F101037B607B68092BCCBF00230123DBB2002BEFD104A1D1E9000104F0D8FD07F10807BD4680BD7D
S32D000108D09A9999999999B93F90B486B000AFF860B9607A60FA684FF42043C4F206039A4214D14FF4E043C4F252
S32D000108F804034FF4E042C4F2040202F5805202F13402126842F4806203F5805303F134031A6083E0FA684FF4AD
S32D000109203043C4F206039A4214D14FF4E043C4F204034FF4E042C4F2040202F5805202F13402126842F400626D
S32D0001094803F5805303F134031A6067E0FA684FF44043C4F206039A4214D14FF4E043C4F204034FF4E042C4F2E3
S32D00010970040202F5805202F13402126842F4805203F5805303F134031A604BE0FA684FF45043C4F206039A4270
S32D0001099814D14FF4E043C4F204034FF4E042C4F2040202F5805202F13402126842F4005203F5805303F134031D
S32D000109C01A602FE0FA684FF42043C4F20E039A4214D14FF4E043C4F204034FF4E042C4F2040202F5805202F1EF
S32D000109E82802126842F4806203F5805303F128031A6013E04FF4E043C4F204034FF4E042C4F2040202F58052C0
S32D00010A1002F12802126842F4006203F5805303F128031A60FB68DB78DBB223F00C03DAB2FB68DA70FB684FF0E4
S32D00010A3800029A70BB684FF47A7202FB03F27B684FEA031392FBF3F39CB2FB681B78DBB223F01F03FB752346BB
S32D00010A6003F4F8534FEA2323DBB203F01F03DAB2FB7D1343DAB2FB681A70E2B2FB685A70BB684FF4FA4202FBD1
S32D00010A8803F27B684FEA031392FBF3F39AB2234619464FEAC121CB1A4FEA43139BB2D3189CB2FB689B7ADBB277
S32D00010AB023F01F03FB75E3B203F01F03DAB2FB7D1343DAB2FB689A72FB68DB78DBB243F00C03DAB2FB68DA70B5
S32D00010AD807F11807BD4690BC704700BF80B483B000AF786000BF7B681B79DBB203F02003002B14BF0023012307
S32D00010B00DBB2002BF3D17B68DB79DBB2184607F10C07BD4680BC704780B483B000AF78600B46FB7000BF7B68DB
S32D00010B281B79DBB2DBB26FEA0303DBB24FEAD313DBB2002BF3D17B68FA78DA7107F10C07BD4680BC704700BF09
S32D00010B5080B487B000AFF860B9607A60FB687B61BB683B610BE03B691A787B691A707B6903F101037B613B6928
S32D00010B7803F101033B617B68002B0CBF00230123DBB27A6802F1FF327A60002BE7D107F11C07BD4680BC704739
S32D00010BA080B487B000AFF860B9607A60FB687B6107E0BB68DAB27B691A707B6903F101037B617B68002B0CBFED
S32D00010BC800230123DBB27A6802F1FF327A60002BEBD107F11C07BD4680BC704780B489B000AFF860B9607A60EB
S32D00010BF0FB68FB61BB68BB614FF000037B617B68002B0CBF00230123DBB27A6802F1FF327A60002B19D0FB69B5
S32D00010C181B781A46BB691B78D31A7B617B69002B14BF00230123DBB2FA6902F10102FA61BA6902F10102BA619C
S32D00010C40002B02D04FF0010301E04FF00003002BD5D17B69184607F12407BD4680BC704780B483B000AF786008
S32D00010C68396003E07B6803F101037B607B681B78002B08D07B681B781A463B689A4202D04FF0010301E04FF028
S32D00010C900003002BEAD17B681B78184607F10C07BD4680BC704700BF80B584B000AF786039607B681B6BFB606B
S32D00010CB8FA683B689A4264D07B681B79002B43D07B685A787B6803F1340310461946FA684FF0010304F0B4F886
S32D00010CE00346002B0CBF00230123DBB2002B02D04FF001034BE07B684FF000021A717B685A6A7B681B6AD218BF
S32D00010D08FB689A4220D97B68DB78FB7214E07B681B6AFA68D318FB607B685A787B6803F1340310461946FA6803
S32D00010D304FF0010304F088F8FB7A03F1FF33FB72FB7A012B94BF00230123DBB2002BE2D13B68002B19D07B6895
S32D00010D585A787B6803F13403104619463A684FF0010303F05FFF0346002B0CBF00230123DBB2002B02D04FF052
S32D00010D80010304E07B683A681A634FF00003184607F11007BD4680BD80B584B000AF786078684FF00001FFF765
S32D00010DA87FFF0346FB73FB7B002B40F0AE807B681B78032B40F095807B685B79002B00F090807B684FF00002F9
S32D00010DD01A637B6803F1340318464FF000014FF40072FFF7DDFE7B684FF0550283F832227B684FF0AA0283F8B4
S32D00010DF833227B684FF0520283F834207B684FF0520283F835207B684FF0610283F836207B684FF0410283F8B6
S32D00010E2037207B684FF0720283F818227B684FF0720283F819227B684FF0410283F81A227B684FF0610283F899
S32D00010E481B227B681B69DAB27B6883F81C227B681B699BB24FEA2323DAB27B6883F81D227B681B694FEA13435D
S32D00010E70DAB27B6883F81E227B681B694FEA1363DAB27B6883F81F227B68DB68DAB27B6883F820227B68DB6870
S32D00010E989BB24FEA2323DAB27B6883F821227B68DB684FEA1343DAB27B6883F822227B68DB684FEA1363DAB2EE
S32D00010EC07B6883F823227B6859787B6803F134027B685B69084611461A464FF0010303F0B3FF7B684FF00002E7
S32D00010EE85A717B685B7818464FF000014FF0000204F08CF80346002B0CBF00230123DBB2002B02D04FF00103B0
S32D00010F10FB73FB7B184607F11007BD4680BD00BF80B483B000AF786039603B68A3F102033B607B68DB69A3F149
S32D00010F3802023B689A4202D84FF0000307E07B689B783A6802FB03F27B68DB6AD318184607F10C07BD4680BCBF
S32D00010F60704700BF80B586B000AF786039603B68012B04D97B68DA693B689A4202D84FF00103D3E07B681B78CA
S32D00010F88022B5FD0032B00F08A80012B40F0C8803B687B617B694FEA53037A69D3187B617B685A6A7B694FEAB2
S32D00010FB05323D31878681946FFF776FE0346002B0CBF00230123DBB2002B40F0A6807B694FEAC3534FEAD353E2
S32D00010FD87A68D31893F834303B617B6903F101037B617B685A6A7B694FEA5323D31878681946FFF755FE0346E4
S32D00011000002B0CBF00230123DBB2002B40F087807B694FEAC3534FEAD3537A68D31893F834304FEA03233A6945
S32D0001102813433B613B6803F00103DBB2002B03D03B694FEA131304E03B694FEA03534FEA13536FE07B685A6AD3
S32D000110503B684FEA1323D31878681946FFF724FE0346002B0CBF00230123DBB2002B58D13B684FEA43034FEA5B
S32D00011078C3534FEAD35303F130037A68D31803F10403FB60FB6803F101031B784FEA03239AB2FB681B781343A5
S32D000110A09BB29BB242E07B685A6A3B684FEAD313D31878681946FFF7F7FD0346002B0CBF00230123DBB2002BAA
S32D000110C82DD13B684FEA83034FEAC3534FEAD35303F130037A68D31803F10403FB60FB6803F103031B784FEA78
S32D000110F00362FB6803F102031B784FEA03431A43FB6803F101031B784FEA03231A43FB681B78134323F07043E5
S32D0001111808E000BF04E000BF02E000BF00E000BF4FF0FF33184607F11807BD4680BD00BF80B588B000AFF860C5
S32D00011140B9607A60BB68012B04D9FB68DA69BB689A4203D84FF00203FB771AE1FB681B78022B00F08580032BEA
S32D0001116800F0AD80012B40F00181BB68BB61BB694FEA5303BA69D318BB61FB685A6ABB694FEA5323D318F868FC
S32D000111901946FFF789FD0346FB77FB7F002B40F0ED80BB694FEAC3534FEAD35303F13003FA68D31803F1040317
S32D000111B87B61BB6803F00103DBB2002B0ED07B691B78DBB203F00F03DAB27B68DBB24FEA0313DBB21343DBB2B8
S32D000111E0DBB201E07B68DBB27A691370BB6903F10103BB61FB684FF001021A71FB685A6ABB694FEA5323D3184F
S32D00011208F8681946FFF74CFD0346FB77FB7F002B40F0B280BB694FEAC3534FEAD35303F13003FA68D31803F1BD
S32D0001123004037B61BB6803F00103DBB2002B04D07B684FEA1313DBB20FE07B691B78DBB223F00F03DAB27B68B0
S32D000112584FEA1323DBB203F00F03DBB21343DBB2DBB27A6913708CE0FB685A6ABB684FEA1323D318F868194634
S32D00011280FFF712FD0346FB77FB7F002B7AD1BB684FEA43034FEAC3534FEAD35303F13003FA68D31803F10403D0
S32D000112A87B617B68DAB27B691A707B6903F101037A6892B24FEA2222D2B21A7061E0FB685A6ABB684FEAD31327
S32D000112D0D318F8681946FFF7E7FC0346FB77FB7F002B51D1BB684FEA83034FEAC3534FEAD35303F13003FA68D1
S32D000112F8D31803F104037B617B6903F103031B784FEA03627B6903F102031B784FEA03431A437B6903F10103CE
S32D000113201B784FEA03231A437B691B78134303F070437A6813437B607B68DAB27B691A707B6903F101037A682E
S32D0001134892B24FEA2222D2B21A707B6903F102037A684FEA1242D2B21A707B6903F103037A684FEA1262D2B25C
S32D000113701A700AE04FF00203FB7706E000BF04E000BF02E000BF00E000BFFB684FF001021A71FB7F184607F19C
S32D000113982007BD4680BD00BF80B584B000AF786039603B68012B04D97B68DA693B689A4203D84FF00203FB7399
S32D000113C045E04FF00003FB7333E078683968FFF7C9FD0346BB60BB68002B35D0BB68012B03D14FF00203FB734D
S32D000113E831E0BB68B3F1FF3F03D14FF00103FB7329E0786839684FF00002FFF799FE0346FB73FB7B002B1DD19D
S32D000114107B681B69B3F1FF3F09D07B681B6903F101027B681A617B684FF001025A71BB683B607B68DA693B6858
S32D000114389A4294BF00230123DBB2002BC1D102E000BF00E000BFFB7B184607F11007BD4680BD00BF80B586B038
S32D0001146000AF786039603B68002B0ED17B68DB683B613B69002B04D07B68DA693B699A4218D84FF001033B61B6
S32D0001148814E078683968FFF769FD0346BB60BB68012B02D84FF001036EE07B68DA69BB689A4201D9BB6867E0DD
S32D000114B03B683B613B697B6100E000BF7B6903F101037B617B68DA697B699A4209D84FF002037B617A693B6989
S32D000114D89A4202D94FF000034EE078687969FFF73DFD0346BB60BB68002B0FD0BB68B3F1FF3F02D0BB68012B15
S32D0001150001D1BB683CE07A693B699A42D5D14FF0000335E000BF786879696FF07042FFF70BFE0346FB73FB7B8D
S32D00011528002B09D13B68002B06D0786839687A69FFF7FEFD0346FB73FB7B002B12D17B687A69DA607B681B69F4
S32D00011550B3F1FF3F13D07B681B6903F1FF327B681A617B684FF001025A7108E0FB7B012B02D14FF0FF3301E01E
S32D000115784FF001037B617B69184607F11807BD4680BD00BF80B487B000AF786039607B685B6A03F104033B6103
S32D000115A03B684FEA53227B681B689B78B2FBF3F37B613B691B68FB603B6903F104033B61FB68002B02D14FF086
S32D000115C8000311E07A69FB689A4208D37A69FB68D31A7B613B6903F104033B61E5E700BF3B691A687B69D31839
S32D000115F0184607F11C07BD4680BC704780B584B000AF78600B467B807B687A88DA807B689B68FB60FB68012B12
S32D0001161805D07B681B68DA69FB689A4202D84FF0020373E0FB68002B08D17B681B681B78032B03D17B681B68AD
S32D000116409B6AFB60FB68002B16D17B68FA68DA607B681B681B897A889A4202D34FF0020358E07B681B689A6A84
S32D000116687B884FEA13139BB2D2187B681A613FE07B681B689B784FEA03137B811EE07B681B681846F968FFF760
S32D0001169069FC0346FB60FB68B3F1FF3F02D14FF0010337E0FB68012B05D97B681B68DA69FB689A4202D84FF042
S32D000116B802032BE07A887B89D31A7B807A887B899A4234BF00230123DBB2002BD7D17B68FA68DA607B681B68A4
S32D000116E01846F968FFF71CFC02467B884FEA13139BB2D2187B681A617B681B6803F134027B8803F00F034FEAFE
S32D000117084313D2187B685A614FF00003184607F11007BD4680BD00BF90B585B000AF786039607B68DB8803F152
S32D0001173001033B813B89002B03D07B681B69002B02D14FF00403E4E03B8903F00F03002B40F0CE807B681B69C0
S32D0001175803F101027B681A617B68DB68002B09D17B681B681B893A899A42C0F0BD804FF00403CAE03B894FEA5F
S32D0001178013139BB21A467B681B689B7803F1FF331340002B40F0AC807B681A687B68DB6810461946FFF7DEFBDF
S32D000117A80346FB60FB68012B02D84FF00203ACE0FB68B3F1FF3F02D14FF00103A5E07B681B68DA69FB689A426D
S32D000117D000F282803B68002B02D14FF0040398E07B681A687B68DB6810461946FFF736FE0346FB60FB68002BFB
S32D000117F802D14FF0070388E0FB68012B02D14FF0020382E0FB68B3F1FF3F02D14FF001037BE07B681B681846BC
S32D000118204FF00001FFF740FA0346002B0CBF00230123DBB2002B02D04FF0010369E07B681B6803F1340318469E
S32D000118484FF000014FF40072FFF7A6F97B681C687B681B681846F968FFF75EFB034623634FF00003FB7220E08E
S32D000118707B681B684FF001021A717B681B6818464FF00001FFF710FA0346002B0CBF00230123DBB2002B02D002
S32D000118984FF0010339E07B681B681A6B02F101021A63FB7A03F10103FB727B681B689B78FA7A9A422CBF0023B6
S32D000118C00123DBB2002BD3D17B681B687A681268116BFA7A8A1A1A637B68FA68DA607B681B681846F968FFF70C
S32D000118E81BFB02467B681A617B683A89DA807B681B6803F134023B8903F00F034FEA4313D2187B685A614FF066
S32D000119100003184607F11407BD4690BD80B586B000AF786078684FF00001FFF767FE0346FB75FB7D002B01D04A
S32D00011938FB7D47E07B681A687B681B6910461946FFF7AEF90346FB75FB7D002B36D17B685B693B613B691B78E6
S32D00011960FB73FB7B002B03D14FF00403FB752CE03B6903F10B031B7803F00803002B0DD17B689B69386919468C
S32D000119884FF00B02FFF72AF90346002B02D14FF0010301E04FF00003002B11D178684FF00001FFF7B9FE0346FB
S32D000119B0FB75FB7D002B14BF00230123DBB2002BBCD102E000BF00E000BFFB7D184607F11807BD4680BD00BF6A
S32D000119D880B584B000AF786078684FF00001FFF709FE0346FB73FB7B002B29D17B681A687B681B691046194600
S32D00011A00FFF752F90346FB73FB7B002B19D17B685B691B78BB73BB7BE52B14D0BB7B002B11D078684FF001013F
S32D00011A28FFF77AFE0346FB73FB7B002B14BF00230123DBB2002BD9D102E000BF00E000BFFB7B002B23D17B6895
S32D00011A501A687B681B6910461946FFF725F90346FB73FB7B002B16D17B685B69BB60B8684FF000014FF02002F3
S32D00011A78FFF792F87B689B69B86819464FF00B02FFF762F87B681B684FF001021A71FB7B184607F11007BD46A4
S32D00011AA080BD00BF80B588B000AF786039603B681B68FB6003E0FB6803F10103FB60FB681B782F2B03D0FB68EE
S32D00011AC81B785C2B02D14FF0010301E04FF00003002BECD17B689B69BB60B8684FF020014FF00B02FFF758F8A0
S32D00011AF04FF00003FB774FF000033B613B697B614FF00803BB61FA687B69D3181B782E2B39D1FA687B69D318F7
S32D00011B181B78BB777B6903F101037B61BB7F2E2B0CD17B69022B09D8BA683B69D318BA7F1A703B6903F10103AF
S32D00011B403B61E6E700BFBB7F2F2B08D0BB7F5C2B05D0BB7F202B02D94FF00603C5E0FA687B69D2183B681A60B2
S32D00011B68BB6803F10B02BB7F202B02D84FF0240301E04FF0200313704FF00003B1E0FA687B69D3181B78BB77D6
S32D00011B907B6903F101037B61BB7F202B68D9BB7F2F2B65D0BB7F5C2B62D0BB7F2E2B03D03A69BB699A4214D3FC
S32D00011BB8BB69082B02D1BB7F2E2B02D04FF006038FE04FF008033B614FF00B03BB61FB7F4FEA8303FB7700BFFF
S32D00011BE0D1E7BB7F5BB2002B0CDAFB7F43F00303FB77BB7FA3F180024EF28433C0F201039B5CBB77BB7F4DF6FE
S32D00011C08AC70C0F201001946FFF726F80346002B0CBF00230123DBB2002B02D04FF006035FE0BB7F402B07D94F
S32D00011C30BB7F5A2B04D8FB7F43F00203FB770DE0BB7F602B0AD9BB7F7A2B07D8FB7F43F00103FB77BB7FA3F182
S32D00011C582003BB77BA683B69D318BA7F1A703B6903F101033B618AE700BFFA687B69D2183B681A60BB7F202B5A
S32D00011C8002D84FF0040301E04FF00003BB773B69002B02D14FF0060327E0BB681B78E52B03D1BB684FF00502CC
S32D00011CA81A70BB69082B03D1FB7F4FEA8303FB77FB7F03F00303012B03D1BB7F43F01003BB77FB7F03F00C030C
S32D00011CD0042B03D1BB7F43F00803BB77BB6803F10B03BA7F1A704FF00003184607F12007BD4680BD80B584B0E8
S32D00011CF800AF786039603B681B782F2B03D03B681B785C2B08D13B6803F101033B607B684FF000029A6004E06C
S32D00011D207B681B689A697B689A603B681B781F2B0BD878684FF00001FFF760FC0346FB737B684FF000025A61E3
S32D00011D4875E03B4678681946FFF7A8FE0346FB73FB7B002B64D17868FFF7DCFD0346FB737B689B69DB7ABB735E
S32D00011D70FB7B002B21D0FB7B042B57D1BB7B03F02003002B10D07B684FF000029A607B684FF000025A614FF052
S32D00011D980003FB73BB7B03F00403002B44D13EE0BB7B03F00403002B3ED14FF00503FB733AE0BB7B03F00403B4
S32D00011DC0002B37D17B685B69BB60BB6803F10B031B7803F01003002B03D14FF00503FB7329E0BB6803F1150355
S32D00011DE81B784FEA03239AB2BB6803F114031B7813439BB29BB24FEA0342BB6803F11B031B784FEA032399B2ED
S32D00011E10BB6803F11A031B780B439BB29BB21A437B689A6091E790E700BF04E000BF02E000BF00E000BFFB7BB3
S32D00011E38184607F11007BD4680BD00BF80B582B000AF786039607B685A787B6803F13403104619463A684FF02F
S32D00011E60010302F0E3FE0346002B0CBF00230123DBB2002B02D04FF0030356E07B6893F833324FEA03239AB273
S32D00011E887B6893F8323213439BB21AB24AF65523CFF6FF739A4202D04FF0020341E07B6893F86D304FEA03623F
S32D00011EB07B6893F86C304FEA03431A437B6893F86B304FEA03231A437B6893F86A30134323F07F4244F2461397
S32D00011ED8C0F254039A4202D14FF0000321E07B6893F889304FEA03627B6893F888304FEA03431A437B6893F8AB
S32D00011F0087304FEA03231A437B6893F88630134323F07F4244F24613C0F254039A4202D14FF0000301E04FF048
S32D00011F280103184607F10807BD4680BD80B592B000AFF860B9601346FB71FB681B68FB62FB6A1B78A3F1300383
S32D00011F503B643B6C092B0DD8FB6A03F101031B783A2B07D1FB6A03F10203FB62FB68FA6A1A6005E041F29E1311
S32D00011F78C1F6FF731B783B643B6C002B02D04FF00B03C9E241F29813C1F6FF733A6C53F82230BB62BB68BA6A95
S32D00011FA01A60BB6A002B02D14FF00C03B8E2BB6A1B78002B20D0BB6A5B78184603F0BEF8034687F8273097F80D
S32D00011FC8273003F00103DBB283F00103DBB2002B0ED0FB79002B08D097F8273003F00403002B02D04FF00A0362
S32D00011FF096E24FF0000393E2BB6A4FF000021A703B6CDAB2BB6A5A70BB6A5B78184602F04FFB034687F82730D0
S32D0001201897F8273003F00103DBB2002B02D04FF0030379E2FB79002B08D097F8273003F00403002B02D04FF0FF
S32D000120400A036DE24FF00003FB63B86AF96BFFF7F9FE034687F8473097F84730012B2AD1BB6A03F5F9733B6270
S32D000120683B6A03F104031B78002B20D03B6A03F10B031B784FEA03623B6A03F10A031B784FEA03431A433B6A69
S32D0001209003F109031B784FEA03231A433B6A03F108031B781343FB63B86AF96BFFF7CAFE034687F8473097F8D5
S32D000120B84730032B02D14FF001032DE297F84730002B02D04FF00D0326E2BB6A93F840304FEA03239AB2BB6AE5
S32D000120E093F83F3013439BB21BB2B3F5007F02D04FF00D0314E2BB6A93F84B304FEA03239AB2BB6A93F84A3029
S32D0001210813439BB29BB2BB63BB6B002B15D1BB6A93F85B304FEA0362BB6A93F85A304FEA03431A43BB6A93F8C4
S32D0001213059304FEA03231A43BB6A93F858301343BB63BB6ABA6B1A62BB6A93F84430FB77BB6AFA7FDA70FB7FD1
S32D00012158012B05D0FB7F022B02D04FF00D03DBE1FA7FBB6B02FB03F3BB63BB6A93F84130FB77BB6AFA7F9A70E8
S32D00012180FB7F002B06D0FA7FFB7F03F1FF331340002B02D04FF00D03C2E1BB6A93F846304FEA03239AB2BB6A64
S32D000121A893F8453013439BB29AB2BB6A1A81BB6A1B8903F00F03002B02D04FF00D03ABE1BB6A93F848304FEA52
S32D000121D003239AB2BB6A93F8473013439BB29BB27B637B6B002B15D1BB6A93F857304FEA0362BB6A93F8563077
S32D000121F84FEA03431A43BB6A93F855304FEA03231A43BB6A93F8543013437B63BB6A93F843304FEA03239AB2B5
S32D00012220BB6A93F8423013439BB2BB83BB8B002B02D14FF00D0373E1BA8BBB6BD218BB6A1B894FEA13139BB2DB
S32D00012248D318BB617A6BBB699A4202D24FF00D0362E17A6BBB69D21ABB6A9B78B2FBF3F37B617B69002B02D197
S32D000122704FF00D0354E14FF0010387F847307A6940F6F5739A4203D94FF0020387F847307A694FF6F5739A42A3
S32D0001229803D94FF0030387F847307B6903F10202BB6ADA61FA6BBB69D218BB6ADA62BA8BFB6BD218BB6A5A627A
S32D000122C097F84730032B23D1BB6A1B89002B02D04FF00D0324E1BB6A93F863304FEA0362BB6A93F862304FEA51
S32D000122E803431A43BB6A93F861304FEA03231A43BB6A93F860301A43BB6A9A62BB6ADB694FEA83033B6323E0A0
S32D00012310BB6A1B89002B02D14FF00D0300E1BB6A5A6ABB6BD218BB6A9A6297F84730022B04D1BB6ADB694FEAE3
S32D0001233843030CE0BB6ADA6913464FEA43039B184FEA5302BB6ADB6903F00103D3183B63BB6A1A6A3B6B03F593
S32D00012360FE7303F103034FEA53239A4202D24FF00D03D5E0BB6A4FF0FF321A61BB6A4FF00002DA6097F84730CA
S32D00012388032B40F0A380BB6A4FF000025A71BB6A93F865304FEA03239AB2BB6A93F8643013439BB29BB21A46F0
S32D000123B0FB6BD218BB6A5A61BB6A5978BB6A03F13402BB6A5B69084611461A464FF0010302F02CFC0346002BCA
S32D000123D84AD1BB6A93F833324FEA03239AB2BB6A93F8323213439BB21AB24AF65523CFF6FF739A4238D1BB6A7F
S32D0001240093F837304FEA0362BB6A93F836304FEA03431A43BB6A93F835304FEA03231A43BB6A93F834301A43E9
S32D0001242845F25223C4F261139A421DD1BB6A93F81B324FEA0362BB6A93F81A324FEA03431A43BB6A93F8193277
S32D000124504FEA03231A43BB6A93F818321A4347F27223C6F241139A4202D14FF0010301E04FF00003002B2DD033
S32D00012478BB6A93F823324FEA0362BB6A93F822324FEA03431A43BB6A93F821324FEA03231A43BB6A93F82032F1
S32D000124A01A43BB6ADA60BB6A93F81F324FEA0362BB6A93F81E324FEA03431A43BB6A93F81D324FEA03231A431B
S32D000124C8BB6A93F81C321A43BB6A1A61BB6A97F847201A7041F29C13C1F6FF731B8803F101039AB241F29C1371
S32D000124F0C1F6FF731A8041F29C13C1F6FF731A88BB6ADA80BB6A4FF000021A63BB6A4FF000021A71BB6A4FF096
S32D0001251800029A614FF00003184607F14807BD4680BD00BF80B582B000AF78600B467B807B68002B08D07B68AE
S32D000125401B78002B04D07B68DB887A889A4202D04FF009030FE07B685B78184602F0EEFD034603F00103DBB2EC
S32D00012568002B02D04FF0030301E04FF00003184607F10807BD4680BD80B485B000AF03463960FB71FB79002B35
S32D0001259002D04FF00B031FE0FA7941F29813C1F6FF7353F82230FB60FB68002B03D0FB684FF000021A703B685A
S32D000125B8002B03D03B684FF000021A70FA7941F29813C1F6FF73396843F822104FF00003184607F11407BD464A
S32D000125E080BC704780B592B000AFF860B9601346FB71FB684FF000021A60FB7903F01F03FB71FB7923F00103DF
S32D00012608DBB207F1080107F11C02084611461A46FFF78CFC034687F8473007F110037B6397F84730002B09D149
S32D00012630BB6807F11C0210461946FFF75BFB034687F847303B6B3B6497F84730002B06D13B6C002B03D14FF0D0
S32D00012658060387F84730FB7903F01C03002B00F0D48097F84730002B12D097F84730042B07D107F11C031846CA
S32D00012680FFF7AAF9034687F84730FB7943F00803FB713B6B3B6415E03B6C03F10B031B7803F01103002B04D0B9
S32D000126A84FF0070387F8473008E0FB7903F00403002B03D04FF0080387F8473097F84730002B40F0C580FB7916
S32D000126D003F00803002B00F0BF804FF00003FB633B6C03F10E03FA6BD2B21A703B6C03F10F03FA6B92B24FEA35
S32D000126F82222D2B21A703B6C03F11003FA6B4FEA1242D2B21A703B6C03F11103FA6B4FEA1262D2B21A703B6C3D
S32D0001272003F10B034FF000021A703B6C03F11C034FF000021A703B6C03F11D034FF000021A703B6C03F11E03F6
S32D000127484FF000021A703B6C03F11F034FF000021A703B6C03F115031B784FEA03239AB23B6C03F114031B78D9
S32D0001277013439BB29BB24FEA03423B6C03F11B031B784FEA032399B23B6C03F11A031B780B439BB29BB213434D
S32D00012798BB633B6C03F11A034FF000021A703B6C03F11B034FF000021A703B6C03F114034FF000021A703B6CC9
S32D000127C003F115034FF000021A70FB694FF001021A71BB6B002B3FD0FB691B6BFB63FB691846B96BFEF7DCFD86
S32D000127E8034687F8473097F84730002B30D1FB69BA6B02F1FF32DA60FB691846F96BFEF74FFA034687F84730C7
S32D0001281022E097F84730002B1ED13B6C03F10B031B7803F01003002B04D04FF0040387F8473011E0FB7903F0A2
S32D000128380203002B0CD03B6C03F10B031B7803F00103DBB2002B03D04FF0070387F8473097F84730002B0FD157
S32D00012860FB7903F00803002B03D0FB7943F02003FB71FB691A6BFB68DA61FB683A6C1A6297F84730002B51D144
S32D00012888FB68FA799A713B6C03F115031B784FEA03239AB23B6C03F114031B7813439BB29BB24FEA03423B6CF5
S32D000128B003F11B031B784FEA032399B23B6C03F11A031B780B439BB29BB21A43FB681A613B6C03F11F031B78EC
S32D000128D84FEA03623B6C03F11E031B784FEA03431A433B6C03F11D031B784FEA03231A433B6C03F11C031B78B1
S32D000129001A43FB68DA60FB684FF000029A60FB684FF000029A61FB684FF000025A62FA69FB681A60FB69DA880B
S32D00012928FB689A8097F84730184607F14807BD4680BD00BF80B58AB000AFF860B9607A603B60BB68BB613B6873
S32D000129504FF000021A60FB681A68FB689B8810461946FFF7E3FD0346FB75FB7D002B01D0FB7DACE1FB689B79FE
S32D00012978DBB25BB2002B02DA4FF00203A3E1FB689B7903F00203002B02D14FF007039AE1FB68DA687B68D21824
S32D000129A0FB68DB689A4280F074814FF000037B606FE1FB689B684FEAC3534FEAD353002B40F02E81FB689B6830
S32D000129C84FEA5323DAB2FB681B689B7803F1FF33DBB21340BB75BB7D002B4FD1FB689B68002B12D1FB681B6998
S32D000129F07B627B6A002B23D1FB681B6818464FF00001FEF72BFD03467B62FB687A6A1A6116E0FB685B6A002B05
S32D00012A1808D0FB689B68F8681946FEF7B3FD03467B6209E0FB681A68FB685B6910461946FEF710FD03467B62F5
S32D00012A407B6A002B00F02F817B6A012B09D1FB689B7963F07F03DAB2FB689A714FF0020335E17B6AB3F1FF3F65
S32D00012A6809D1FB689B7963F07F03DAB2FB689A714FF0010327E1FB687A6A5A61FB689B7903F04003002B27D003
S32D00012A90FB681B685978FB6803F12802FB689B69084611461A464FF0010302F0CDF90346002B0CBF00230123F2
S32D00012AB8DBB2002B09D0FB689B7963F07F03DAB2FB689A714FF00103FDE0FB689B7923F04003DAB2FB689A7131
S32D00012AE0FB681A68FB685B6910461946FEF718FA03463B613B69002B09D1FB689B7963F07F03DAB2FB689A712B
S32D00012B084FF00203DFE0BB7D3A69D3183B617B684FEA5323FB61FB69002B4ED0BA7DFB69D218FB681B689B7820
