S02200002E2E2F41637475616C41637475616C526F626F7450726F6A6563742E733139B6
S32D0000C0000000002035F4000091F7000091F7000091F7000091F7000091F7000000000000000000000000000021
S32D0000C0280000000091F7000091F700000000000091F7000091F7000091F7000091F7000091F7000091F70000AA
S32D0000C05091F7000091F7000091F7000091F7000091F7000091F7000091F7000091F7000091F7000091F7000072
S32D0000C07891F7000091F7000091F7000091F7000091F7000091F7000091F7000091F7000091F7000091F700004A
S32D0000C0A091F7000091F7000091F7000091F7000091F7000091F7000091F7000091F7000091F7000091F7000022
S32D0000C0C891F7000091F7000091F7000091F7000091F7000091F7000091F7000091F7000091F7000091F70000FA
S32D0000C0F091F70000DD8A010091F7000091F7000091F7000091F7000091F7000091F7000091F7000091F70000F2
S32D0000C11891F7000091F7000091F7000091F7000091F7000091F7000091F7000091F7000091F7000091F70000A9
S32D0000C14091F7000091F7000091F7000091F700000555010091F7000091F7000091F7000091F7000091F70000AE
S32D0000C16891F7000091F7000091F7000091F7000091F7000091F7000091F7000091F7000091F7000091F7000059
S32D0000C19091F7000091F7000091F70000B94F01000D4E0100E14E0100E1F700009150010091F7000091F700008A
S32D0000C1B891F7000091F7000091F7000091F7000091F7000091F7000091F7000091F7000091F7000091F7000009
S32D0000C41081F0004102E000BF83F0004330B54FEA41044FEA430594EA050F08BF90EA020F1FBF54EA000C55EAC6
S32D0000C438020C7FEA645C7FEA655C00F0E2804FEA5454D4EB5555B8BF6D420CDD2C4480EA020281EA030382EA0F
S32D0000C460000083EA010180EA020281EA0303362D88BF30BD11F0004F4FEA01314FF4801C4CEA113102D0404263
S32D0000C48861EB410113F0004F4FEA03334CEA133302D0524263EB430394EA050F00F0A780A4F10104D5F1200E8A
S32D0000C4B00DDB02FA0EFC22FA05F2801841F1000103FA0EF2801843FA05F359410EE0A5F120050EF1200E012A2D
S32D0000C4D803FA0EFC28BF4CF0020C43FA05F3C01851EBE37101F0004507D54FF0000EDCF1000C7EEB00006EEB67
S32D0000C5000101B1F5801F1BD3B1F5001F0CD349085FEA30004FEA3C0C04F101044FEA445212F5800F80F09A8000
S32D0000C528BCF1004F08BF5FEA500C50F1000041EB045141EA050130BD5FEA4C0C404141EB010111F4801FA4F114
S32D0000C5500104E9D191F0000F04BF01460020B1FA81F308BF2033A3F10B03B3F120020CDA0C3208DD02F1140C87
S32D0000C578C2F10C0201FA0CF021FA02F10CE002F11402D8BFC2F1200C01FA02F120FA0CFCDCBF41EA0C019040B1
S32D0000C5A0E41AA2BF01EB0451294330BD6FEA04041F3C1CDA0C340EDC04F11404C4F1200220FA04F001FA02F3B6
S32D0000C5C840EA030021FA04F345EA030130BDC4F10C04C4F1200220FA02F001FA04F340EA0300294630BD21FAA8
S32D0000C5F004F0294630BD94F0000F83F4801306BF81F480110134013D4EE77FEA645C18BF7FEA655C29D094EA1C
S32D0000C618050F08BF90EA020F05D054EA000C04BF1946104630BD91EA030F1EBF0021002030BD5FEA545C05D1A3
S32D0000C6404000494128BF41F0004130BD14F580043CBF01F5801130BD01F0004545F0FE4141F470014FF0000031
S32D0000C66830BD7FEA645C1ABF194610467FEA655C1CBF0B46024650EA013406BF52EA033591EA030F41F40021D7
S32D0000C69030BD00BF90F0000F04BF0021704730B54FF4806404F132044FF000054FF0000150E700BF90F0000F66
S32D0000C6B804BF0021704730B54FF4806404F1320410F0004548BF40424FF000013EE700BF42004FEAE2014FEAF9
S32D0000C6E031014FEA02701FBF12F07F4393F07F4F81F06051704792F0000F14BF93F07F4F704730B54FF460741B
S32D0000C70801F0004521F0004120E700BF50EA010208BF704730B54FF000050AE050EA010208BF704730B511F046
S32D0000C730004502D5404261EB41014FF4806404F132045FEA915C3FF4DCAE4FF003025FEADC0C18BF03325FEAA0
S32D0000C758DC0C18BF033202EBDC02C2F1200300FA03FC20FA02F001FA03FE40EA0E0021FA02F11444C1E600BF19
S32D0000C78070B54FF0FF0C4CF4E06C1CEA11541DBF1CEA135594EA0C0F95EA0C0F00F0DEF82C4481EA030621EAF3
S32D0000C7A84C5123EA4C5350EA013518BF52EA033541F4801143F4801338D0A0FB02CE4FF00005E1FB02E506F05F
S32D0000C7D00042E0FB03E54FF00006E1FB03569CF0000F18BF4EF0010EA4F1FF04B6F5007F64F5407404D25FEA0F
S32D0000C7F84E0E6D4146EB060642EAC62141EA55514FEAC52040EA5E504FEACE2EB4F1FD0C88BFBCF5E06F1ED8D2
S32D0000C820BEF1004F08BF5FEA500E50F1000041EB045170BD06F0004646EA010140EA020081EA0301B4EB5C0487
S32D0000C848C2BFD4EB0C0541EA045170BD41F480114FF0000E013C00F3AB8014F1360FDEBF002001F0004170BDF0
S32D0000C870C4F10004203C35DA0C341BDC04F11404C4F1200500FA05F320FA04F001FA05F240EA020001F0004207
S32D0000C89821F0004110EBD37021FA04F642EB06015EEA430E08BF20EAD37070BDC4F10C04C4F1200500FA04F32F
S32D0000C8C020FA05F001FA04F240EA020001F0004110EBD37041F100015EEA430E08BF20EAD37070BDC4F12005C7
S32D0000C8E800FA05F24EEA020E20FA04F301FA05F243EA020321FA04F001F0004121FA04F220EA020000EBD37028
S32D0000C9105EEA430E08BF20EAD37070BD94F0000F0FD101F00046400041EB010111F4801F08BF013CF7D041EA6D
S32D0000C938060195F0000F18BF704703F00046520043EB030313F4801F08BF013DF7D043EA0603704794EA0C0FF1
S32D0000C9600CEA135518BF95EA0C0F0CD050EA410618BF52EA4306D1D181EA030101F000414FF0000070BD50EA38
S32D0000C988410606BF1046194652EA430619D094EA0C0F02D150EA013613D195EA0C0F05D152EA03361CBF10467B
S32D0000C9B019460AD181EA030101F0004141F0FE4141F470014FF0000070BD41F0FE4141F4780170BD70B54FF04D
S32D0000C9D8FF0C4CF4E06C1CEA11541DBF1CEA135594EA0C0F95EA0C0F00F0A7F8A4EB050481EA030E52EA03359B
S32D0000CA004FEA013100F088804FEA03334FF0805545EA131343EA12634FEA022245EA111545EA10654FEA002676
S32D0000CA280EF000419D4208BF964244F1FD0404F5407402D25B084FEA3202B61A65EB03055B084FEA32024FF461
S32D0000CA5080104FF4002CB6EB020E75EB030E22BFB61A754640EA0C005B084FEA3202B6EB020E75EB030E22BF22
S32D0000CA78B61A754640EA5C005B084FEA3202B6EB020E75EB030E22BFB61A754640EA9C005B084FEA3202B6EBEA
S32D0000CAA0020E75EB030E22BFB61A754640EADC0055EA060E18D04FEA051545EA16754FEA06164FEAC30343EAAC
S32D0000CAC852734FEAC2025FEA1C1CC0D111F4801F0BD141EA00014FF000004FF0004CB6E711F4801F04BF0143AE
S32D0000CAF00020B4F1FD0C88BFBCF5E06F3FF6AFAEB5EB030C04BFB6EB020C5FEA500C50F1000041EB045170BDBC
S32D0000CB180EF0004E4EEA113114EB5C04C2BFD4EB0C0541EA045170BD41F480114FF0000E013C90E645EA060EC3
S32D0000CB408DE60CEA135594EA0C0F08BF95EA0C0F3FF43BAF94EA0C0F0AD150EA01347FF434AF95EA0C0F7FF499
S32D0000CB6825AF104619462CE795EA0C0F06D152EA03353FF4FDAE1046194622E750EA410618BF52EA43067FF432
S32D0000CB90C5AE50EA41047FF40DAF52EA43057FF4EBAE12E74FF0FF3C06E000BF4FF0010C02E000BF4FF0010C75
S32D0000CBB84DF804CD4FEA410C7FEA6C5C4FEA430C18BF7FEA6C5C1BD001B050EA410C0CBF52EA430C91EA030FEC
S32D0000CBE002BF90EA020F0020704710F1000F91EA030F58BF994208BF90422CBFD8176FEAE37040F0010070476E
S32D0000CC084FEA410C7FEA6C5C02D150EA013C07D14FEA430C7FEA6C5CD6D152EA033CD3D05DF8040B704700BFCD
S32D0000CC308446104662468C461946634600E000BF01B5FFF7B7FF002848BF10F1000F01BD4DF808EDFFF7F4FF13
S32D0000CC580CBF012000205DF808FB00BF4DF808EDFFF7EAFF34BF012000205DF808FB00BF4DF808EDFFF7E0FF18
S32D0000CC8094BF012000205DF808FB00BF4DF808EDFFF7CEFF94BF012000205DF808FB00BF4DF808EDFFF7C4FF40
S32D0000CCA834BF012000205DF808FB00BF4FEA410212F5001215D211D56FF47873B3EB625212D94FEAC12343F0D6
S32D0000CCD0004343EA505311F0004F23FA02F018BF404270474FF00000704750EA013005D111F0004008BF6FF016
S32D0000CCF8004070474FF00000704700BF4A0011D212F5001211D20DD56FF47873B3EB62520ED44FEAC12343F085
S32D0000CD20004343EA505323FA02F070474FF00000704750EA013002D14FF0FF3070474FF0000070474FEA410241
S32D0000CD48B2F1E04324BFB3F5001CDCF1FE5C0DD901F0004C4FEAC0024CEA5070B2F1004F40EB830008BF20F09E
S32D0000CD700100704711F0804F21D113F13872BCBF01F00040704741F480114FEA5252C2F11802C2F1200C10FAB1
S32D0000CD980CF320FA02F018BF40F001004FEAC1234FEAD32303FA0CFC40EA0C0023FA02F34FEA4303CCE77FEA26
S32D0000CDC0625307D150EA01331EBF4FF0FE4040F44000704701F0004040F0FE4040F40000704700BF80F00040CC
S32D0000CDE802E000BF81F0004142001FBF5FEA410392EA030F7FEA226C7FEA236C6AD04FEA1262D2EB1363C1BF06
S32D0000CE10D218414048404140B8BF5B42192B88BF704710F0004F40F4000020F07F4018BF404211F0004F41F4FA
S32D0000CE38000121F07F4118BF494292EA030F3FD0A2F1010241FA03FC10EB0C00C3F1200301FA03F100F000432B
S32D0000CE6002D5494260EB4000B0F5000F13D3B0F1807F06D340084FEA310102F10102FE2A51D2B1F1004F40EB94
S32D0000CE88C25008BF20F0010040EA03007047490040EB000010F4000FA2F10102EDD1B0FA80FCACF1080CB2EB5F
S32D0000CEB00C0200FA0CF0AABF00EBC25052421843BCBFD0401843704792F0000F81F4000106BF80F400000132EB
S32D0000CED8013BB5E74FEA41037FEA226C18BF7FEA236C21D092EA030F04D092F0000F08BF0846704790EA010FD7
S32D0000CF001CBF0020704712F07F4F04D1400028BF40F00040704712F100723CBF00F50000704700F0004343F0DC
S32D0000CF28FE4040F4000070477FEA226216BF08467FEA23630146420206BF5FEA412390EA010F40F480007047C1
S32D0000CF504FF0000304E000BF10F0004348BF40425FEA000C08BF704743F0964301464FF000001CE050EA010264
S32D0000CF7808BF70474FF000030AE000BF50EA010208BF704711F0004302D5404261EB41015FEA010C02BF84465B
S32D0000CFA00146002043F0B64308BFA3F18053A3F50003BCFA8CF2083AA3EBC25310DB01FA02FC634400FA02FC6B
S32D0000CFC8C2F12002BCF1004F20FA02F243EB020008BF20F00100704702F1200201FA02FCC2F1200250EA4C0034
S32D0000CFF021FA02F243EB020008BF20EADC7070474FF0FF0C1CEAD0521EBF1CEAD15392EA0C0F93EA0C0F6FD019
S32D0000D0181A4480EA010C400218BF5FEA41211ED04FF0006343EA501043EA5111A0FB01310CF00040B1F5000FE7
S32D0000D0403EBF490041EAD3715B0040EA010062F17F02FD2A1DD8B3F1004F40EBC25008BF20F00100704790F058
S32D0000D068000F0CF0004C08BF49024CEA502040EA51207F3AC2BFD2F1FF0340EAC250704740F400004FF0000388
S32D0000D090013A5DDC12F1190FDCBF00F000407047C2F10002410021FA02F1C2F1200200FA02FC5FEA310040F1D5
S32D0000D0B8000053EA4C0308BF20EADC70704792F0000F00F0004C02BF400010F4000F013AF9D040EA0C0093F04C
S32D0000D0E0000F01F0004C02BF490011F4000F013BF9D041EA0C018FE70CEAD15392EA0C0F18BF93EA0C0F0AD00B
S32D0000D10830F0004C18BF31F0004CD8D180EA010000F00040704790F0000F17BF90F0004F084691F0000F91F0BB
S32D0000D130004F14D092EA0C0F01D142020FD193EA0C0F03D14B0218BF084608D180EA010000F0004040F0FE4051
S32D0000D15840F40000704740F0FE4040F4400070474FF0FF0C1CEAD0521EBF1CEAD15392EA0C0F93EA0C0F69D044
S32D0000D180A2EB030280EA010C49024FEA402037D04FF0805343EA111143EA10130CF000408B4238BF5B0042F14E
S32D0000D1A87D024FF4000C8B4224BF5B1A40EA0C00B3EB510F24BFA3EB510340EA5C00B3EB910F24BFA3EB9103A4
S32D0000D1D040EA9C00B3EBD10F24BFA3EBD10340EADC001B0118BF5FEA1C1CE0D1FD2A3FF650AF8B4240EBC25018
S32D0000D1F808BF20F0010070470CF0004C4CEA50207F32C2BFD2F1FF0340EAC250704740F400004FF00003013AF1
S32D0000D22037E792F0000F00F0004C02BF400010F4000F013AF9D040EA0C0093F0000F01F0004C02BF490011F4C9
S32D0000D248000F013BF9D041EA0C0195E70CEAD15392EA0C0F08D142027FF47DAF93EA0C0F7FF470AF084676E7AE
S32D0000D27093EA0C0F04D14B023FF44CAF08466EE730F0004C18BF31F0004CCAD130F000427FF45CAF31F0004376
S32D0000D2987FF43CAF5FE700BF4FF0FF3C06E000BF4FF0010C02E000BF4FF0010C4DF804CD4FEA40024FEA41039F
S32D0000D2C07FEA226C18BF7FEA236C11D001B052EA530C18BF90EA010F58BFB2EB030088BFC81738BF6FEAE1706E
S32D0000D2E818BF40F0010070477FEA226C02D15FEA402C05D17FEA236CE4D15FEA412CE1D05DF8040B704700BF16
S32D0000D310844608466146FFE70FB5FFF7C9FF002848BF10F1000F0FBD4DF808EDFFF7F4FF0CBF012000205DF839
S32D0000D33808FB00BF4DF808EDFFF7EAFF34BF012000205DF808FB00BF4DF808EDFFF7E0FF94BF012000205DF8A9
S32D0000D36008FB00BF4DF808EDFFF7D2FF94BF012000205DF808FB00BF4DF808EDFFF7C8FF34BF012000205DF8B1
S32D0000D38808FB00BF4FEA4002B2F1FE4F0FD34FF09E03B3EB12620DD94FEA002343F0004310F0004F23FA02F060
S32D0000D3B018BF404270474FF00000704712F1610F01D1420205D110F0004008BF6FF0004070474FF00000704797
S32D0000D3D842000ED2B2F1FE4F0BD34FF09E03B3EB126209D44FEA002343F0004323FA02F070474FF000007047DA
S32D0000D40012F1610F01D1420202D14FF0FF3070474FF00000704700BF80B582B000AF786078680DF0E3F80346D9
S32D0000D428184607F10807BD4680BD00BF80B582B000AF786078680DF0F5F90346184607F10807BD4680BD00BF0C
S32D0000D45080B582B000AF786078680DF079FA0346184607F10807BD4680BD00BF80B582B000AF786078680DF0F8
S32D0000D47825FA0346184607F10807BD4680BD00BF80B582B000AF786039603868FFF760FD0346786819460DF0BB
S32D0000D4A055FA0346184607F10807BD4680BD00BF80B483B000AF78607B6823F00043184607F10C07BD4680BC93
S32D0000D4C8704700BF0000000080B582B000AF78607868FFF7FDF802460B461046194608A3D3E90023FFF748F9F8
S32D0000D4F002460B4610461946FFF724FC0346184607F10807BD4680BDF8C1631ADCA54C4080B582B000AF78608B
S32D0000D5187868FFF7DDF802460B461046194608A3D3E90023FFF728F902460B4610461946FFF704FC0346184660
S32D0000D54007F10807BD4680BD399D52A246DF913F90B585B000AFF860B9607A603B607868F968FFF743FC0346E9
S32D0000D56818464FF00201FFF78BFF04463868B968FFF738FC034618464FF00201FFF780FF034620461946FFF7DE
S32D0000D5902FFC03461846FFF75BFF0346184607F11407BD4690BD00BF80B500AF41F25840C1F6FF704FF000016D
S32D0000D5B808F00CFF41F25840C1F6FF704FF0010108F062FF80BD00BF80B500AF41F2C040C1F6FF700CF03CFD49
S32D0000D5E0034618462949FFF79FFE0346002B45D141F2C040C1F6FF700CF03EFD034618462249FFF791FE034677
S32D0000D608002B37D141F2C040C1F6FF700CF040FD034618461B49FFF783FE0346002B29D141F2C040C1F6FF70E6
S32D0000D6300CF012FD034618461549FFF775FE0346002B1BD141F2C040C1F6FF700CF014FD034618460E49FFF799
S32D0000D65867FE0346002B0DD141F2C040C1F6FF700CF016FD034618460749FFF759FE0346002B02D04FF00103B8
S32D0000D68001E04FF00003184680BD00BF000080BF000000C00000000080B500AF04E006A1D1E9000107F040FAA5
S32D0000D6A8FFF792FF0346002BF5D180BDAFF300807B14AE47E17A843F80B500AF41F2C040C1F6FF700CF0C4FC99
S32D0000D6D0034618464249FFF727FE0346002B10D141F2C040C1F6FF700CF0B6FC034618463C49FFF719FE034601
S32D0000D6F8002B02D14FF0010301E04FF00003002B0BD041F2C040C1F6FF700CF0A1FC024641F24813C1F6FF73A9
S32D0000D7201A6041F2C040C1F6FF700CF0A5FC034618462B49FFF7F8FD0346002B10D141F2C040C1F6FF700CF0BB
S32D0000D74897FC034618462549FFF7EAFD0346002B02D14FF0010301E04FF00003002B0BD041F2C040C1F6FF7022
S32D0000D7700CF082FC024641F24C13C1F6FF731A6041F2C040C1F6FF700CF086FC034618461349FFF7C9FD0346B5
S32D0000D798002B10D141F2C040C1F6FF700CF078FC034618460D49FFF7BBFD0346002B02D14FF0010301E04FF039
S32D0000D7C00003002B0BD041F2C040C1F6FF700CF063FC024641F25013C1F6FF731A6080BD000080BF000000C0C1
S32D0000D7E890B585B000AF786039604FF001031C4678683968FFF7BCFD0346002B02D14FF000031C46E3B2002BF9
S32D0000D81006D078683968FFF7E9FA0346FB6010E078682849FFF7E4FA03461C4626483968FFF7DCFA03462046CC
S32D0000D8381946FFF7D9FA0346FB604FF001031C4678683968FFF794FD0346002B02D14FF000031C46E3B2002B9E
S32D0000D86011D038681749FFF7C3FA03461C4616487968FFF7BBFA034620461946FFF7B8FA0346BB6005E03868D2
S32D0000D8887968FFF7AFFA0346BB604FF001031C46F868B968FFF758FD0346002B02D14FF000031C46E3B2002B72
S32D0000D8B001D0FB6800E0BB68184607F11407BD4690BD00BF000000000000B44390B587B000AFF860B9607A6026
S32D0000D8D83B607868F968FFF785FA03467B613868B968FFF77FFA03463B614FF001031C4678696649FFF73CFD33
S32D0000D9000346002B02D14FF000031C46E3B2002B2AD04FF001031C4638695E49FFF72CFD0346002B02D14FF0C2
S32D0000D92800031C46E3B2002B1AD03869FFF7BCFD04467869FFF7B8FD034620461946FFF70FFC03461846FFF7F0
S32D0000D95063FD03461846FFF7BBFD034618464D49FFF746FA03468FE04FF001031C4678694849FFF7EDFC03468A
S32D0000D978002B02D14FF000031C46E3B2002B2AD04FF001031C4638694049FFF7F1FC0346002B02D14FF00003EA
S32D0000D9A01C46E3B2002B1AD07869FFF781FD04463869FFF77DFD034620461946FFF7D4FB03461846FFF728FD08
S32D0000D9C803461846FFF780FD034618463049FFF70BFA034654E04FF001031C4678692B49FFF7B2FC0346002B6D
S32D0000D9F002D14FF000031C46E3B2002B2AD04FF001031C4638692349FFF7A2FC0346002B02D14FF000031C46A7
S32D0000DA18E3B2002B1AD03869FFF746FD04467869FFF742FD034620461946FFF799FB03461846FFF7EDFC034695
S32D0000DA401846FFF745FD034618461449FFF7D0F9034619E07869FFF72BFD04463869FFF727FD0346204619460B
S32D0000DA68FFF77EFB03461846FFF7D2FC03461846FFF72AFD034618460749FFF7B5F90346184607F11C07BD4692
S32D0000DA9090BD00BF000000000000B4420000344300008743000000002DE9B0438AB004AFF860B9607A603B6049
S32D0000DAB8F868FEF70DFE04460D46B868FEF708FE80468946786BFEF703FE02460B46CDE90089CDE9022341F2D4
S32D0000DAE0E040C1F6FF704CF66C71C0F2010122462B460CF0B5FCFFF7CFFDF868B96800F0DBFC41F2E040C1F665
S32D0000DB08FF704CF6A871C0F201010CF0A5FC4FF000037B61DCE2FFF757FD0346002B6DD041F2E040C1F6FF7084
S32D0000DB304CF6D871C0F201010CF092FC41F2C040C1F6FF700CF088FA034618462C49FFF7EBFB0346002B1BD1CF
S32D0000DB5841F2C040C1F6FF700CF08AFA034618462549FFF7DDFB0346002B0DD141F2C040C1F6FF700CF08CFAB6
S32D0000DB80034618461E49FFF7CFFB0346002B02D04FF0010301E04FF00003002B23D041F2E040C1F6FF704DF227
S32D0000DBA80C01C0F201010CF057FC41F24413C1F6FF734FF001021A7041F2E040C1F6FF704DF23401C0F201011F
S32D0000DBD00CF046FC41F25013C1F6FF731B68184600F0EAFACCE204A1D1E9000106F09CFF72E200BFAFF30080A1
S32D0000DBF87B14AE47E17A843F000000C097F83830002B3ED041F2E040C1F6FF704DF26401C0F201017A690CF0BD
S32D0000DC201FFCF86BDFF87815FFF7EAF903461846FEF752FD02460B4641F2E040C1F6FF704DF28401C0F20101A6
S32D0000DC480CF00AFC7B6903F101037B617869FFF77FF90546F86BDFF84015FFF7CDF903464FF0010214462846BC
S32D0000DC701946FFF781FB0346002B02D14FF000031C46E3B2002B40F04682FFF719FD00F017FD044600F05AFE70
S32D0000DC98034620461946FA68BB68FFF713FE03463B61FFF77DFC41F25840C1F6FF704DF2A001C0F2010108F0F3
S32D0000DCC0C3FD41F2C040C1F6FF700CF0C5F9034641F25840C1F6FF70194608F0FDFD41F25840C1F6FF704DF2A8
S32D0000DCE8B401C0F2010108F0ABFD41F2C040C1F6FF700CF0BDF9034641F25840C1F6FF70194608F0E5FD41F254
S32D0000DD105840C1F6FF704DF2B801C0F2010108F061FE41F25840C1F6FF704DF2BC01C0F2010108F089FD41F2D2
S32D0000DD385840C1F6FF70F96808F0CAFD41F25840C1F6FF704DF2B401C0F2010108F078FD41F25840C1F6FF70E8
S32D0000DD60B96808F0B9FD41F25840C1F6FF704DF2B801C0F2010108F035FE41F25840C1F6FF704DF2D001C0F24B
S32D0000DD88010108F05DFD41F2C040C1F6FF700CF07FF9034641F25840C1F6FF70194608F031FE41F25840C1F60A
S32D0000DDB0FF704DF2E401C0F2010108F045FD41F25840C1F6FF70396908F020FE41F2C040C1F6FF700CF040F98D
S32D0000DDD803461846FEF77CFC04460D4641F2C040C1F6FF700CF044F903461846FEF770FC02460B46CDE9002360
S32D0000DE0041F2E040C1F6FF704DF2F801C0F2010122462B460CF024FBF868FEF75DFC04460D46B868FEF758FCE7
S32D0000DE2802460B46CDE9002341F2E040C1F6FF704DF22011C0F2010122462B460CF00CFB41F2C040C1F6FF7088
S32D0000DE500CF022F903461846FEF73EFC02460B4641F2E040C1F6FF704DF24811C0F201010CF0F6FA3869FEF7D7
S32D0000DE782FFC02460B4641F2E040C1F6FF704DF26C11C0F201010CF0E7FA41F2C040C1F6FF700CF0FDF803465F
S32D0000DEA018463969FFF7A0FC03464FF0010214461846BC49FFF760FA0346002B02D14FF000031C46E3B2002B7F
S32D0000DEC800F0DF8041F2E040C1F6FF704DF29011C0F201010CF0C0FA00F0EEFB044600F031FD034620461946CB
S32D0000DEF0FA68BB68FFF72CFB03464FF0010214461846A949FFF738FA0346002B02D14FF000031C46E3B2002B5A
S32D0000DF181ED041F2C040C1F6FF700CF0B9F8034618463969FFF75CFC03464FF00102144618469C49FFF71CFA1C
S32D0000DF400346002B02D14FF000031C46E3B2002B02D04FF0010301E04FF00003002B1AD041F2E040C1F6FF7042
S32D0000DF684DF2D411C0F201010CF076FA41F21C10C1F6FF7001F0BCFC41F22410C1F6FF7001F0B6FCF868B96868
S32D0000DF9000F092FA9BE041F2C040C1F6FF700CF07BF803461846396900F01AFA0346002B35D041F2E040C1F6D4
S32D0000DFB8FF704DF21021C0F201010CF04DFA38687949FFF719F803461846FEF781FB02460B46104619466CA387
S32D0000DFE0D3E90023FEF7CCFB02460B4610461946FEF7A8FE034641F21C10C1F6FF70194601F0CAFC38686A4958
S32D0000E008FEF7FAFF034641F22410C1F6FF70194601F0BEFC57E041F2E040C1F6FF704DF24421C0F201010CF018
S32D0000E03017FA38685E49FEF7E3FF034641F21C10C1F6FF70194601F0A7FC38685849FEF7D7FF03461846FEF72A
S32D0000E0583FFB02460B46104619464BA3D3E90023FEF78AFB02460B4610461946FEF766FE034641F22410C1F6BD
S32D0000E080FF70194601F088FC21E041F2E040C1F6FF704DF27821C0F201010CF0E1F938684349FEF7ADFF03463D
S32D0000E0A841F21C10C1F6FF70194601F071FC38683D49FEF7A1FF034641F22410C1F6FF70194601F065FC32A1F3
S32D0000E0D0D1E9000106F028FD00F0F2FA044600F035FC034620461946FA68BB68FFF730FA03464FF0010214466D
S32D0000E0F818467968FFF73CF90346002B02D14FF000031C46E3B2002B7FF405AD00E000BF41F2E040C1F6FF70A8
S32D0000E1204DF2C021C0F201010CF09AF941F21C10C1F6FF7001F0E0FB41F22410C1F6FF7001F0DAFB4FF000008B
S32D0000E1484FF07E5101F5C00106F0EAFC97F83030002B11D0786BFEF7BBFA02460B4641F2E040C1F6FF704DF22F
S32D0000E170E821C0F201010CF073F9786B00F0B8F907F11807BD46BDE8B08300BFAFF30080333333333333E33FB1
S32D0000E198FCA9F1D24D62503F000020410000A040000000400000A0410000C842AFF3008090B583B000AF786026
S32D0000E1C04FF001031C4678687B49FFF7CBF80346002B02D14FF000031C46E3B2002B32D04FF001031C467868FD
S32D0000E1E87449FFF7A7F80346002B02D14FF000031C46E3B2002B22D041F21C10C1F6FF706D4901F0C5FB4DF6EB
S32D0000E2104C33C0F201031B6883F0004341F22410C1F6FF70194601F0B7FB78686549FEF7DFFD03461846644930
S32D0000E238FEF7E2FE0346184606F04EFC64E04FF001031C4678685F49FFF788F80346002B02D14FF000031C462A
S32D0000E260E3B2002B32D04FF001031C4678685849FFF764F80346002B02D14FF000031C46E3B2002B22D04DF676
S32D0000E2884833C0F201031B6883F0004341F21C10C1F6FF70194601F07BFB41F22410C1F6FF70454901F074FB38
S32D0000E2B047487968FEF79AFD034618464249FEF79FFE0346184606F00BFC21E041F21C10C1F6FF703A4901F0E2
S32D0000E2D85FFB4DF64C33C0F201031B6883F0004341F22410C1F6FF70194601F051FB37487968FEF777FD0346D2
S32D0000E30018463149FEF77CFE0346184606F0E8FB41F21C10C1F6FF70294901F03DFB41F22410C1F6FF7026490C
S32D0000E32801F036FB04E020A1D1E9000106F0F8FB41F2C040C1F6FF700BF08AFE034618462349FEF7EDFF034643
S32D0000E350002B0DD141F2C040C1F6FF700BF07CFE034618461D49FEF7DFFF0346002B02D04FF0010301E04FF03F
S32D0000E3780003002BD7D14FF000004FF07E5101F5E00106F0CDFB41F21C10C1F6FF7001F0AFFA41F22410C1F682
S32D0000E3A0FF7001F0A9FA07F10C07BD4690BD00BF7B14AE47E17A843F00000000000020430000C84200008C4255
S32D0000E3C80473ED3B0000B442000091430000B443000080BF000000C090B585B000AF786039604FF001031C4689
S32D0000E3F078683968FEF7C0FF0346002B02D14FF000031C46E3B2002B06D078683968FEF7EDFC0346FB6010E056
S32D0000E41878682549FEF7E8FC03461C4623483968FEF7E0FC034620461946FEF7DDFC0346FB604FF001031C4602
S32D0000E44078683968FEF798FF0346002B02D14FF000031C46E3B2002B11D038681449FEF7C7FC03461C4613485A
S32D0000E4687968FEF7BFFC034620461946FEF7BCFC0346BB6005E038687968FEF7B3FC0346BB604FF001031C46C3
S32D0000E490B868F968FEF75CFF0346002B02D14FF000031C46E3B2184607F11407BD4690BD000000000000B44355
S32D0000E4B890B583B000AF7860396000F0FDF8044600F040FA0346204619467A683B68FFF7F9F90346184600F033
S32D0000E4E007F807F10C07BD4690BD00BF0000000090B583B000AF78607868FEF7EDF802460B4641F2E040C1F699
S32D0000E508FF704DF20441C0F201010BF0A5FF9AE0FFF7BEF8FFF744F841F25840C1F6FF704DF23041C0F20101F2
S32D0000E53008F058FA41F25840C1F6FF704DF2D001C0F2010108F080F941F2C040C1F6FF700BF0A2FD034641F2DE
S32D0000E5585840C1F6FF70194608F054FA41F25840C1F6FF704DF2E401C0F2010108F068F941F25840C1F6FF701F
S32D0000E580796808F043FA41F2C040C1F6FF700BF083FD034618467968FFF722FF0346002B28D04DF64833C0F208
S32D0000E5A801031B6883F000431846FEF791F802460B46104619463AA3D3E90023FEF7DCF802460B46104619460B
S32D0000E5D0FEF7B8FB034641F21C10C1F6FF70194601F0DAF941F22410C1F6FF70324901F0D3F927E041F21C1059
S32D0000E5F8C1F6FF702E4901F0CBF94DF64C33C0F201031B6883F000431846FEF761F802460B461046194622A333
S32D0000E620D3E90023FEF7ACF802460B4610461946FEF788FB034641F22410C1F6FF70194601F0AAF91AA1D1E950
S32D0000E648000106F06DFA41F2C040C1F6FF700BF01FFD034618467968FFF7C2F803464FF00102144618461349FF
S32D0000E670FEF782FE0346002B02D14FF000031C46E3B2002B7FF448AF41F21C10C1F6FF7001F032F941F22410EA
S32D0000E698C1F6FF7001F02CF907F10C07BD4690BD333333333333C33F7B14AE47E17A843F0000704100004040B6
S32D0000E6C090B583B000AF41F2C040C1F6FF700BF0E3FC03464FF00102144618469749FEF741FE0346002B02D134
S32D0000E6E84FF000031C46E3B2002B19D041F2C040C1F6FF700BF0CCFC03464FF00102144618468D49FEF716FE79
S32D0000E7100346002B02D14FF000031C46E3B2002B02D04FF0010301E04FF00003002B21D041F2C040C1F6FF7083
S32D0000E7380BF08EFC044641F2C040C1F6FF700BF0A7FC03461846FEF7DFFE03461846FEF76DFE03461846774906
S32D0000E760FEF74EFC034620461946FEF741FB03467B60DDE041F2C040C1F6FF700BF08CFC03464FF0010214466B
S32D0000E78818466D49FEF7EAFD0346002B02D14FF000031C46E3B2002B19D041F2C040C1F6FF700BF075FC0346D1
S32D0000E7B04FF00102144618466249FEF7BFFD0346002B02D14FF000031C46E3B2002B02D04FF0010301E04FF005
S32D0000E7D80003002B26D041F2C040C1F6FF700BF037FC044641F2C040C1F6FF700BF050FC034618465049FEF749
S32D0000E800F5FA03461846FEF783FE03461846FEF72DFE034618464949FEF7F2FB034620461946FEF7E3FA0346D3
S32D0000E8287B6081E041F2C040C1F6FF700BF030FC03464FF00102144618464049FEF78EFD0346002B02D14FF034
S32D0000E85000031C46E3B2002B19D041F2C040C1F6FF700BF019FC03464FF00102144618463549FEF763FD0346C4
S32D0000E878002B02D14FF000031C46E3B2002B02D04FF0010301E04FF00003002B26D041F2C040C1F6FF700BF063
S32D0000E8A0DBFB044641F2C040C1F6FF700BF0F4FB034618462349FEF799FA03461846FEF727FE03461846FEF7EF
S32D0000E8C8B5FD034618461B49FEF796FB034620461946FEF787FA03467B6025E041F2C040C1F6FF700BF0B4FB2F
S32D0000E8F0044641F2C040C1F6FF700BF0CDFB034618461149FEF772FA03461846FEF700FE03461846FEF7AAFD55
S32D0000E918034618460749FEF76FFB034620461946FEF762FA03467B607B68184607F10C07BD4690BD000000005C
S32D0000E9400000B442000034430000874390B583B000AF41F2C040C1F6FF700BF09DFB03464FF00102144618461C
S32D0000E9689749FEF7FBFC0346002B02D14FF000031C46E3B2002B19D041F2C040C1F6FF700BF086FB03464FF0C4
S32D0000E9900102144618468D49FEF7D0FC0346002B02D14FF000031C46E3B2002B02D04FF0010301E04FF0000324
S32D0000E9B8002B21D041F2C040C1F6FF700BF058FB044641F2C040C1F6FF700BF061FB03461846FEF799FD0346F9
S32D0000E9E01846FEF743FD034618467749FEF708FB034620461946FEF7FBF903467B60DDE041F2C040C1F6FF70E6
S32D0000EA080BF046FB03464FF00102144618466D49FEF7A4FC0346002B02D14FF000031C46E3B2002B19D041F24F
S32D0000EA30C040C1F6FF700BF02FFB03464FF00102144618466249FEF779FC0346002B02D14FF000031C46E3B295
S32D0000EA58002B02D04FF0010301E04FF00003002B26D041F2C040C1F6FF700BF001FB044641F2C040C1F6FF7019
S32D0000EA800BF00AFB034618465049FEF7AFF903461846FEF73DFD03461846FEF7CBFC034618464949FEF7ACFA7E
S32D0000EAA8034620461946FEF79FF903467B6081E041F2C040C1F6FF700BF0EAFA03464FF001021446184640491C
S32D0000EAD0FEF748FC0346002B02D14FF000031C46E3B2002B19D041F2C040C1F6FF700BF0D3FA03464FF001029F
S32D0000EAF8144618463549FEF71DFC0346002B02D14FF000031C46E3B2002B02D04FF0010301E04FF00003002B9E
S32D0000EB2026D041F2C040C1F6FF700BF0A5FA044641F2C040C1F6FF700BF0AEFA034618462349FEF753F90346FB
S32D0000EB481846FEF7E1FC03461846FEF78BFC034618461B49FEF750FA034620461946FEF741F903467B6025E09C
S32D0000EB7041F2C040C1F6FF700BF07EFA044641F2C040C1F6FF700BF087FA034618461149FEF72CF903461846CA
S32D0000EB98FEF7BAFC03461846FEF748FC034618460749FEF729FA034620461946FEF71AF903467B607B6818463A
S32D0000EBC007F10C07BD4690BD000000000000B442000034430000874390B583B000AF00F091FB00F099F841F23E
S32D0000EBE82C10C1F6FF70304906F08EFE4FF000037B6022E041F25840C1F6FF704DF29441C0F2010107F0EAFEEB
S32D0000EC1041F2E040C1F6FF704DF2B441C0F201010BF01EFC1EA1D1E9000105F07DFFFEF7BBFC7B6803F10103EE
S32D0000EC387B607B68B3F5C87F1FDC41F24010C1F6FF7006F099FA03461846FDF741FD02460B464FF001010C46CF
S32D0000EC601046194610A3D3E90023FEF719F80346002B02D14FF000031C46E3B2002BBDD100E000BF00F00EF96A
S32D0000EC8800F056FB4FF00003184607F10C07BD4690BD00BFAFF300809A9999999999B93FCDCCCCCCCCCCDC3FCE
S32D0000ECB00000F041AFF3008080B582B000AF10E0FEF772FC41F25840C1F6FF704DF2D441C0F2010107F086FE06
S32D0000ECD80DA1D1E9000105F023FF07F104023B4641F25840C1F6FF7011461A4607F074FC034683F00103DBB2B3
S32D0000ED00002BDDD107F10807BD4680BDAFF300809A9999999999B93F80B500AFFFF7CCFFFEF7BAFC41F2C04091
S32D0000ED28C1F6FF700BF094F9024641F25413C1F6FF731A6041F2C040C1F6FF700BF098F9024641F25813C1F608
S32D0000ED50FF731A6041F2C040C1F6FF700BF09CF9024641F25C13C1F6FF731A6041F25413C1F6FF731B6818468F
S32D0000ED78FDF7AEFC02460B4641F2E040C1F6FF704DF2F041C0F201010BF066FB41F25813C1F6FF731B68184695
S32D0000EDA0FDF79AFC02460B4641F2E040C1F6FF704DF20051C0F201010BF052FB41F25C13C1F6FF731B68184671
S32D0000EDC8FDF786FC02460B4641F2E040C1F6FF704DF21051C0F201010BF03EFB4FF000004FF07E5101F5E001E9
S32D0000EDF005F09AFEFFF760FFFEF74EFC41F2C040C1F6FF700BF028F9024641F26013C1F6FF731A6041F2C0409B
S32D0000EE18C1F6FF700BF02CF9024641F26413C1F6FF731A6041F26013C1F6FF731B681846FDF74EFC02460B466A
S32D0000EE4041F2E040C1F6FF704DF22451C0F201010BF006FB41F26413C1F6FF731B681846FDF73AFC02460B4650
S32D0000EE6841F2E040C1F6FF704DF23851C0F201010BF0F2FA4FF000004FF07E5101F5E00105F04EFE41F22C10CC
S32D0000EE90C1F6FF70024906F03BFDFEF785FB80BD0000F04190B585B004AF41F2E040C1F6FF704DF24451C0F2A6
S32D0000EEB801010BF0D1FA41F25413C1F6FF73196841F25813C1F6FF731A6841F25C13C1F6FF731B684FF0010049
S32D0000EEE0009001934FF000030293F34B039308461146F24AF24BFEF7D7FD41F2E040C1F6FF704DF25851C0F23B
S32D0000EF0801010BF0A9FA41F22C10C1F6FF70EB4906F0FAFC4FF000004FF07E5101F5E00105F0FEFD41F22C1003
S32D0000EF30C1F6FF70E44906F0EBFC41F2E040C1F6FF704DF26C51C0F201010BF089FA4FF000030093D84B019350
S32D0000EF584FF000030293D64B0393DA48DA49D54AD54BFEF79DFD41F2E040C1F6FF704DF29851C0F201010BF09A
S32D0000EF806FFA41F26013C1F6FF731B681846D149FDF72CFF03461A4641F26413C1F6FF731B684FF00001009141
S32D0000EFA8C34901914FF000010291C149039110461946C04AC04BFEF773FD41F21C10C1F6FF7000F095FC41F2C4
S32D0000EFD02410C1F6FF7000F08FFC4FF000004FF07E5101F5E00105F09FFD41F24010C1F6FF7006F0C5F80346E4
S32D0000EFF81846FDF76DFB02460B4641F2E040C1F6FF704DF2BC51C0F201010BF025FA41F24010C1F6FF7006F066
S32D0000F020AFF803464FF0010214461846AA49FEF7A3F90346002B02D14FF000031C46E3B2002B70D0FEF7B0FACA
S32D0000F04841F25840C1F6FF704DF2D851C0F2010107F0C4FC4FF000004FF07E5101F5E00105F05EFD41F2E0400F
S32D0000F070C1F6FF704DF2E051C0F201010BF0F0F941F2E040C1F6FF704DF20061C0F201010BF0E6F941F26013F7
S32D0000F098C1F6FF731C6841F26413C1F6FF731B6818468C49FDF7A0FE03464FF001020092894A01924FF00002BE
S32D0000F0C002927D4A039220461946864A7C4BFEF7EBFC41F2E040C1F6FF704DF22461C0F201010BF0BDF941F225
S32D0000F0E86013C1F6FF731C6841F26413C1F6FF731B6818467A49FDF775FE03464FF0000200926B4A01924FF059
S32D0000F11001020292754A039220461946714A744BFEF7C2FC7BE0FEF73FFA41F25840C1F6FF704DF24461C0F2E4
S32D0000F138010107F053FC4FF000004FF07E5101F5E00105F0EDFC41F2E040C1F6FF704DF24C61C0F201010BF04B
S32D0000F1607FF941F2E040C1F6FF704DF26C61C0F201010BF075F941F26013C1F6FF731B6818465449FDF732FEF6
S32D0000F18803461C4641F26413C1F6FF731B6818465049FDF729FE03464FF0010200924E4A01924FF00002029229
S32D0000F1B0414A0392204619464A4A414BFEF774FC41F2E040C1F6FF704DF29061C0F201010BF046F941F260138A
S32D0000F1D8C1F6FF731B6818463C49FDF703FE03461C4641F26413C1F6FF731B6818463C49FDF7F8FD03464FF030
S32D0000F200000200922C4A01924FF001020292374A039220461946334A354BFEF745FC41F2E040C1F6FF704DF2A7
S32D0000F228B061C0F201010BF017F941F26013C1F6FF731B6818462D49FDF7D4FD03461C4641F26413C1F6FF737F
S32D0000F2501B6818462449FDF7CBFD03464FF000020092154A01924FF000020292124A039220461946114A204B27
S32D0000F278FEF716FC41F2E040C1F6FF704DF2FC61C0F201010BF0E8F84FF000030093084B01934FF0000302932A
S32D0000F2A0054B03930D480D49144A154BFEF7FCFB07F10407BD4690BD000000000000803F0000803E0000F04203
S32D0000F2C80000F0410000804100007041000090400000003F0000A040000087430000403F00004040000000417C
S32D0000F2F03333B33E000000409A99993E0000C03FCDCCCC3E80B500AF41F2E040C1F6FF704DF22C71C0F20101C0
S32D0000F3180BF0A2F841F2C040C1F6FF700AF0C8F941F2E040C1F6FF700AF0A8FF80BD00BF80B500AF41F2E040D1
S32D0000F340C1F6FF704DF25071C0F201010BF088F841F2E040C1F6FF700BF066F880BD00BF80B582B000AF78608E
S32D0000F36839607B68012B36D13A684FF6FF739A4231D141F21C10C1F6FF704FF00001184A00F05EFA41F22410BB
S32D0000F390C1F6FF704FF00101134A00F055FA41F22C10C1F6FF704FF0000106F091FA41F23810C1F6FF704FF016
S32D0000F3B8030105F003FC41F23C10C1F6FF704FF0030105F0FBFB41F24010C1F6FF704FF0000105F0C1FE07F1C7
S32D0000F3E00807BD4680BD00BF0000104180B500AF4FF001004FF6FF71FFF7B2FF80BD00BF80B500AF41F6601297
S32D0000F408C1F6FF7241F21C13C1F6FF73D31A194641F21C13C1F6FF731A460B4610464FF000011A460CF013FD99
S32D0000F43080BD00BF0DF088FD00F0B0F9FFF7E0FF0DF05AFD0DF0F6FC0DF08EFD00F00CF84FF0000041F2681118
S32D0000F458C1F6FF71FFF7BCFB034618460CF0D2FC80B500AF4FF4E043C4F204034FF4E042C4F2040202F5805250
S32D0000F48002F13802126842F4785203F5805303F138031A6000F02EF900F094F841F2A433C1F6FF734FF05802E4
S32D0000F4A81A6041F2A433C1F6FF731B684FF47A7202FB03F241F2A033C1F6FF731A6041F2A033C1F6FF731B688A
S32D0000F4D01A464FF4E043C4F2040303F5825303F104031B6803F070634FEA136303F10103B2FBF3F31A4641F2AD
S32D0000F4F8A833C1F6FF731A604FF4E043C4F204034FF4E042C4F2040202F5805202F13C02126842F0225203F512
S32D0000F520805303F13C031A604FF4E043C4F204034FF4E042C4F2040202F5805202F13002126842F0006203F505
S32D0000F548805303F130031A604FF45043C4F203034FF480721A614FF0640005F037F94FF45043C4F203034FF442
S32D0000F5705042C4F20302526922F010025A614FF45043C4F203034FF000021A604FF45043C4F203034FF0100256
S32D0000F5985A6105F023FF05F0CBFF41F29C30C1F6FF7005F097F941F25840C1F6FF7006F06FFD41F2883005F0D7
S32D0000F5C075FA80BD80B400AF4FF48043C4F206034FF000025A704FF48043C4F206034FF098021A704FF4804390
S32D0000F5E8C4F206039B79DBB203F01003002B0CBF00230123DBB2002BF0D14FF48043C4F206039B79DBB203F080
S32D0000F6100C034FEA9303022B0CBF00230123DBB2002BEED14FF48043C4F206034FF018021A714FF48043C4F2D3
S32D0000F63806034FF000025A714FF4E043C4F2040303F5825303F104034FF00002C0F213121A604FF48043C4F256
S32D0000F66006034FF054025A7100BF4FF48043C4F206039B79DBB203F02003002B14BF00230123DBB2002BF0D11A
S32D0000F68800BF4FF48043C4F206039B79DBB203F04003002B14BF00230123DBB2002BF0D14FF48043C4F2060376
S32D0000F6B04FF48042C4F206021278D2B202F03F02D2B21A704FF48043C4F206039B79DBB203F00C034FEA9303E3
S32D0000F6D8032B0CBF00230123DBB2002BEED14FF000031846BD4680BC704700BF80B400AF4FF44043C4F2040392
S32D0000F7004FF480725A634FF2C003C4F20F034FF2C002C4F20F02526942F400525A614FF2C003C4F20F034FF248
S32D0000F728C002C4F20F02126842F400521A604FF44043C4F2040340F20312C0F20A021A634FF46143CEF20003FF
S32D0000F7504FF46142CEF20002D2F8882142F08062C3F888214FF46143CEF200034FF46142CEF20002926842F07A
S32D0000F77880629A60BD4680BC704700BF80B483B000AF7860FEE700BF80B400AF00BEBD4680BC704780B400AFC6
S32D0000F7A04FF0E0224CF20003C0F20003C2F8083D4FF40053C4F205034CF22052DA814FF40053C4F205034DF60F
S32D0000F7C82812DA814FF40053C4F205034FF0D2021A80BD4680BC704780B500AF4FF44043C4F20403D3F8A03085
S32D0000F7F003F48053002B0CBF00230123DBB2002B1FD04FF44043C4F204034FF44042C4F20402D2F8A02022F499
S32D0000F8188052C3F8A02041F2E040C1F6FF700AF0FFFD4FF2C003C4F20F034FF2C002C4F20F02126822F400528E
S32D0000F8401A6080BD0000000090B585B000AFF8600B467A60FB72FB68FA7A1A71FB684FF000025A714FF00103B6
S32D0000F8681C4678682049FDF783FD0346002B02D14FF000031C46E3B2002B02D01A4B7B6011E04FF001031C4600
S32D0000F89078681849FDF75CFD0346002B02D14FF000031C46E3B2002B01D0124B7B607868FCF712FF02460B468B
S32D0000F8B8104619460AA3D3E90023FCF75DFF02460B4610461946FDF739FA0246FB681A60FB68184607F1140724
S32D0000F8E0BD4690BDAFF30080ABAAAAAAAAAA2040000040410000803F80B582B000AF78607B685B79002B10D03B
S32D0000F9087B684FF000025A717B681B7941F29C30C1F6FF7019464FF000024FF01E0305F023F807F10807BD462C
S32D0000F93080BD00BF80B584B000AF786039603B687F2B03DD4FF07F03FB7309E03B6813F1800F03DA4FF080030A
S32D0000F958FB7301E03B68FB737B685B79FA7B9A420FD07B68FA7B5A717B681A79FB7B41F29C30C1F6FF701146AF
S32D0000F9801A464FF01E0304F0F3FF07F11007BD4680BD00BF00000000B0B584B000AF786039604FF001031C4647
S32D0000F9A838684D49FDF7C6FC0346002B02D14FF000031C46E3B2002B02D0474B3B6011E04FF001031C46386865
S32D0000F9D04449FDF7D1FC0346002B02D14FF000031C46E3B2002B01D03E4B3B603868FCF773FE04460D467B6897
S32D0000F9F81B681846FCF76CFE02460B46104619464FF000024FF0804303F5B203FCF7DEFF02460B462046294627
S32D0000FA20FCF7AEFE02460B4610461946FDF78AF903463B604FF001031C4638682A49FDF791FC0346002B02D1F0
S32D0000FA484FF000031C46E3B2002B14D03868FCF73FFE02460B46104619461DA3D3E90023FCF78AFE02460B4677
S32D0000FA7010461946FDF71EF90346FB6022E03868FCF72AFE02460B46104619464FF000024FF0804303F5C003FB
S32D0000FA98FCF772FE02460B46104619464FF000024FF0804303F5B203FCF790FF02460B4610461946FDF7FAF8E9
S32D0000FAC00346FB607868F968FFF734FF07F11007BD46B0BDAFF3008052B81E85EB51F43F0000C8C20000C842B9
S32D0000FAE800000000AFF3008080B485B000AF02460B46FA71BB71BB79002B07D141F26C13C1F6FF734FF0000233
S32D0000FB101A7006E041F26C13C1F6FF734FF001021A704FF03803FB7341F26C13C1F6FF731A78FB7B1343FB7321
S32D0000FB384FF4C043C4F206034FF4C042C4F206029278D2B242F01002D2B29A704FF4C043C4F206034FF4C042ED
S32D0000FB60C4F206029278D2B242F02002D2B29A704FF4C043C4F20603FA7B1A7107F11407BD4680BC704700BF7C
S32D0000FB8880B483B000AF4FF001037B6004E000BF7B6803F101037B607B68312BCCBF00230123DBB2002BF2D136
S32D0000FBB007F10C07BD4680BC704700BF80B582B000AF02460B46FA71BB7141F26D13C1F6FF731B7818464FF015
S32D0000FBD80001FFF789FF4FF4C043C4F20603DB78DBB203F00203002B14BF00230123DBB2002BF0D14FF4C0439F
S32D0000FC00C4F206034FF4C042C4F20602D278D2B242F00202D2B2DA704FF4C043C4F20603FA791A714FF4C043F9
S32D0000FC28C4F20603DB78DBB203F00203002B14BF00230123DBB2002BF0D14FF4C043C4F206034FF4C042C4F259
S32D0000FC500602D278D2B242F00202D2B2DA704FF4C043C4F20603BA791A714FF4C043C4F20603DB78DBB203F011
S32D0000FC780203002B14BF00230123DBB2002BF0D14FF4C043C4F206034FF4C042C4F20602D278D2B242F002028F
S32D0000FCA0D2B2DA704FF4C043C4F206034FF4C042C4F206029278D2B222F02002D2B29A704FF4C043C4F206030B
S32D0000FCC84FF4C042C4F206029278D2B222F01002D2B29A70FFF754FF07F10807BD4680BD80B582B000AF0346DC
S32D0000FCF0FB71FB79184600F06BF807F10807BD4680BD00BF80B582B000AF02460B46FA71BB7100F039F8FB7974
S32D0000FD184FEA4303DBB21846FFF7E2FFBB791846FFF7DEFF00F03EF807F10807BD4680BD80B500AF4FF0FF0088
S32D0000FD4000F046F80346184680BD00BF80B584B000AF0346FB7100F017F8FB794FEA4303DBB243F00103DBB2B4
S32D0000FD68DBB21846FFF7BCFFFFF7E2FF0346FB7300F018F8FB7B184607F11007BD4680BD80B400AF4FF24003B9
S32D0000FD90C4F20F034FF24002C4F20F02926842F480129A60BD4680BC704700BF80B400AF4FF24003C4F20F0393
S32D0000FDB84FF24002C4F20F02526842F480125A60BD4680BC704700BF80B485B000AF0346FB714FF00003BB73A5
S32D0000FDE003E0FB7B03F10103FB734FF44043C4F20A03DB6A4FF00003002BF2D14FF44043C4F20A034FF44042EA
S32D0000FE08C4F20A02D26A42F00042DA624FF44043C4F20A03FA795A6300BF4FF44043C4F20A03DB6A03F40033AE
S32D0000FE30002B14BF00230123DBB2002BF1D14FF44043C4F20A039B6BBB73BB7B184607F11407BD4680BC70478B
S32D0000FE5880B582B000AF4FF4E043C4F204034FF4E042C4F2040202F5805202F13002126842F4805203F58053E7
S32D0000FE8003F130031A604FF42043C4F204034FF480721A654FF24003C4F20F034FF24002C4F20F02526942F415
S32D0000FEA880125A61FFF77EFF4FF42043C4F204034FF400725A654FF42043C4F204034FF400729A654FF42043D8
S32D0000FED0C4F204034FF40072DA654FF44043C4F20A034FF44062C8F200021A604FF44043C4F20A034FF00502E0
S32D0000FEF8C3F60062DA604FF000037B6007E04FF0FF00FFF7EDFE7B6803F101037B607B68092BCCBF00230123C5
S32D0000FF20DBB2002BEFD104A1D1E9000104F0FCFD07F10807BD4680BD9A9999999999B93F90B486B000AFF86097
S32D0000FF48B9607A60FA684FF42043C4F206039A4214D14FF4E043C4F204034FF4E042C4F2040202F5805202F110
S32D0000FF703402126842F4806203F5805303F134031A6083E0FA684FF43043C4F206039A4214D14FF4E043C4F214
S32D0000FF9804034FF4E042C4F2040202F5805202F13402126842F4006203F5805303F134031A6067E0FA684FF4B3
S32D0000FFC04043C4F206039A4214D14FF4E043C4F204034FF4E042C4F2040202F5805202F13402126842F4805258
S32D0000FFE803F5805303F134031A604BE0FA684FF45043C4F206039A4214D14FF4E043C4F204034FF4E042C4F25A
S32D00010010040202F5805202F13402126842F4005203F5805303F134031A602FE0FA684FF42043C4F20E039A429D
S32D0001003814D14FF4E043C4F204034FF4E042C4F2040202F5805202F12802126842F4806203F5805303F128030E
S32D000100601A6013E04FF4E043C4F204034FF4E042C4F2040202F5805202F12802126842F4006203F5805303F109
S32D0001008828031A60FB68DB78DBB223F00C03DAB2FB68DA70FB684FF000029A70BB684FF47A7202FB03F27B6831
S32D000100B04FEA031392FBF3F39CB2FB681B78DBB223F01F03FB75234603F4F8534FEA2323DBB203F01F03DAB291
S32D000100D8FB7D1343DAB2FB681A70E2B2FB685A70BB684FF4FA4202FB03F27B684FEA031392FBF3F39AB2234603
S32D0001010019464FEAC121CB1A4FEA43139BB2D3189CB2FB689B7ADBB223F01F03FB75E3B203F01F03DAB2FB7D04
S32D000101281343DAB2FB689A72FB68DB78DBB243F00C03DAB2FB68DA7007F11807BD4690BC704700BF80B483B056
S32D0001015000AF786000BF7B681B79DBB203F02003002B14BF00230123DBB2002BF3D17B68DB79DBB2184607F145
S32D000101780C07BD4680BC704780B483B000AF78600B46FB7000BF7B681B79DBB2DBB26FEA0303DBB24FEAD3134A
S32D000101A0DBB2002BF3D17B68FA78DA7107F10C07BD4680BC704700BF80B487B000AFF860B9607A60FB687B61B0
S32D000101C8BB683B610BE03B691A787B691A707B6903F101037B613B6903F101033B617B68002B0CBF00230123AA
S32D000101F0DBB27A6802F1FF327A60002BE7D107F11C07BD4680BC704780B487B000AFF860B9607A60FB687B61DB
S32D0001021807E0BB68DAB27B691A707B6903F101037B617B68002B0CBF00230123DBB27A6802F1FF327A60002B43
S32D00010240EBD107F11C07BD4680BC704780B489B000AFF860B9607A60FB68FB61BB68BB614FF000037B617B685C
S32D00010268002B0CBF00230123DBB27A6802F1FF327A60002B19D0FB691B781A46BB691B78D31A7B617B69002BC3
S32D0001029014BF00230123DBB2FA6902F10102FA61BA6902F10102BA61002B02D04FF0010301E04FF00003002B22
S32D000102B8D5D17B69184607F12407BD4680BC704780B483B000AF7860396003E07B6803F101037B607B681B7880
S32D000102E0002B08D07B681B781A463B689A4202D04FF0010301E04FF00003002BEAD17B681B78184607F10C079A
S32D00010308BD4680BC704700BF80B584B000AF786039607B681B6BFB60FA683B689A4264D07B681B79002B43D0FA
S32D000103307B685A787B6803F1340310461946FA684FF0010304F0B4F80346002B0CBF00230123DBB2002B02D0D1
S32D000103584FF001034BE07B684FF000021A717B685A6A7B681B6AD218FB689A4220D97B68DB78FB7214E07B68AE
S32D000103801B6AFA68D318FB607B685A787B6803F1340310461946FA684FF0010304F088F8FB7A03F1FF33FB7288
S32D000103A8FB7A012B94BF00230123DBB2002BE2D13B68002B19D07B685A787B6803F13403104619463A684FF070
S32D000103D0010303F05FFF0346002B0CBF00230123DBB2002B02D04FF0010304E07B683A681A634FF000031846D0
S32D000103F807F11007BD4680BD80B584B000AF786078684FF00001FFF77FFF0346FB73FB7B002B40F0AE807B686A
S32D000104201B78032B40F095807B685B79002B00F090807B684FF000021A637B6803F1340318464FF000014FF435
S32D000104480072FFF7DDFE7B684FF0550283F832227B684FF0AA0283F833227B684FF0520283F834207B684FF0F5
S32D00010470520283F835207B684FF0610283F836207B684FF0410283F837207B684FF0720283F818227B684FF03F
S32D00010498720283F819227B684FF0410283F81A227B684FF0610283F81B227B681B69DAB27B6883F81C227B6840
S32D000104C01B699BB24FEA2323DAB27B6883F81D227B681B694FEA1343DAB27B6883F81E227B681B694FEA13635E
S32D000104E8DAB27B6883F81F227B68DB68DAB27B6883F820227B68DB689BB24FEA2323DAB27B6883F821227B6866
S32D00010510DB684FEA1343DAB27B6883F822227B68DB684FEA1363DAB27B6883F823227B6859787B6803F13402F7
S32D000105387B685B69084611461A464FF0010303F0B3FF7B684FF000025A717B685B7818464FF000014FF000027C
S32D0001056004F08CF80346002B0CBF00230123DBB2002B02D04FF00103FB73FB7B184607F11007BD4680BD00BF51
S32D0001058880B483B000AF786039603B68A3F102033B607B68DB69A3F102023B689A4202D84FF0000307E07B68C2
S32D000105B09B783A6802FB03F27B68DB6AD318184607F10C07BD4680BC704700BF80B586B000AF786039603B6816
S32D000105D8012B04D97B68DA693B689A4202D84FF00103D3E07B681B78022B5FD0032B00F08A80012B40F0C880D8
S32D000106003B687B617B694FEA53037A69D3187B617B685A6A7B694FEA5323D31878681946FFF776FE0346002BED
S32D000106280CBF00230123DBB2002B40F0A6807B694FEAC3534FEAD3537A68D31893F834303B617B6903F10103BD
S32D000106507B617B685A6A7B694FEA5323D31878681946FFF755FE0346002B0CBF00230123DBB2002B40F087807D
S32D000106787B694FEAC3534FEAD3537A68D31893F834304FEA03233A6913433B613B6803F00103DBB2002B03D0EC
S32D000106A03B694FEA131304E03B694FEA03534FEA13536FE07B685A6A3B684FEA1323D31878681946FFF724FE28
S32D000106C80346002B0CBF00230123DBB2002B58D13B684FEA43034FEAC3534FEAD35303F130037A68D31803F1E4
S32D000106F00403FB60FB6803F101031B784FEA03239AB2FB681B7813439BB29BB242E07B685A6A3B684FEAD3136F
S32D00010718D31878681946FFF7F7FD0346002B0CBF00230123DBB2002B2DD13B684FEA83034FEAC3534FEAD35352
S32D0001074003F130037A68D31803F10403FB60FB6803F103031B784FEA0362FB6803F102031B784FEA03431A43E7
S32D00010768FB6803F101031B784FEA03231A43FB681B78134323F0704308E000BF04E000BF02E000BF00E000BF1C
S32D000107904FF0FF33184607F11807BD4680BD00BF80B588B000AFF860B9607A60BB68012B04D9FB68DA69BB68F9
S32D000107B89A4203D84FF00203FB771AE1FB681B78022B00F08580032B00F0AD80012B40F00181BB68BB61BB6906
S32D000107E04FEA5303BA69D318BB61FB685A6ABB694FEA5323D318F8681946FFF789FD0346FB77FB7F002B40F081
S32D00010808ED80BB694FEAC3534FEAD35303F13003FA68D31803F104037B61BB6803F00103DBB2002B0ED07B69A3
S32D000108301B78DBB203F00F03DAB27B68DBB24FEA0313DBB21343DBB2DBB201E07B68DBB27A691370BB6903F15D
S32D000108580103BB61FB684FF001021A71FB685A6ABB694FEA5323D318F8681946FFF74CFD0346FB77FB7F002BDE
S32D0001088040F0B280BB694FEAC3534FEAD35303F13003FA68D31803F104037B61BB6803F00103DBB2002B04D024
S32D000108A87B684FEA1313DBB20FE07B691B78DBB223F00F03DAB27B684FEA1323DBB203F00F03DBB21343DBB25A
S32D000108D0DBB27A6913708CE0FB685A6ABB684FEA1323D318F8681946FFF712FD0346FB77FB7F002B7AD1BB6864
S32D000108F84FEA43034FEAC3534FEAD35303F13003FA68D31803F104037B617B68DAB27B691A707B6903F10103A0
S32D000109207A6892B24FEA2222D2B21A7061E0FB685A6ABB684FEAD313D318F8681946FFF7E7FC0346FB77FB7F95
S32D00010948002B51D1BB684FEA83034FEAC3534FEAD35303F13003FA68D31803F104037B617B6903F103031B78E7
S32D000109704FEA03627B6903F102031B784FEA03431A437B6903F101031B784FEA03231A437B691B78134303F083
S32D0001099870437A6813437B607B68DAB27B691A707B6903F101037A6892B24FEA2222D2B21A707B6903F1020323
S32D000109C07A684FEA1242D2B21A707B6903F103037A684FEA1262D2B21A700AE04FF00203FB7706E000BF04E0E7
S32D000109E800BF02E000BF00E000BFFB684FF001021A71FB7F184607F12007BD4680BD00BF80B584B000AF7860CB
S32D00010A1039603B68012B04D97B68DA693B689A4203D84FF00203FB7345E04FF00003FB7333E078683968FFF7E1
S32D00010A38C9FD0346BB60BB68002B35D0BB68012B03D14FF00203FB7331E0BB68B3F1FF3F03D14FF00103FB73A2
S32D00010A6029E0786839684FF00002FFF799FE0346FB73FB7B002B1DD17B681B69B3F1FF3F09D07B681B6903F14C
S32D00010A8801027B681A617B684FF001025A71BB683B607B68DA693B689A4294BF00230123DBB2002BC1D102E0C5
S32D00010AB000BF00E000BFFB7B184607F11007BD4680BD00BF80B586B000AF786039603B68002B0ED17B68DB6879
S32D00010AD83B613B69002B04D07B68DA693B699A4218D84FF001033B6114E078683968FFF769FD0346BB60BB68E3
S32D00010B00012B02D84FF001036EE07B68DA69BB689A4201D9BB6867E03B683B613B697B6100E000BF7B6903F190
S32D00010B2801037B617B68DA697B699A4209D84FF002037B617A693B699A4202D94FF000034EE078687969FFF771
S32D00010B503DFD0346BB60BB68002B0FD0BB68B3F1FF3F02D0BB68012B01D1BB683CE07A693B699A42D5D14FF02C
S32D00010B78000335E000BF786879696FF07042FFF70BFE0346FB73FB7B002B09D13B68002B06D0786839687A696B
S32D00010BA0FFF7FEFD0346FB73FB7B002B12D17B687A69DA607B681B69B3F1FF3F13D07B681B6903F1FF327B685F
S32D00010BC81A617B684FF001025A7108E0FB7B012B02D14FF0FF3301E04FF001037B617B69184607F11807BD4669
S32D00010BF080BD00BF80B487B000AF786039607B685B6A03F104033B613B684FEA53227B681B689B78B2FBF3F3B3
S32D00010C187B613B691B68FB603B6903F104033B61FB68002B02D14FF0000311E07A69FB689A4208D37A69FB683D
S32D00010C40D31A7B613B6903F104033B61E5E700BF3B691A687B69D318184607F11C07BD4680BC704780B584B029
S32D00010C6800AF78600B467B807B687A88DA807B689B68FB60FB68012B05D07B681B68DA69FB689A4202D84FF0A5
S32D00010C90020373E0FB68002B08D17B681B681B78032B03D17B681B689B6AFB60FB68002B16D17B68FA68DA60C1
S32D00010CB87B681B681B897A889A4202D34FF0020358E07B681B689A6A7B884FEA13139BB2D2187B681A613FE054
S32D00010CE07B681B689B784FEA03137B811EE07B681B681846F968FFF769FC0346FB60FB68B3F1FF3F02D14FF0A8
S32D00010D08010337E0FB68012B05D97B681B68DA69FB689A4202D84FF002032BE07A887B89D31A7B807A887B892F
S32D00010D309A4234BF00230123DBB2002BD7D17B68FA68DA607B681B681846F968FFF71CFC02467B884FEA1313C2
S32D00010D589BB2D2187B681A617B681B6803F134027B8803F00F034FEA4313D2187B685A614FF00003184607F190
S32D00010D801007BD4680BD00BF90B585B000AF786039607B68DB8803F101033B813B89002B03D07B681B69002B46
S32D00010DA802D14FF00403E4E03B8903F00F03002B40F0CE807B681B6903F101027B681A617B68DB68002B09D1E6
S32D00010DD07B681B681B893A899A42C0F0BD804FF00403CAE03B894FEA13139BB21A467B681B689B7803F1FF33FF
S32D00010DF81340002B40F0AC807B681A687B68DB6810461946FFF7DEFB0346FB60FB68012B02D84FF00203ACE006
S32D00010E20FB68B3F1FF3F02D14FF00103A5E07B681B68DA69FB689A4200F282803B68002B02D14FF0040398E088
S32D00010E487B681A687B68DB6810461946FFF736FE0346FB60FB68002B02D14FF0070388E0FB68012B02D14FF0BA
S32D00010E70020382E0FB68B3F1FF3F02D14FF001037BE07B681B6818464FF00001FFF740FA0346002B0CBF0023A0
S32D00010E980123DBB2002B02D04FF0010369E07B681B6803F1340318464FF000014FF40072FFF7A6F97B681C6811
S32D00010EC07B681B681846F968FFF75EFB034623634FF00003FB7220E07B681B684FF001021A717B681B6818461A
S32D00010EE84FF00001FFF710FA0346002B0CBF00230123DBB2002B02D04FF0010339E07B681B681A6B02F101024E
S32D00010F101A63FB7A03F10103FB727B681B689B78FA7A9A422CBF00230123DBB2002BD3D17B681B687A68126842
S32D00010F38116BFA7A8A1A1A637B68FA68DA607B681B681846F968FFF71BFB02467B681A617B683A89DA807B6840
S32D00010F601B6803F134023B8903F00F034FEA4313D2187B685A614FF00003184607F11407BD4690BD80B586B067
S32D00010F8800AF786078684FF00001FFF767FE0346FB75FB7D002B01D0FB7D47E07B681A687B681B6910461946EB
S32D00010FB0FFF7AEF90346FB75FB7D002B36D17B685B693B613B691B78FB73FB7B002B03D14FF00403FB752CE0F3
S32D00010FD83B6903F10B031B7803F00803002B0DD17B689B69386919464FF00B02FFF72AF90346002B02D14FF0D8
S32D00011000010301E04FF00003002B11D178684FF00001FFF7B9FE0346FB75FB7D002B14BF00230123DBB2002B92
S32D00011028BCD102E000BF00E000BFFB7D184607F11807BD4680BD00BF80B584B000AF786078684FF00001FFF7DA
S32D0001105009FE0346FB73FB7B002B29D17B681A687B681B6910461946FFF752F90346FB73FB7B002B19D17B6831
S32D000110785B691B78BB73BB7BE52B14D0BB7B002B11D078684FF00101FFF77AFE0346FB73FB7B002B14BF00237B
S32D000110A00123DBB2002BD9D102E000BF00E000BFFB7B002B23D17B681A687B681B6910461946FFF725F90346E8
S32D000110C8FB73FB7B002B16D17B685B69BB60B8684FF000014FF02002FFF792F87B689B69B86819464FF00B024E
S32D000110F0FFF762F87B681B684FF001021A71FB7B184607F11007BD4680BD00BF80B588B000AF786039603B683C
S32D000111181B68FB6003E0FB6803F10103FB60FB681B782F2B03D0FB681B785C2B02D14FF0010301E04FF0000358
S32D00011140002BECD17B689B69BB60B8684FF020014FF00B02FFF758F84FF00003FB774FF000033B613B697B6172
S32D000111684FF00803BB61FA687B69D3181B782E2B39D1FA687B69D3181B78BB777B6903F101037B61BB7F2E2B8A
S32D000111900CD17B69022B09D8BA683B69D318BA7F1A703B6903F101033B61E6E700BFBB7F2F2B08D0BB7F5C2BFC
S32D000111B805D0BB7F202B02D94FF00603C5E0FA687B69D2183B681A60BB6803F10B02BB7F202B02D84FF02403B0
S32D000111E001E04FF0200313704FF00003B1E0FA687B69D3181B78BB777B6903F101037B61BB7F202B68D9BB7F99
S32D000112082F2B65D0BB7F5C2B62D0BB7F2E2B03D03A69BB699A4214D3BB69082B02D1BB7F2E2B02D04FF006036E
S32D000112308FE04FF008033B614FF00B03BB61FB7F4FEA8303FB7700BFD1E7BB7F5BB2002B0CDAFB7F43F00303A4
S32D00011258FB77BB7FA3F180024DF65033C0F201039B5CBB77BB7F4DF27870C0F201001946FFF726F80346002B05
S32D000112800CBF00230123DBB2002B02D04FF006035FE0BB7F402B07D9BB7F5A2B04D8FB7F43F00203FB770DE0EB
S32D000112A8BB7F602B0AD9BB7F7A2B07D8FB7F43F00103FB77BB7FA3F12003BB77BA683B69D318BA7F1A703B6953
S32D000112D003F101033B618AE700BFFA687B69D2183B681A60BB7F202B02D84FF0040301E04FF00003BB773B6940
S32D000112F8002B02D14FF0060327E0BB681B78E52B03D1BB684FF005021A70BB69082B03D1FB7F4FEA8303FB7717
S32D00011320FB7F03F00303012B03D1BB7F43F01003BB77FB7F03F00C03042B03D1BB7F43F00803BB77BB6803F139
S32D000113480B03BA7F1A704FF00003184607F12007BD4680BD80B584B000AF786039603B681B782F2B03D03B6817
S32D000113701B785C2B08D13B6803F101033B607B684FF000029A6004E07B681B689A697B689A603B681B781F2B5D
S32D000113980BD878684FF00001FFF760FC0346FB737B684FF000025A6175E03B4678681946FFF7A8FE0346FB73D3
S32D000113C0FB7B002B64D17868FFF7DCFD0346FB737B689B69DB7ABB73FB7B002B21D0FB7B042B57D1BB7B03F0D0
S32D000113E82003002B10D07B684FF000029A607B684FF000025A614FF00003FB73BB7B03F00403002B44D13EE06D
S32D00011410BB7B03F00403002B3ED14FF00503FB733AE0BB7B03F00403002B37D17B685B69BB60BB6803F10B032A
S32D000114381B7803F01003002B03D14FF00503FB7329E0BB6803F115031B784FEA03239AB2BB6803F114031B7801
S32D0001146013439BB29BB24FEA0342BB6803F11B031B784FEA032399B2BB6803F11A031B780B439BB29BB21A4371
S32D000114887B689A6091E790E700BF04E000BF02E000BF00E000BFFB7B184607F11007BD4680BD00BF80B582B07E
S32D000114B000AF786039607B685A787B6803F13403104619463A684FF0010302F0E3FE0346002B0CBF0023012337
S32D000114D8DBB2002B02D04FF0030356E07B6893F833324FEA03239AB27B6893F8323213439BB21AB24AF6552369
S32D00011500CFF6FF739A4202D04FF0020341E07B6893F86D304FEA03627B6893F86C304FEA03431A437B6893F875
S32D000115286B304FEA03231A437B6893F86A30134323F07F4244F24613C0F254039A4202D14FF0000321E07B689E
S32D0001155093F889304FEA03627B6893F888304FEA03431A437B6893F887304FEA03231A437B6893F8863013432D
S32D0001157823F07F4244F24613C0F254039A4202D14FF0000301E04FF00103184607F10807BD4680BD80B592B0A7
S32D000115A000AFF860B9601346FB71FB681B68FB62FB6A1B78A3F130033B643B6C092B0DD8FB6A03F101031B78E6
S32D000115C83A2B07D1FB6A03F10203FB62FB68FA6A1A6005E041F27613C1F6FF731B783B643B6C002B02D04FF0DC
S32D000115F00B03C9E241F27013C1F6FF733A6C53F82230BB62BB68BA6A1A60BB6A002B02D14FF00C03B8E2BB6AE3
S32D000116181B78002B20D0BB6A5B78184603F0BEF8034687F8273097F8273003F00103DBB283F00103DBB2002B3E
S32D000116400ED0FB79002B08D097F8273003F00403002B02D04FF00A0396E24FF0000393E2BB6A4FF000021A70DE
S32D000116683B6CDAB2BB6A5A70BB6A5B78184602F04FFB034687F8273097F8273003F00103DBB2002B02D04FF0DA
S32D00011690030379E2FB79002B08D097F8273003F00403002B02D04FF00A036DE24FF00003FB63B86AF96BFFF7BF
S32D000116B8F9FE034687F8473097F84730012B2AD1BB6A03F5F9733B623B6A03F104031B78002B20D03B6A03F193
S32D000116E00B031B784FEA03623B6A03F10A031B784FEA03431A433B6A03F109031B784FEA03231A433B6A03F1FA
S32D0001170808031B781343FB63B86AF96BFFF7CAFE034687F8473097F84730032B02D14FF001032DE297F847307E
S32D00011730002B02D04FF00D0326E2BB6A93F840304FEA03239AB2BB6A93F83F3013439BB21BB2B3F5007F02D0E3
S32D000117584FF00D0314E2BB6A93F84B304FEA03239AB2BB6A93F84A3013439BB29BB2BB63BB6B002B15D1BB6AB3
S32D0001178093F85B304FEA0362BB6A93F85A304FEA03431A43BB6A93F859304FEA03231A43BB6A93F858301343ED
S32D000117A8BB63BB6ABA6B1A62BB6A93F84430FB77BB6AFA7FDA70FB7F012B05D0FB7F022B02D04FF00D03DBE1B1
S32D000117D0FA7FBB6B02FB03F3BB63BB6A93F84130FB77BB6AFA7F9A70FB7F002B06D0FA7FFB7F03F1FF33134018
S32D000117F8002B02D04FF00D03C2E1BB6A93F846304FEA03239AB2BB6A93F8453013439BB29AB2BB6A1A81BB6A09
S32D000118201B8903F00F03002B02D04FF00D03ABE1BB6A93F848304FEA03239AB2BB6A93F8473013439BB29BB22E
S32D000118487B637B6B002B15D1BB6A93F857304FEA0362BB6A93F856304FEA03431A43BB6A93F855304FEA032321
S32D000118701A43BB6A93F8543013437B63BB6A93F843304FEA03239AB2BB6A93F8423013439BB2BB83BB8B002B42
S32D0001189802D14FF00D0373E1BA8BBB6BD218BB6A1B894FEA13139BB2D318BB617A6BBB699A4202D24FF00D03D2
S32D000118C062E17A6BBB69D21ABB6A9B78B2FBF3F37B617B69002B02D14FF00D0354E14FF0010387F847307A6998
S32D000118E840F6F5739A4203D94FF0020387F847307A694FF6F5739A4203D94FF0030387F847307B6903F10202E2
S32D00011910BB6ADA61FA6BBB69D218BB6ADA62BA8BFB6BD218BB6A5A6297F84730032B23D1BB6A1B89002B02D010
S32D000119384FF00D0324E1BB6A93F863304FEA0362BB6A93F862304FEA03431A43BB6A93F861304FEA03231A4330
S32D00011960BB6A93F860301A43BB6A9A62BB6ADB694FEA83033B6323E0BB6A1B89002B02D14FF00D0300E1BB6AB5
S32D000119885A6ABB6BD218BB6A9A6297F84730022B04D1BB6ADB694FEA43030CE0BB6ADA6913464FEA43039B186C
S32D000119B04FEA5302BB6ADB6903F00103D3183B63BB6A1A6A3B6B03F5FE7303F103034FEA53239A4202D24FF041
S32D000119D80D03D5E0BB6A4FF0FF321A61BB6A4FF00002DA6097F84730032B40F0A380BB6A4FF000025A71BB6A8E
S32D00011A0093F865304FEA03239AB2BB6A93F8643013439BB29BB21A46FB6BD218BB6A5A61BB6A5978BB6A03F119
S32D00011A283402BB6A5B69084611461A464FF0010302F02CFC0346002B4AD1BB6A93F833324FEA03239AB2BB6A9A
S32D00011A5093F8323213439BB21AB24AF65523CFF6FF739A4238D1BB6A93F837304FEA0362BB6A93F836304FEA31
S32D00011A7803431A43BB6A93F835304FEA03231A43BB6A93F834301A4345F25223C4F261139A421DD1BB6A93F80A
S32D00011AA01B324FEA0362BB6A93F81A324FEA03431A43BB6A93F819324FEA03231A43BB6A93F818321A4347F20D
S32D00011AC87223C6F241139A4202D14FF0010301E04FF00003002B2DD0BB6A93F823324FEA0362BB6A93F822326A
S32D00011AF04FEA03431A43BB6A93F821324FEA03231A43BB6A93F820321A43BB6ADA60BB6A93F81F324FEA0362CF
S32D00011B18BB6A93F81E324FEA03431A43BB6A93F81D324FEA03231A43BB6A93F81C321A43BB6A1A61BB6A97F858
S32D00011B4047201A7041F27413C1F6FF731B8803F101039AB241F27413C1F6FF731A8041F27413C1F6FF731A88B9
S32D00011B68BB6ADA80BB6A4FF000021A63BB6A4FF000021A71BB6A4FF000029A614FF00003184607F14807BD46B0
S32D00011B9080BD00BF80B582B000AF78600B467B807B68002B08D07B681B78002B04D07B68DB887A889A4202D09F
S32D00011BB84FF009030FE07B685B78184602F0EEFD034603F00103DBB2002B02D04FF0030301E04FF00003184643
S32D00011BE007F10807BD4680BD80B485B000AF03463960FB71FB79002B02D04FF00B031FE0FA7941F27013C1F68C
S32D00011C08FF7353F82230FB60FB68002B03D0FB684FF000021A703B68002B03D03B684FF000021A70FA7941F2FF
S32D00011C307013C1F6FF73396843F822104FF00003184607F11407BD4680BC704780B592B000AFF860B960134632
S32D00011C58FB71FB684FF000021A60FB7903F01F03FB71FB7923F00103DBB207F1080107F11C02084611461A46AA
S32D00011C80FFF78CFC034687F8473007F110037B6397F84730002B09D1BB6807F11C0210461946FFF75BFB034601
S32D00011CA887F847303B6B3B6497F84730002B06D13B6C002B03D14FF0060387F84730FB7903F01C03002B00F045
S32D00011CD0D48097F84730002B12D097F84730042B07D107F11C031846FFF7AAF9034687F84730FB7943F0080372
S32D00011CF8FB713B6B3B6415E03B6C03F10B031B7803F01103002B04D04FF0070387F8473008E0FB7903F0040340
S32D00011D20002B03D04FF0080387F8473097F84730002B40F0C580FB7903F00803002B00F0BF804FF00003FB6344
S32D00011D483B6C03F10E03FA6BD2B21A703B6C03F10F03FA6B92B24FEA2222D2B21A703B6C03F11003FA6B4FEA20
S32D00011D701242D2B21A703B6C03F11103FA6B4FEA1262D2B21A703B6C03F10B034FF000021A703B6C03F11C03E5
S32D00011D984FF000021A703B6C03F11D034FF000021A703B6C03F11E034FF000021A703B6C03F11F034FF0000246
S32D00011DC01A703B6C03F115031B784FEA03239AB23B6C03F114031B7813439BB29BB24FEA03423B6C03F11B030D
S32D00011DE81B784FEA032399B23B6C03F11A031B780B439BB29BB21343BB633B6C03F11A034FF000021A703B6CBE
S32D00011E1003F11B034FF000021A703B6C03F114034FF000021A703B6C03F115034FF000021A70FB694FF0010225
S32D00011E381A71BB6B002B3FD0FB691B6BFB63FB691846B96BFEF7DCFD034687F8473097F84730002B30D1FB69BF
S32D00011E60BA6B02F1FF32DA60FB691846F96BFEF74FFA034687F8473022E097F84730002B1ED13B6C03F10B0362
S32D00011E881B7803F01003002B04D04FF0040387F8473011E0FB7903F00203002B0CD03B6C03F10B031B7803F0C4
S32D00011EB00103DBB2002B03D04FF0070387F8473097F84730002B0FD1FB7903F00803002B03D0FB7943F02003EA
S32D00011ED8FB71FB691A6BFB68DA61FB683A6C1A6297F84730002B51D1FB68FA799A713B6C03F115031B784FEAB0
S32D00011F0003239AB23B6C03F114031B7813439BB29BB24FEA03423B6C03F11B031B784FEA032399B23B6C03F1FC
S32D00011F281A031B780B439BB29BB21A43FB681A613B6C03F11F031B784FEA03623B6C03F11E031B784FEA0343FB
S32D00011F501A433B6C03F11D031B784FEA03231A433B6C03F11C031B781A43FB68DA60FB684FF000029A60FB68B3
S32D00011F784FF000029A61FB684FF000025A62FA69FB681A60FB69DA88FB689A8097F84730184607F14807BD466D
S32D00011FA080BD00BF80B58AB000AFF860B9607A603B60BB68BB613B684FF000021A60FB681A68FB689B881046B4
S32D00011FC81946FFF7E3FD0346FB75FB7D002B01D0FB7DACE1FB689B79DBB25BB2002B02DA4FF00203A3E1FB6840
S32D00011FF09B7903F00203002B02D14FF007039AE1FB68DA687B68D218FB68DB689A4280F074814FF000037B607E
S32D000120186FE1FB689B684FEAC3534FEAD353002B40F02E81FB689B684FEA5323DAB2FB681B689B7803F1FF336B
S32D00012040DBB21340BB75BB7D002B4FD1FB689B68002B12D1FB681B697B627B6A002B23D1FB681B6818464FF01F
S32D000120680001FEF72BFD03467B62FB687A6A1A6116E0FB685B6A002B08D0FB689B68F8681946FEF7B3FD03460F
S32D000120907B6209E0FB681A68FB685B6910461946FEF710FD03467B627B6A002B00F02F817B6A012B09D1FB6874
S32D000120B89B7963F07F03DAB2FB689A714FF0020335E17B6AB3F1FF3F09D1FB689B7963F07F03DAB2FB689A71D5
S32D000120E04FF0010327E1FB687A6A5A61FB689B7903F04003002B27D0FB681B685978FB6803F12802FB689B6916
S32D00012108084611461A464FF0010302F0CDF90346002B0CBF00230123DBB2002B09D0FB689B7963F07F03DAB2B9
S32D00012130FB689A714FF00103FDE0FB689B7923F04003DAB2FB689A71FB681A68FB685B6910461946FEF718FA63
S32D0001215803463B613B69002B09D1FB689B7963F07F03DAB2FB689A714FF00203DFE0BB7D3A69D3183B617B683C
S32D000121804FEA5323FB61FB69002B4ED0BA7DFB69D218FB681B689B789A4206D9FB681B689B781A46BB7DD31AC1
S32D000121A8FB61FB681B685A78FB69DBB21046B9693A6902F079F90346002B0CBF00230123DBB2002B09D0FB680A
S32D000121D09B7963F07F03DAB2FB689A714FF00103A9E0FB689A693B69D21AFB699A4217D2FB6803F12802FB682E
S32D000121F899693B69CB1A4FEA4323B969CB18104619464FF40072FDF7D3FFFB689B7923F04003DAB2FB689A7192
S32D00012220FB694FEA43233B6253E0FB689A693B699A4226D0FB689A68FB68DB689A4212D2FB681B685A78FB68FA
S32D0001224803F12803104619463A694FF0010302F01DF80346002B02D04FF0010301E04FF00003002B09D0FB6893
S32D000122709B7963F07F03DAB2FB689A714FF0010359E0FB683A699A61FB689B684FEAC3534FEAD353C3F50073A0
S32D000122983B623A6A7B689A4201D97B683B62FB689B684FEAC3534FEAD35303F12803FA68D3181846B9693A6A19
S32D000122C0FDF77AFFFB689B7943F04003DAB2FB689A71BA693B6AD318BB61FB689A683B6AD218FB689A603B68D8
S32D000122E81A683B6AD2183B681A607A683B6AD31A7B607B68002B0CBF00230123DBB2002B7FF487AE00E000BF2B
S32D00012310FB689A68FB68DB689A4203D9FB689A68FB68DA60FB689B7943F02003DAB2FB689A714FF00003184672
S32D0001233807F12807BD4680BD80B586B000AF78607B681A687B689B8810461946FFF71EFC0346FB75FB7D002B91
S32D0001236040F0C8807B689B7903F02003002B00F0C1807B689B7903F04003002B20D07B681B6859787B6803F117
S32D0001238828027B689B69084611461A464FF0010302F08AF80346002B0CBF00230123DBB2002B02D04FF0010306
S32D000123B0A1E07B689B7923F04003DAB27B689A717B681A687B68DB6910461946FDF7A0FF0346FB75FB7D002B86
S32D000123D840F08C807B681B6A3B613B6903F10B033A6902F10B02127842F02002D2B21A703B6903F11C037A68C8
S32D00012400D268D2B21A703B6903F11D037A68D26892B24FEA2222D2B21A703B6903F11E037A68D2684FEA124260
S32D00012428D2B21A703B6903F11F037A68D2684FEA1262D2B21A703B6903F11A037A681269D2B21A703B6903F12E
S32D000124501B037A68126992B24FEA2222D2B21A703B6903F114037A6812694FEA1242D2B21A703B6903F11503BC
S32D000124787A6812694FEA124292B24FEA2222D2B21A704FF00003FB603B6903F11603FA68D2B21A703B6903F126
S32D000124A01703FA6892B24FEA2222D2B21A703B6903F11803FA684FEA1242D2B21A703B6903F11903FA684FEAC3
S32D000124C81262D2B21A707B689B7923F02003DAB27B689A717B681B684FF001021A717B681B681846FDF788FF4A
S32D000124F00346FB75FB7D184607F11807BD4680BD80B584B000AF78607868FFF719FF0346FB73FB7B002B03D1CD
S32D000125187B684FF000021A60FB7B184607F11007BD4680BD80B586B000AF03463960FB71FB793B734FF0010306
S32D000125407B6107F10C0207F11003386811467A69FFF728FD3A697B699A4202D14FF0010301E04FF0FF33184661
S32D0001256807F11807BD4680BD80B584B000AF786039604FF00003FB6019E07B681B7818463968FFF7CFFF03464C
S32D00012590B3F1FF3F14BF00230123DBB2002B02D04FF0FF3311E07B6803F101037B60FB6803F10103FB607B68E5
S32D000125B81B78002B0CBF00230123DBB2002BDCD1FB68184607F11007BD4680BD80B485B000AF786039604FF0E7
S32D000125E00103FB604FF00003BB604FF00003BB6008E0FB687A6802FB03F3FB60BB6803F10103BB60BA683B683D
S32D000126089A42ACBF00230123DBB2002BEDD1FB68184607F11407BD4680BC704790B599B000AFF860B9607A604D
S32D000126304FF000033B643B6CFB638FE3BB681B7887F84730BB6803F10103BB6097F84730002B00F08E8397F880
S32D000126584730252B10D097F847301846F968FFF761FF0346FB63FB6BB3F1FF3F00F069834FF00103FB6364E3DE
S32D000126804FF0000387F85F304FF000033B65BB681B7887F84730BB6803F10103BB6097F84730302B0CD14FF09A
S32D000126A8010387F85F30BB681B7887F84730BB6803F10103BB600FE097F847302D2B0BD14FF0020387F85F3094
S32D000126D0BB681B7887F84730BB6803F10103BB6097F847302E2B1ED1BB681B7887F84730BB6803F10103BB60C9
S32D000126F815E03A6D13464FEA83039B184FEA43031A4697F84730D318A3F130033B65BB681B7887F84730BB6846
S32D0001272003F10103BB6097F847302F2B06D997F84730392B02D84FF0010301E04FF00003002BDAD197F84730B2
S32D000127486C2B03D097F847304C2B0DD197F85F3043F0040387F85F30BB681B7887F84730BB6803F10103BB6055
S32D0001277097F84730002B00F0FE8297F8473087F8463097F84630602B09D997F846307A2B05D897F84630A3F10C
S32D00012798200387F8463097F84630A3F14203162B00F2D38101A151F823F000BF2B2B0100112B01003F2B0100D9
S32D000127C0532B0100EB280100532B0100532B0100532B0100532B0100532B0100532B0100532B0100532B01005F
S32D000127E8352B0100532B0100532B0100532B010011280100532B01003F2B0100532B0100532B0100492B01004D
S32D000128107B6803F104027A601B687B624FF000037B6503E07B6D03F101037B657A6A7B6DD3181B78002B0CBF7D
S32D0001283800230123DBB2002BF0D14FF000033B640AE04FF02000F968FFF76CFE0346FB633A6CFB6BD3183B6489
S32D0001286097F85F3003F00203002B0FD17A6D3B6D9A422CBF00230123DBB27A6D02F101027A65002B02D04FF006
S32D00012888010301E04FF00003002BDAD1786AF968FFF76AFE0346FB633A6CFB6BD3183B640AE04FF02000F9689C
S32D000128B0FFF73CFE0346FB633A6CFB6BD3183B647A6D3B6D9A422CBF00230123DBB27A6D02F101027A65002B7B
S32D000128D8E7D1FB6BB3F1FF3F00F035823B6CFB6331E27B6803F1070323F0070303F108027A60D3E90023C7E9AD
S32D000129000C23D7E90C23C7E90A234FF00003FB644FF001031C46D7E90C014FF000024FF00003FAF79FF9034645
S32D00012928002B02D14FF000031C46E3B2002B29D04FF02D00F968FFF7F5FD0346FB633A6CFB6BD3183B643B6B8D
S32D000129503B637B6B83F000437B63BB6ABB62FB6A83F00043FB6211E0D7E90A014FF000024FF0804303F510136C
S32D00012978FAF72CF802460B46C7E90A23FB6C03F10103FB64D7E90A01FAF790F90346002B0CBF00230123DBB28F
S32D000129A0002BE1D1FB6C03F1FF337B653FE07B6D4FF00A001946FFF70DFE03461846F9F779FE02460B46D7E9A7
S32D000129C80C01FAF703F802460B4610461946FAF76DF903463B623A6A46F26763C6F2666383FB02134FEAA301C5
S32D000129F04FEAE273C91A0B464FEA83035B184FEA4303D31A3B623B6A03F130033B623B6ADBB21846F968FFF76B
S32D00012A1889FD0346FB633A6CFB6BD3183B647B6D03F1FF337B657B6DB3F1FF3F0CBF00230123DBB2002BB6D1C3
S32D00012A404FF02E00F968FFF771FD0346FB633A6CFB6BD3183B643B6D002B02D14FF003033B654FF00103BB650A
S32D00012A6841E0BB6D4FF00A001946FFF7AFFD03461846F9F71BFE02460B4610461946D7E90C23F9F779FE024610
S32D00012A900B4610461946FAF70DF903463B623A6A46F26763C6F2666383FB02134FEAA3014FEAE273C91A0B46DB
S32D00012AB84FEA83035B184FEA4303D31A3B623B6A03F130033B623B6ADBB21846F968FFF729FD0346FB633A6CF1
S32D00012AE0FB6BD3183B64BB6D03F10103BB65BA6D3B6D9A428CBF00230123DBB2002BB4D1FB6BB3F1FF3F00F0E5
S32D00012B0824813B6CFB6320E17B6803F104027A601B68DBB21846F968FFF704FD0346FB6314E14FF0020387F817
