S01F00002E2E2F526573746172746564526F626F7450726F6A6563742E733139BF
S32D0000C00000000020AD0501000909010009090100090901000909010009090100000000000000000000000000E0
S32D0000C0280000000009090100090901000000000009090100090901000909010009090100090901000909010052
S32D0000C0500909010009090100090901000909010009090100090901000909010009090100090901000909010004
S32D0000C07809090100090901000909010009090100090901000909010009090100090901000909010009090100DC
S32D0000C0A009090100090901000909010009090100090901000909010009090100090901000909010009090100B4
S32D0000C0C8090901000909010009090100090901000909010009090100090901000909010009090100090901008C
S32D0000C0F009090100519B010009090100090901000909010009090100090901000909010009090100090901008A
S32D0000C118090901000909010009090100090901000909010009090100090901000909010009090100090901003B
S32D0000C140090901000909010009090100090901007D660100090901000909010009090100090901000909010042
S32D0000C16809090100090901000909010009090100090901000909010009090100090901000909010009090100EB
S32D0000C19009090100090901000909010031610100855F0100596001005909010009620100090901000909010021
S32D0000C1B8090901000909010009090100090901000909010009090100090901000909010009090100090901009B
S32D0000C41081F0004102E000BF83F0004330B54FEA41044FEA430594EA050F08BF90EA020F1FBF54EA000C55EAC6
S32D0000C438020C7FEA645C7FEA655C00F0E2804FEA5454D4EB5555B8BF6D420CDD2C4480EA020281EA030382EA0F
S32D0000C460000083EA010180EA020281EA0303362D88BF30BD11F0004F4FEA01314FF4801C4CEA113102D0404263
S32D0000C48861EB410113F0004F4FEA03334CEA133302D0524263EB430394EA050F00F0A780A4F10104D5F1200E8A
S32D0000C4B00DDB02FA0EFC22FA05F2801841F1000103FA0EF2801843FA05F359410EE0A5F120050EF1200E012A2D
S32D0000C4D803FA0EFC28BF4CF0020C43FA05F3C01851EBE37101F0004507D54FF0000EDCF1000C7EEB00006EEB67
S32D0000C5000101B1F5801F1BD3B1F5001F0CD349085FEA30004FEA3C0C04F101044FEA445212F5800F80F09A8000
S32D0000C528BCF1004F08BF5FEA500C50F1000041EB045141EA050130BD5FEA4C0C404141EB010111F4801FA4F114
S32D0000C5500104E9D191F0000F04BF01460020B1FA81F308BF2033A3F10B03B3F120020CDA0C3208DD02F1140C87
S32D0000C578C2F10C0201FA0CF021FA02F10CE002F11402D8BFC2F1200C01FA02F120FA0CFCDCBF41EA0C019040B1
S32D0000C5A0E41AA2BF01EB0451294330BD6FEA04041F3C1CDA0C340EDC04F11404C4F1200220FA04F001FA02F3B6
S32D0000C5C840EA030021FA04F345EA030130BDC4F10C04C4F1200220FA02F001FA04F340EA0300294630BD21FAA8
S32D0000C5F004F0294630BD94F0000F83F4801306BF81F480110134013D4EE77FEA645C18BF7FEA655C29D094EA1C
S32D0000C618050F08BF90EA020F05D054EA000C04BF1946104630BD91EA030F1EBF0021002030BD5FEA545C05D1A3
S32D0000C6404000494128BF41F0004130BD14F580043CBF01F5801130BD01F0004545F0FE4141F470014FF0000031
S32D0000C66830BD7FEA645C1ABF194610467FEA655C1CBF0B46024650EA013406BF52EA033591EA030F41F40021D7
S32D0000C69030BD00BF90F0000F04BF0021704730B54FF4806404F132044FF000054FF0000150E700BF90F0000F66
S32D0000C6B804BF0021704730B54FF4806404F1320410F0004548BF40424FF000013EE700BF42004FEAE2014FEAF9
S32D0000C6E031014FEA02701FBF12F07F4393F07F4F81F06051704792F0000F14BF93F07F4F704730B54FF460741B
S32D0000C70801F0004521F0004120E700BF50EA010208BF704730B54FF000050AE050EA010208BF704730B511F046
S32D0000C730004502D5404261EB41014FF4806404F132045FEA915C3FF4DCAE4FF003025FEADC0C18BF03325FEAA0
S32D0000C758DC0C18BF033202EBDC02C2F1200300FA03FC20FA02F001FA03FE40EA0E0021FA02F11444C1E600BF19
S32D0000C78070B54FF0FF0C4CF4E06C1CEA11541DBF1CEA135594EA0C0F95EA0C0F00F0DEF82C4481EA030621EAF3
S32D0000C7A84C5123EA4C5350EA013518BF52EA033541F4801143F4801338D0A0FB02CE4FF00005E1FB02E506F05F
S32D0000C7D00042E0FB03E54FF00006E1FB03569CF0000F18BF4EF0010EA4F1FF04B6F5007F64F5407404D25FEA0F
S32D0000C7F84E0E6D4146EB060642EAC62141EA55514FEAC52040EA5E504FEACE2EB4F1FD0C88BFBCF5E06F1ED8D2
S32D0000C820BEF1004F08BF5FEA500E50F1000041EB045170BD06F0004646EA010140EA020081EA0301B4EB5C0487
S32D0000C848C2BFD4EB0C0541EA045170BD41F480114FF0000E013C00F3AB8014F1360FDEBF002001F0004170BDF0
S32D0000C870C4F10004203C35DA0C341BDC04F11404C4F1200500FA05F320FA04F001FA05F240EA020001F0004207
S32D0000C89821F0004110EBD37021FA04F642EB06015EEA430E08BF20EAD37070BDC4F10C04C4F1200500FA04F32F
S32D0000C8C020FA05F001FA04F240EA020001F0004110EBD37041F100015EEA430E08BF20EAD37070BDC4F12005C7
S32D0000C8E800FA05F24EEA020E20FA04F301FA05F243EA020321FA04F001F0004121FA04F220EA020000EBD37028
S32D0000C9105EEA430E08BF20EAD37070BD94F0000F0FD101F00046400041EB010111F4801F08BF013CF7D041EA6D
S32D0000C938060195F0000F18BF704703F00046520043EB030313F4801F08BF013DF7D043EA0603704794EA0C0FF1
S32D0000C9600CEA135518BF95EA0C0F0CD050EA410618BF52EA4306D1D181EA030101F000414FF0000070BD50EA38
S32D0000C988410606BF1046194652EA430619D094EA0C0F02D150EA013613D195EA0C0F05D152EA03361CBF10467B
S32D0000C9B019460AD181EA030101F0004141F0FE4141F470014FF0000070BD41F0FE4141F4780170BD70B54FF04D
S32D0000C9D8FF0C4CF4E06C1CEA11541DBF1CEA135594EA0C0F95EA0C0F00F0A7F8A4EB050481EA030E52EA03359B
S32D0000CA004FEA013100F088804FEA03334FF0805545EA131343EA12634FEA022245EA111545EA10654FEA002676
S32D0000CA280EF000419D4208BF964244F1FD0404F5407402D25B084FEA3202B61A65EB03055B084FEA32024FF461
S32D0000CA5080104FF4002CB6EB020E75EB030E22BFB61A754640EA0C005B084FEA3202B6EB020E75EB030E22BF22
S32D0000CA78B61A754640EA5C005B084FEA3202B6EB020E75EB030E22BFB61A754640EA9C005B084FEA3202B6EBEA
S32D0000CAA0020E75EB030E22BFB61A754640EADC0055EA060E18D04FEA051545EA16754FEA06164FEAC30343EAAC
S32D0000CAC852734FEAC2025FEA1C1CC0D111F4801F0BD141EA00014FF000004FF0004CB6E711F4801F04BF0143AE
S32D0000CAF00020B4F1FD0C88BFBCF5E06F3FF6AFAEB5EB030C04BFB6EB020C5FEA500C50F1000041EB045170BDBC
S32D0000CB180EF0004E4EEA113114EB5C04C2BFD4EB0C0541EA045170BD41F480114FF0000E013C90E645EA060EC3
S32D0000CB408DE60CEA135594EA0C0F08BF95EA0C0F3FF43BAF94EA0C0F0AD150EA01347FF434AF95EA0C0F7FF499
S32D0000CB6825AF104619462CE795EA0C0F06D152EA03353FF4FDAE1046194622E750EA410618BF52EA43067FF432
S32D0000CB90C5AE50EA41047FF40DAF52EA43057FF4EBAE12E74FF0FF3C06E000BF4FF0010C02E000BF4FF0010C75
S32D0000CBB84DF804CD4FEA410C7FEA6C5C4FEA430C18BF7FEA6C5C1BD001B050EA410C0CBF52EA430C91EA030FEC
S32D0000CBE002BF90EA020F0020704710F1000F91EA030F58BF994208BF90422CBFD8176FEAE37040F0010070476E
S32D0000CC084FEA410C7FEA6C5C02D150EA013C07D14FEA430C7FEA6C5CD6D152EA033CD3D05DF8040B704700BFCD
S32D0000CC308446104662468C461946634600E000BF01B5FFF7B7FF002848BF10F1000F01BD4DF808EDFFF7F4FF13
S32D0000CC580CBF012000205DF808FB00BF4DF808EDFFF7EAFF34BF012000205DF808FB00BF4DF808EDFFF7E0FF18
S32D0000CC8094BF012000205DF808FB00BF4DF808EDFFF7CEFF94BF012000205DF808FB00BF4DF808EDFFF7C4FF40
S32D0000CCA834BF012000205DF808FB00BF4FEA410212F5001215D211D56FF47873B3EB625212D94FEAC12343F0D6
S32D0000CCD0004343EA505311F0004F23FA02F018BF404270474FF00000704750EA013005D111F0004008BF6FF016
S32D0000CCF8004070474FF00000704700BF4A0011D212F5001211D20DD56FF47873B3EB62520ED44FEAC12343F085
S32D0000CD20004343EA505323FA02F070474FF00000704750EA013002D14FF0FF3070474FF0000070474FEA410241
S32D0000CD48B2F1E04324BFB3F5001CDCF1FE5C0DD901F0004C4FEAC0024CEA5070B2F1004F40EB830008BF20F09E
S32D0000CD700100704711F0804F21D113F13872BCBF01F00040704741F480114FEA5252C2F11802C2F1200C10FAB1
S32D0000CD980CF320FA02F018BF40F001004FEAC1234FEAD32303FA0CFC40EA0C0023FA02F34FEA4303CCE77FEA26
S32D0000CDC0625307D150EA01331EBF4FF0FE4040F44000704701F0004040F0FE4040F40000704700BF80F00040CC
S32D0000CDE802E000BF81F0004142001FBF5FEA410392EA030F7FEA226C7FEA236C6AD04FEA1262D2EB1363C1BF06
S32D0000CE10D218414048404140B8BF5B42192B88BF704710F0004F40F4000020F07F4018BF404211F0004F41F4FA
S32D0000CE38000121F07F4118BF494292EA030F3FD0A2F1010241FA03FC10EB0C00C3F1200301FA03F100F000432B
S32D0000CE6002D5494260EB4000B0F5000F13D3B0F1807F06D340084FEA310102F10102FE2A51D2B1F1004F40EB94
S32D0000CE88C25008BF20F0010040EA03007047490040EB000010F4000FA2F10102EDD1B0FA80FCACF1080CB2EB5F
S32D0000CEB00C0200FA0CF0AABF00EBC25052421843BCBFD0401843704792F0000F81F4000106BF80F400000132EB
S32D0000CED8013BB5E74FEA41037FEA226C18BF7FEA236C21D092EA030F04D092F0000F08BF0846704790EA010FD7
S32D0000CF001CBF0020704712F07F4F04D1400028BF40F00040704712F100723CBF00F50000704700F0004343F0DC
S32D0000CF28FE4040F4000070477FEA226216BF08467FEA23630146420206BF5FEA412390EA010F40F480007047C1
S32D0000CF504FF0000304E000BF10F0004348BF40425FEA000C08BF704743F0964301464FF000001CE050EA010264
S32D0000CF7808BF70474FF000030AE000BF50EA010208BF704711F0004302D5404261EB41015FEA010C02BF84465B
S32D0000CFA00146002043F0B64308BFA3F18053A3F50003BCFA8CF2083AA3EBC25310DB01FA02FC634400FA02FC6B
S32D0000CFC8C2F12002BCF1004F20FA02F243EB020008BF20F00100704702F1200201FA02FCC2F1200250EA4C0034
S32D0000CFF021FA02F243EB020008BF20EADC7070474FF0FF0C1CEAD0521EBF1CEAD15392EA0C0F93EA0C0F6FD019
S32D0000D0181A4480EA010C400218BF5FEA41211ED04FF0006343EA501043EA5111A0FB01310CF00040B1F5000FE7
S32D0000D0403EBF490041EAD3715B0040EA010062F17F02FD2A1DD8B3F1004F40EBC25008BF20F00100704790F058
S32D0000D068000F0CF0004C08BF49024CEA502040EA51207F3AC2BFD2F1FF0340EAC250704740F400004FF0000388
S32D0000D090013A5DDC12F1190FDCBF00F000407047C2F10002410021FA02F1C2F1200200FA02FC5FEA310040F1D5
S32D0000D0B8000053EA4C0308BF20EADC70704792F0000F00F0004C02BF400010F4000F013AF9D040EA0C0093F04C
S32D0000D0E0000F01F0004C02BF490011F4000F013BF9D041EA0C018FE70CEAD15392EA0C0F18BF93EA0C0F0AD00B
S32D0000D10830F0004C18BF31F0004CD8D180EA010000F00040704790F0000F17BF90F0004F084691F0000F91F0BB
S32D0000D130004F14D092EA0C0F01D142020FD193EA0C0F03D14B0218BF084608D180EA010000F0004040F0FE4051
S32D0000D15840F40000704740F0FE4040F4400070474FF0FF0C1CEAD0521EBF1CEAD15392EA0C0F93EA0C0F69D044
S32D0000D180A2EB030280EA010C49024FEA402037D04FF0805343EA111143EA10130CF000408B4238BF5B0042F14E
S32D0000D1A87D024FF4000C8B4224BF5B1A40EA0C00B3EB510F24BFA3EB510340EA5C00B3EB910F24BFA3EB9103A4
S32D0000D1D040EA9C00B3EBD10F24BFA3EBD10340EADC001B0118BF5FEA1C1CE0D1FD2A3FF650AF8B4240EBC25018
S32D0000D1F808BF20F0010070470CF0004C4CEA50207F32C2BFD2F1FF0340EAC250704740F400004FF00003013AF1
S32D0000D22037E792F0000F00F0004C02BF400010F4000F013AF9D040EA0C0093F0000F01F0004C02BF490011F4C9
S32D0000D248000F013BF9D041EA0C0195E70CEAD15392EA0C0F08D142027FF47DAF93EA0C0F7FF470AF084676E7AE
S32D0000D27093EA0C0F04D14B023FF44CAF08466EE730F0004C18BF31F0004CCAD130F000427FF45CAF31F0004376
S32D0000D2987FF43CAF5FE700BF4FF0FF3C06E000BF4FF0010C02E000BF4FF0010C4DF804CD4FEA40024FEA41039F
S32D0000D2C07FEA226C18BF7FEA236C11D001B052EA530C18BF90EA010F58BFB2EB030088BFC81738BF6FEAE1706E
S32D0000D2E818BF40F0010070477FEA226C02D15FEA402C05D17FEA236CE4D15FEA412CE1D05DF8040B704700BF16
S32D0000D310844608466146FFE70FB5FFF7C9FF002848BF10F1000F0FBD4DF808EDFFF7F4FF0CBF012000205DF839
S32D0000D33808FB00BF4DF808EDFFF7EAFF34BF012000205DF808FB00BF4DF808EDFFF7E0FF94BF012000205DF8A9
S32D0000D36008FB00BF4DF808EDFFF7D2FF94BF012000205DF808FB00BF4DF808EDFFF7C8FF34BF012000205DF8B1
S32D0000D38808FB00BF4FEA4002B2F1FE4F0FD34FF09E03B3EB12620DD94FEA002343F0004310F0004F23FA02F060
S32D0000D3B018BF404270474FF00000704712F1610F01D1420205D110F0004008BF6FF0004070474FF00000704797
S32D0000D3D842000ED2B2F1FE4F0BD34FF09E03B3EB126209D44FEA002343F0004323FA02F070474FF000007047DA
S32D0000D40012F1610F01D1420202D14FF0FF3070474FF00000704700BF80B582B000AF786078680EF01DF903469D
S32D0000D428184607F10807BD4680BD00BF80B582B000AF786078680EF02FFA0346184607F10807BD4680BD00BFD0
S32D0000D45080B582B000AF786078680EF0B3FA0346184607F10807BD4680BD00BF80B582B000AF786078680EF0BC
S32D0000D4785FFA0346184607F10807BD4680BD00BF80B582B000AF786039603868FFF760FD0346786819460EF080
S32D0000D4A08FFA0346184607F10807BD4680BD00BF80B483B000AF78607B6823F00043184607F10C07BD4680BC59
S32D0000D4C8704700BF0000000080B582B000AF78607868FFF7FDF802460B461046194608A3D3E90023FFF748F9F8
S32D0000D4F002460B4610461946FFF724FC0346184607F10807BD4680BDF8C1631ADCA54C4080B582B000AF78608B
S32D0000D5187868FFF7DDF802460B461046194608A3D3E90023FFF728F902460B4610461946FFF704FC0346184660
S32D0000D54007F10807BD4680BD399D52A246DF913F98B500AF41F2E840C1F6FF700DF0D6FD03464FF00102144685
S32D0000D56818469449FFF7FAFE0346002B02D14FF000031C46E3B2002B19D041F2E840C1F6FF700DF0BFFD034655
S32D0000D5904FF00102144618468949FFF7CFFE0346002B02D14FF000031C46E3B2002B02D04FF0010301E04FF0FE
S32D0000D5B80003002B20D041F2E840C1F6FF700DF081FD044641F2E840C1F6FF700DF09AFD03461846FFF798FF98
S32D0000D5E003461846FFF726FF034618467349FFF707FD034620461946FFF7FAFB0346DAE041F2E840C1F6FF7081
S32D0000D6080DF080FD03464FF00102144618466A49FFF7A4FE0346002B02D14FF000031C46E3B2002B19D041F225
S32D0000D630E840C1F6FF700DF069FD03464FF00102144618465F49FFF779FE0346002B02D14FF000031C46E3B243
S32D0000D658002B02D04FF0010301E04FF00003002B25D041F2E840C1F6FF700DF02BFD044641F2E840C1F6FF70B0
S32D0000D6800DF044FD034618464D49FFF7AFFB03461846FFF73DFF03461846FFF7E7FE034618464649FFF7ACFC32
S32D0000D6A8034620461946FFF79DFB03467FE041F2E840C1F6FF700DF025FD03464FF00102144618463D49FFF7B1
S32D0000D6D049FE0346002B02D14FF000031C46E3B2002B19D041F2E840C1F6FF700DF00EFD03464FF001021446E3
S32D0000D6F818463349FFF71EFE0346002B02D14FF000031C46E3B2002B02D04FF0010301E04FF00003002B25D015
S32D0000D72041F2E840C1F6FF700DF0D0FC044641F2E840C1F6FF700DF0E9FC034618462149FFF754FB03461846E7
S32D0000D748FFF7E2FE03461846FFF770FE034618461849FFF751FC034620461946FFF742FB034624E041F2E8409E
S32D0000D770C1F6FF700DF0AAFC044641F2E840C1F6FF700DF0C3FC034618460F49FFF72EFB03461846FFF7BCFEC6
S32D0000D79803461846FFF766FE034618460549FFF72BFC034620461946FFF71EFB0346184698BD00BF0000000078
S32D0000D7C00000B442000034430000874398B500AF41F2E840C1F6FF700DF098FC03464FF00102144618469449D6
S32D0000D7E8FFF7BCFD0346002B02D14FF000031C46E3B2002B19D041F2E840C1F6FF700DF081FC03464FF001024A
S32D0000D810144618468949FFF791FD0346002B02D14FF000031C46E3B2002B02D04FF0010301E04FF00003002BCE
S32D0000D83820D041F2E840C1F6FF700DF053FC044641F2E840C1F6FF700DF05CFC03461846FFF75AFE0346184649
S32D0000D860FFF704FE034618467349FFF7C9FB034620461946FFF7BCFA0346DAE041F2E840C1F6FF700DF042FC0C
S32D0000D88803464FF00102144618466A49FFF766FD0346002B02D14FF000031C46E3B2002B19D041F2E840C1F67D
S32D0000D8B0FF700DF02BFC03464FF00102144618465F49FFF73BFD0346002B02D14FF000031C46E3B2002B02D021
S32D0000D8D84FF0010301E04FF00003002B25D041F2E840C1F6FF700DF0FDFB044641F2E840C1F6FF700DF006FC5C
S32D0000D900034618464D49FFF771FA03461846FFF7FFFD03461846FFF78DFD034618464649FFF76EFB0346204657
S32D0000D9281946FFF761FA03467FE041F2E840C1F6FF700DF0E7FB03464FF00102144618463D49FFF70BFD034609
S32D0000D950002B02D14FF000031C46E3B2002B19D041F2E840C1F6FF700DF0D0FB03464FF0010214461846334956
S32D0000D978FFF7E0FC0346002B02D14FF000031C46E3B2002B02D04FF0010301E04FF00003002B25D041F2E84051
S32D0000D9A0C1F6FF700DF0A2FB044641F2E840C1F6FF700DF0ABFB034618462149FFF716FA03461846FFF7A4FDD6
S32D0000D9C803461846FFF74EFD034618461849FFF713FB034620461946FFF704FA034624E041F2E840C1F6FF706D
S32D0000D9F00DF07CFB044641F2E840C1F6FF700DF085FB034618460F49FFF7F0F903461846FFF77EFD03461846B0
S32D0000DA18FFF70CFD034618460549FFF7EDFA034620461946FFF7DEF90346184698BD00BF000000000000B44283
S32D0000DA40000034430000874380B500AF41F2E840C1F6FF700DF03AFB034618464249FFF763FC0346002B10D104
S32D0000DA6841F2E840C1F6FF700DF02CFB034618463C49FFF755FC0346002B02D14FF0010301E04FF00003002BA0
S32D0000DA900BD041F2E840C1F6FF700DF017FB024641F28413C1F6FF731A6041F2E840C1F6FF700DF01BFB03466B
S32D0000DAB818462B49FFF734FC0346002B10D141F2E840C1F6FF700DF00DFB034618462549FFF726FC0346002BCC
S32D0000DAE002D14FF0010301E04FF00003002B0BD041F2E840C1F6FF700DF0F8FA024641F28813C1F6FF731A60B0
S32D0000DB0841F2E840C1F6FF700DF0FCFA034618461349FFF705FC0346002B10D141F2E840C1F6FF700DF0EEFAC6
S32D0000DB30034618460D49FFF7F7FB0346002B02D14FF0010301E04FF00003002B0BD041F2E840C1F6FF700DF0B1
S32D0000DB58D9FA024641F28C13C1F6FF731A6080BD000080BF000000C080B500AF6AE041F2E840C1F6FF700DF027
S32D0000DB80A5FA034618466449FFF7CEFB0346002B1BD141F2E840C1F6FF700DF0A7FA034618465D49FFF7C0FB48
S32D0000DBA80346002B0DD141F2E840C1F6FF700DF0A9FA034618465649FFF7B2FB0346002B02D04FF0010301E089
S32D0000DBD04FF00003002B05D04DA1D1E9000108F05FF833E041F2E840C1F6FF700DF06EFA034618464949FFF7C5
S32D0000DBF897FB0346002B1BD141F2E840C1F6FF700DF070FA034618464249FFF789FB0346002B0DD141F2E840CC
S32D0000DC20C1F6FF700DF072FA034618463B49FFF77BFB0346002B02D04FF0010301E04FF00003002B02D06FF0A8
S32D0000DC4801035DE041F2E840C1F6FF700DF03AFA034618462E49FFF763FB0346002B45D141F2E840C1F6FF703E
S32D0000DC700DF03CFA034618462749FFF755FB0346002B37D141F2E840C1F6FF700DF03EFA034618462049FFF7BE
S32D0000DC9847FB0346002B29D141F2E840C1F6FF700DF010FA034618461A49FFF739FB0346002B1BD141F2E84037
S32D0000DCC0C1F6FF700DF012FA034618461349FFF72BFB0346002B0DD141F2E840C1F6FF700DF014FA0346184663
S32D0000DCE80C49FFF71DFB0346002B02D04FF0010301E04FF00003002B7FF439AF4FF00003184680BDAFF300807A
S32D0000DD107B14AE47E17A843F000080BF000000C090B585B000AFF860B9607A603B607868F968FFF75BF8034662
S32D0000DD3818464FF00201FFF7A3FB04463868B968FFF750F8034618464FF00201FFF798FB034620461946FFF7CA
S32D0000DD6047F803461846FFF773FB0346184607F11407BD4690BD00BF80B500AF41F28040C1F6FF704FF0000145
S32D0000DD8809F0E0FB41F28040C1F6FF704FF0010109F036FC80BD00BF90B585B000AF786039604FF001031C46D9
S32D0000DDB078683968FFF7E0FA0346002B02D14FF000031C46E3B2002B06D078683968FFF70DF80346FB6010E063
S32D0000DDD878682849FFF708F803461C4626483968FFF700F8034620461946FEF7FDFF0346FB604FF001031C46E6
S32D0000DE0078683968FFF7B8FA0346002B02D14FF000031C46E3B2002B11D038681749FEF7E7FF03461C4616485B
S32D0000DE287968FEF7DFFF034620461946FEF7DCFF0346BB6005E038687968FEF7D3FF0346BB604FF001031C46A0
S32D0000DE50F868B968FFF77CFA0346002B02D14FF000031C46E3B2002B01D0FB6800E0BB68184607F11407BD4661
S32D0000DE7890BD00BF000000000000B44390B587B000AFF860B9607A603B607868F968FEF7A9FF03467B613868C5
S32D0000DEA0B968FEF7A3FF03463B614FF001031C4678696649FFF760FA0346002B02D14FF000031C46E3B2002B87
S32D0000DEC82AD04FF001031C4638695E49FFF750FA0346002B02D14FF000031C46E3B2002B1AD03869FFF7E0FAFF
S32D0000DEF004467869FFF7DCFA034620461946FFF733F903461846FFF787FA03461846FFF7DFFA034618464D490C
S32D0000DF18FEF76AFF03468FE04FF001031C4678694849FFF711FA0346002B02D14FF000031C46E3B2002B2AD008
S32D0000DF404FF001031C4638694049FFF715FA0346002B02D14FF000031C46E3B2002B1AD07869FFF7A5FA04468A
S32D0000DF683869FFF7A1FA034620461946FFF7F8F803461846FFF74CFA03461846FFF7A4FA034618463049FEF732
S32D0000DF902FFF034654E04FF001031C4678692B49FFF7D6F90346002B02D14FF000031C46E3B2002B2AD04FF015
S32D0000DFB801031C4638692349FFF7C6F90346002B02D14FF000031C46E3B2002B1AD03869FFF76AFA0446786958
S32D0000DFE0FFF766FA034620461946FFF7BDF803461846FFF711FA03461846FFF769FA034618461449FEF7F4FE71
S32D0000E008034619E07869FFF74FFA04463869FFF74BFA034620461946FFF7A2F803461846FFF7F6F90346184691
S32D0000E030FFF74EFA034618460749FEF7D9FE0346184607F11C07BD4690BD00BF000000000000B4420000344383
S32D0000E0580000874390B585B000AF786039604FF001031C4678683968FFF782F90346002B02D14FF000031C46B4
S32D0000E080E3B2002B06D078683968FEF7AFFE0346FB6010E078682549FEF7AAFE03461C4623483968FEF7A2FEEE
S32D0000E0A8034620461946FEF79FFE0346FB604FF001031C4678683968FFF75AF90346002B02D14FF000031C46AC
S32D0000E0D0E3B2002B11D038681449FEF789FE03461C4613487968FEF781FE034620461946FEF77EFE0346BB60CA
S32D0000E0F805E038687968FEF775FE0346BB604FF001031C46B868F968FFF71EF90346002B02D14FF000031C46AA
S32D0000E120E3B2184607F11407BD4690BD000000000000B4430000000080B582B000AF10E0FFF71AFE41F280407D
S32D0000E148C1F6FF704DF6E071C0F2010109F094FC0DA1D1E9000107F09FFD07F104023B4641F28040C1F6FF701E
S32D0000E17011461A4609F0F0FA034683F00103DBB2002BDDD107F10807BD4680BDAFF300809A9999999999B93FC9
S32D0000E1982DE9B04F8CB006AFF860B9607A603B6041F20850C1F6FF704DF6FC71C0F201010DF08CF941F208504B
S32D0000E1C0C1F6FF704EF22001C0F201010DF082F941F20850C1F6FF704EF24001C0F201010DF078F9F868FEF7D5
S32D0000E1E877FA04460D46B868FEF772FA02460B46CDE9002341F20850C1F6FF704EF27001C0F2010122462B4619
S32D0000E2100DF060F97868FEF75FFA02460B4641F20850C1F6FF704EF29401C0F201010DF051F93868FEF750FA63
S32D0000E23802460B4641F20850C1F6FF704EF2B801C0F201010DF042F997F8383041F20850C1F6FF704EF2E401BC
S32D0000E260C0F201011A460DF035F9F86BFEF734FA02460B4641F20850C1F6FF704EF22411C0F201010DF026F93C
S32D0000E28897F8403041F20850C1F6FF704EF24011C0F201011A460DF019F9786CFEF718FA02460B4641F20850F5
S32D0000E2B0C1F6FF704EF26C11C0F201010DF00AF997F8483041F20850C1F6FF704EF28411C0F201011A460DF00B
S32D0000E2D8FDF8FFF749FC034613F1020F14BF00230123DBB2002B30D041F20850C1F6FF704EF2BC11C0F2010146
S32D0000E3000DF0E8F841F28013C1F6FF734FF001021A7041F20850C1F6FF704EF2EC11C0F201010DF0D7F841F2B6
S32D0000E3288413C1F6FF73196841F28813C1F6FF731A6841F28C13C1F6FF731B68084611461A4600F089FD00F024
S32D0000E35079BDF868B96800F04FFE41F20850C1F6FF704EF22421C0F201010DF0B3F84FF000037B6100F012BD3C
S32D0000E378FFF766FB97F84030002B3ED041F20850C1F6FF704EF25421C0F201017A690DF09DF8786CDFF8A815E1
S32D0000E3A0FEF72EFE03461846FEF796F902460B4641F20850C1F6FF704EF28021C0F201010DF088F87B6903F1CF
S32D0000E3C801037B617869FEF7C3FD0546786CDFF87015FEF711FE03464FF00102144628461946FEF7C5FF03466E
S32D0000E3F0002B02D14FF000031C46E3B2002B40F0EC84FFF721FBFFF7A3F80446FFF7DEF9034620461946FA68D3
S32D0000E418BB68FFF733FD03463B61FFF7A9FC41F2E840C1F6FF700CF04DFE03461846FEF74FF904460D4641F291
S32D0000E440E840C1F6FF700CF051FE03461846FEF743F982468B46F868FEF73EF980468946B868FEF739F90246F4
S32D0000E4680B46CDE900ABCDE90289CDE9042341F20850C1F6FF704EF2A821C0F2010122462B460DF023F841F224
S32D0000E490E840C1F6FF700CF039FE03461846FEF71BF904460D463869FEF716F902460B46CDE9002341F20850EE
S32D0000E4B8C1F6FF704EF2D021C0F2010122462B460DF004F841F2E840C1F6FF700CF01AFE034618463969FFF785
S32D0000E4E05FFC03464FF0010214461846DFF85C14FEF742FF0346002B02D14FF000031C46E3B2002B00F0E683EF
S32D0000E50841F20850C1F6FF704EF2F421C0F201010CF0DCFFFFF718F80446FFF753F9034620461946FA68BB682F
S32D0000E530FFF7F6FB03464FF0010214461846DFF81014FEF719FF0346002B02D14FF000031C46E3B2002B1ED0F2
S32D0000E55841F2E840C1F6FF700CF0D4FD034618463969FFF719FC03464FF0010214461846F649FEF7F3FE034642
S32D0000E580002B02D14FF000031C46E3B2002B02D04FF0010301E04FF00003002B1AD041F20850C1F6FF704EF2CD
S32D0000E5A83831C0F201010CF091FF41F21C10C1F6FF7002F059FA41F22410C1F6FF7002F053FAF868B96800F095
S32D0000E5D013FDA1E341F2E840C1F6FF700CF096FD034618463969FFF739FD0346002B00F0B98141F2E840C1F654
S32D0000E5F8FF700CF087FD034618463969FFF7CCFB03464FF0010214461846D149FEF7A6FE0346002B02D14FF084
S32D0000E62000031C46E3B2002B1ED041F2E840C1F6FF700CF06BFD034618463969FFF7B0FB03464FF00102144605
S32D0000E6481846BF49FEF776FE0346002B02D14FF000031C46E3B2002B02D04FF0010301E04FF00003002B4AD0AD
S32D0000E67041F2E840C1F6FF700CF048FD03461846FEF72AF804460D463869FEF725F802460B46CDE9002341F207
S32D0000E6980850C1F6FF704EF27431C0F2010122462B460CF013FF3868AA49FEF7A5FC03461846FEF70DF8024644
S32D0000E6C00B46104619469AA3D3E90023FEF758F802460B4610461946FEF734FB034641F21C10C1F6FF70194626
S32D0000E6E802F012FA38689B49FEF786FC034641F22410C1F6FF70194602F006FA08E341F2E840C1F6FF700CF07C
S32D0000E710FDFC034618463969FFF742FB03464FF00102144618468849FEF71CFE0346002B02D14FF000031C4658
S32D0000E738E3B2002B1ED041F2E840C1F6FF700CF0E1FC034618463969FFF726FB03464FF001021446184680493F
S32D0000E760FEF7ECFD0346002B02D14FF000031C46E3B2002B02D04FF0010301E04FF00003002B4AD041F2E8402A
S32D0000E788C1F6FF700CF0BEFC03461846FDF7A0FF04460D463869FDF79BFF02460B46CDE9002341F20850C1F6CD
S32D0000E7B0FF704EF2D831C0F2010122462B460CF089FE38686549FEF71BFC03461846FDF783FF02460B4610460D
S32D0000E7D8194657A3D3E90023FDF7CEFF02460B4610461946FEF7AAFA034641F21C10C1F6FF70194602F088F993
S32D0000E80038685649FEF7FCFB034641F22410C1F6FF70194602F07CF97EE241F2E840C1F6FF700CF073FC03468E
S32D0000E82818463969FFF7B8FA03464FF00102144618464949FEF792FD0346002B02D14FF000031C46E3B2002B16
S32D0000E8501ED041F2E840C1F6FF700CF057FC034618463969FFF79CFA03464FF00102144618463849FEF762FDEF
S32D0000E8780346002B02D14FF000031C46E3B2002B02D04FF0010301E04FF00003002B00F03F8241F2E840C1F6A1
S32D0000E8A0FF700CF033FC03461846FDF715FF04460D463869FDF710FF02460B46CDE9002341F20850C1F6FF709D
S32D0000E8C84EF23C41C0F2010122462B460CF0FEFD38682049FEF790FB03461846FDF7F8FE02460B461046194679
S32D0000E8F013A3D3E90023FDF743FF02460B4610461946FEF71FFA034641F21C10C1F6FF70194602F0FDF838681F
S32D0000E9181049FEF771FB034641F22410C1F6FF70194602F0F1F8F3E19A9999999999E93F666666666666E63FEB
S32D0000E940333333333333E33F000020410000A0400000803F0000F041000000000000C8420000A04141F2E840DE
S32D0000E968C1F6FF700CF0CEFB034618463969FFF713FA03464FF0010214461846CE49FEF7EDFC0346002B02D1CB
S32D0000E9904FF000031C46E3B2002B1ED041F2E840C1F6FF700CF0B2FB034618463969FFF7F7F903464FF0010223
S32D0000E9B814461846C149FEF7BDFC0346002B02D14FF000031C46E3B2002B02D04FF0010301E04FF00003002BB3
S32D0000E9E04AD041F2E840C1F6FF700CF08FFB03461846FDF771FE04460D463869FDF76CFE02460B46CDE90023D0
S32D0000EA0841F20850C1F6FF704EF27431C0F2010122462B460CF05AFD3868A949FEF7ECFA034641F21C10C1F69E
S32D0000EA30FF70194602F06CF83868A349FEF7E0FA03461846FDF748FE02460B461046194695A3D3E90023FDF7FF
S32D0000EA5893FE02460B4610461946FEF76FF9034641F22410C1F6FF70194602F04DF84FE141F2E840C1F6FF7037
S32D0000EA800CF044FB034618463969FFF789F903464FF00102144618468A49FEF763FC0346002B02D14FF0000379
S32D0000EAA81C46E3B2002B1ED041F2E840C1F6FF700CF028FB034618463969FFF76DF903464FF0010214461846A8
S32D0000EAD07E49FEF733FC0346002B02D14FF000031C46E3B2002B02D04FF0010301E04FF00003002B4AD041F2D2
S32D0000EAF8E840C1F6FF700CF005FB03461846FDF7E7FD04460D463869FDF7E2FD02460B46CDE9002341F2085019
S32D0000EB20C1F6FF704EF2D831C0F2010122462B460CF0D0FC38686449FEF762FA034641F21C10C1F6FF70194638
S32D0000EB4801F0E2FF38685E49FEF756FA03461846FDF7BEFD02460B461046194652A3D3E90023FDF709FE024686
S32D0000EB700B4610461946FEF7E5F8034641F22410C1F6FF70194601F0C3FFC5E041F2E840C1F6FF700CF0BAFAE1
S32D0000EB98034618463969FFF7FFF803464FF00102144618464749FEF7D9FB0346002B02D14FF000031C46E3B2FD
S32D0000EBC0002B1ED041F2E840C1F6FF700CF09EFA034618463969FFF7E3F803464FF00102144618463A49FEF724
S32D0000EBE8A9FB0346002B02D14FF000031C46E3B2002B02D04FF0010301E04FF00003002B00F0868041F2E840FC
S32D0000EC10C1F6FF700CF07AFA03461846FDF75CFD04460D463869FDF757FD02460B46CDE9002341F20850C1F612
S32D0000EC38FF704EF23C41C0F2010122462B460CF045FC38681E49FEF7D7F9034641F21C10C1F6FF70194601F0CE
S32D0000EC6057FF38681849FEF7CBF903461846FDF733FD02460B46104619460FA3D3E90023FDF77EFD02460B46C4
S32D0000EC8810461946FEF75AF8034641F22410C1F6FF70194601F038FF3AE000BFAFF300809A9999999999E93F4B
S32D0000ECB0666666666666E63F333333333333E33F00000000000020410000C8420000A0410000F04141F2085051
S32D0000ECD8C1F6FF704EF2A041C0F201010CF0F6FB38685B49FEF788F9034641F21C10C1F6FF70194601F008FF47
S32D0000ED0038685549FEF77CF9034641F22410C1F6FF70194601F0FCFEFEF796FE4CA1D1E9000106F0BDFFFEF745
S32D0000ED2823FF034613F1020F14BF00230123DBB2002B2FD041F20850C1F6FF704EF2BC11C0F201010CF0C2FB41
S32D0000ED5041F28013C1F6FF734FF001021A7041F20850C1F6FF704EF2EC11C0F201010CF0B1FB41F28413C1F60F
S32D0000ED78FF73196841F28813C1F6FF731A6841F28C13C1F6FF731B68084611461A4600F063F853E0FEF7D8FB38
S32D0000EDA00446FEF713FD034620461946FA68BB68FEF7B6FF03464FF00102144618467968FEF7DAFA0346002B58
S32D0000EDC802D14FF000031C46E3B2002B7FF4D0AA00E000BF41F20850C1F6FF704EF2F041C0F201010CF072FB1B
S32D0000EDF041F21C10C1F6FF7001F03AFE41F22410C1F6FF7001F034FE4FF000004FF07E5101F5C00106F044FF5A
S32D0000EE1897F83830002B11D0F86BFDF759FC02460B4641F20850C1F6FF704EF22451C0F201010CF04BFBF86BC5
S32D0000EE4000F0F6F807F11807BD46BDE8B08F00BFFCA9F1D24D62503F0000C842AFF3008090B585B000AFF860B6
S32D0000EE68B9607A6041F28413C1F6FF731B684FF00102144618465649FEF75CFA0346002B02D14FF000031C4644
S32D0000EE90E3B2002B14D141F28413C1F6FF731B684FF00102144618464C49FEF765FA0346002B02D14FF00003CD
S32D0000EEB81C46E3B2002B09D041F28C13C1F6FF731B681846444900F0B7FB2EE041F28C13C1F6FF731B6818463C
S32D0000EEE03F4900F0ADFB41F21C10C1F6FF703D4901F00EFE41F22410C1F6FF70394901F007FE4FF000004FF059
S32D0000EF087E5101F5E00106F0C7FE41F21C10C1F6FF7001F0A9FD41F22410C1F6FF7001F0A3FD2D482E4900F064
S32D0000EF3087FB41F21C10C1F6FF702C4901F0E8FD41F22410C1F6FF70284901F0E1FD04E01FA1D1E9000106F03F
S32D0000EF58A3FE41F2E840C1F6FF700CF0B3F8034618462149FEF7DCF90346002B0DD141F2E840C1F6FF700CF018
S32D0000EF80A5F8034618461B49FEF7CEF90346002B02D04FF0010301E04FF00003002BD7D14FF000004FF07E5133
S32D0000EFA801F5E00106F078FE41F21C10C1F6FF7001F05AFD41F22410C1F6FF7001F054FD07F11407BD4690BDF9
S32D0000EFD07B14AE47E17A843F00000041000080410000000000004842000087430000C842000080BF000000C012
S32D0000EFF890B583B000AF78603960FEF7A5FA0446FEF7E0FB0346204619467A683B68FEF735FF0346184600F052
S32D0000F02007F807F10C07BD4690BD00BF00000000B0B584B002AF786041F2E840C1F6FF700CF064F80346184607
S32D0000F048FDF746FB04460D467868FDF741FB02460B46CDE9002341F20850C1F6FF704EF26C51C0F2010122467C
S32D0000F0702B460CF02FFAFEF77BFD034613F1020F14BF00230123DBB2002B00F0938241F20850C1F6FF704EF249
S32D0000F098BC11C0F201010CF019FA41F28013C1F6FF734FF001021A7041F20850C1F6FF704EF2EC11C0F201015D
S32D0000F0C00CF008FA41F28413C1F6FF73196841F28813C1F6FF731A6841F28C13C1F6FF731B68084611461A46B4
S32D0000F0E8FFF7BAFE96E2FEF7ABFC41F2E840C1F6FF700CF007F803461846FDF7E9FA04460D467868FDF7E4FAEF
S32D0000F11002460B46CDE9002341F20850C1F6FF704EF2B051C0F2010122462B460CF0D2F941F2E840C1F6FF7098
S32D0000F1380BF0E8FF034618467968FEF78BFF0346002B00F0F08041F2E840C1F6FF700BF0D9FF03461846FDF7FD
S32D0000F160BBFA04460D467868FDF7B6FA02460B46CDE9002341F20850C1F6FF704EF22061C0F2010122462B463A
S32D0000F1880CF0A4F941F2E840C1F6FF700BF0BAFF034618467968FEF7FFFD03464FF0010214461846C449FEF7CD
S32D0000F1B0E3F80346002B02D14FF000031C46E3B2002B32D041F20850C1F6FF704EF27061C0F201010CF07EF9C0
S32D0000F1D84FF29C23C0F201031B6883F000431846FDF776FA02460B4610461946ACA3D3E90023FDF7C1FA0246E5
S32D0000F2000B4610461946FDF79DFD034641F21C10C1F6FF70194601F07BFC41F22410C1F6FF70A74901F074FCD9
S32D0000F22884E141F2E840C1F6FF700BF06BFF034618467968FEF7B0FD03464FF00102144618469E49FEF794F898
S32D0000F2500346002B02D14FF000031C46E3B2002B32D041F20850C1F6FF704EF2C461C0F201010CF02FF94FF2B4
S32D0000F2789C23C0F201031B6883F000431846FDF727FA02460B461046194687A3D3E90023FDF772FA02460B46F7
S32D0000F2A010461946FDF74EFD034641F21C10C1F6FF70194601F02CFC41F22410C1F6FF70814901F025FC35E187
S32D0000F2C841F20850C1F6FF704EF22471C0F201010CF0FCF84FF29C23C0F201031B6883F000431846FDF7F4F9C0
S32D0000F2F002460B46104619466FA3D3E90023FDF73FFA02460B4610461946FDF71BFD034641F21C10C1F6FF705C
S32D0000F318194601F0F9FB41F22410C1F6FF70694901F0F2FB02E141F2E840C1F6FF700BF0E9FE03461846FDF785
S32D0000F340CBF904460D467868FDF7C6F902460B46CDE9002341F20850C1F6FF704EF27871C0F2010122462B46D2
S32D0000F3680CF0B4F841F2E840C1F6FF700BF0CAFE034618467968FEF70FFD03464FF00102144618464C49FDF736
S32D0000F390F3FF0346002B02D14FF000031C46E3B2002B32D041F20850C1F6FF704EF2C871C0F201010CF08EF850
S32D0000F3B841F21C10C1F6FF703F4901F0A5FB4FF2A023C0F201031B6883F000431846FDF77FF902460B461046DD
S32D0000F3E0194631A3D3E90023FDF7CAF902460B4610461946FDF7A6FC034641F22410C1F6FF70194601F084FBAD
S32D0000F40894E041F2E840C1F6FF700BF07BFE034618467968FEF7C0FC03464FF00102144618462649FDF7A4FFEB
S32D0000F4300346002B02D14FF000031C46E3B2002B46D041F20850C1F6FF704EF2C871C0F201010CF03FF841F2A9
S32D0000F4581C10C1F6FF701A4901F056FB4FF2A023C0F201031B6883F000431846FDF730F902460B4610461946D3
S32D0000F4800BA3D3E90023FDF77BF902460B4610461946FDF757FC034641F22410C1F6FF70194601F035FB45E059
S32D0000F4A8333333333333E33F9A9999999999D93F9A9999999999C93F000070420000F041000020420000A0416E
S32D0000F4D041F20850C1F6FF704EF22471C0F201010BF0F8FF41F21C10C1F6FF70524901F00FFB4FF2A023C0F211
S32D0000F4F801031B6883F000431846FDF7E9F802460B461046194646A3D3E90023FDF734F902460B4610461946F1
S32D0000F520FDF710FC034641F22410C1F6FF70194601F0EEFA3EA1D1E9000106F0B1FBFEF717FB034613F1020F0E
S32D0000F54814BF00230123DBB2002B30D041F20850C1F6FF704EF2BC11C0F201010BF0B6FF41F28013C1F6FF73B2
S32D0000F5704FF001021A7041F20850C1F6FF704EF2EC11C0F201010BF0A5FF41F28413C1F6FF73196841F288131E
S32D0000F598C1F6FF731A6841F28C13C1F6FF731B68084611461A46FFF757FC33E000BF41F2E840C1F6FF700BF080
S32D0000F5C0A5FD034618467968FEF7EAFB03464FF00102144618461949FDF7CEFE0346002B02D14FF000031C46C9
S32D0000F5E8E3B2002B7FF47FAD41F20850C1F6FF704EF61401C0F201010BF068FF41F21C10C1F6FF7001F030FAD6
S32D0000F61041F22410C1F6FF7001F02AFA07F10807BD46B0BDAFF300809A9999999999C93F7B14AE47E17A843F50
S32D0000F6380000A0410000404080B582B000AF7860396078683968FEF705FD0346002B1AD04FF29C23C0F2010330
S32D0000F6601B6883F0004318461E49FDF7C9FC034641F21C10C1F6FF70194601F049FA41F22410C1F6FF70184976
S32D0000F68801F042FA19E041F21C10C1F6FF70144901F03AFA4FF29C23C0F201031B6883F0004318460D49FDF790
S32D0000F6B0A7FC034641F22410C1F6FF70194601F027FA78683968FEF76BFB034618460749FDF796FC0346184642
S32D0000F6D806F0BEFA07F10807BD4680BD0000803E0000C8410473ED3B80B500AF41F20850C1F6FF704EF67C0153
S32D0000F700C0F201010BF0E6FE41F20850C1F6FF700BF0C4FE80BD00BF80B500AF41F20850C1F6FF704EF6A40160
S32D0000F728C0F201010BF0D2FE41F2E840C1F6FF700AF0F8FF41F20850C1F6FF700BF0D8FD80BD00BF80B500AF61
S32D0000F75041F20850C1F6FF704EF6C801C0F201010BF0B8FEFEF7E8FCFEF702FA41F2E840C1F6FF700BF0AAFC7C
S32D0000F778024641F24413C1F6FF731A6041F2E840C1F6FF700BF0AEFC024641F24813C1F6FF731A6041F2E840F4
S32D0000F7A0C1F6FF700BF0B2FC024641F24C13C1F6FF731A6041F24413C1F6FF731B681846FCF78AFF02460B4646
S32D0000F7C841F20850C1F6FF704EF6EC01C0F201010BF07CFE41F24813C1F6FF731B681846FCF776FF02460B466F
S32D0000F7F041F20850C1F6FF704EF6FC01C0F201010BF068FE41F24C13C1F6FF731B681846FCF762FF02460B465B
S32D0000F81841F20850C1F6FF704EF60C11C0F201010BF054FE4FF000004FF07E5101F5E00106F032FAFEF77CFCFC
S32D0000F840FEF796F941F2E840C1F6FF700BF03EFC024641F25013C1F6FF731A6041F2E840C1F6FF700BF042FC25
S32D0000F868024641F25413C1F6FF731A6041F25013C1F6FF731B681846FCF72AFF02460B4641F20850C1F6FF70E7
S32D0000F8904EF62011C0F201010BF01CFE41F25413C1F6FF731B681846FCF716FF02460B4641F20850C1F6FF7016
S32D0000F8B84EF63411C0F201010BF008FE4FF000004FF07E5101F5E00106F0E6F9FEF730FCFEF74AF941F2E84037
S32D0000F8E0C1F6FF700BF0F2FB024641F25813C1F6FF731A6041F2E840C1F6FF700BF0F6FB024641F25C13C1F655
S32D0000F908FF731A6041F2E840C1F6FF700BF0FAFB024641F26013C1F6FF731A6041F25813C1F6FF731B6818463B
S32D0000F930FCF7D2FE02460B4641F20850C1F6FF704EF64011C0F201010BF0C4FD41F25C13C1F6FF731B681846EB
S32D0000F958FCF7BEFE02460B4641F20850C1F6FF704EF65411C0F201010BF0B0FD41F26013C1F6FF731B681846D3
S32D0000F980FCF7AAFE02460B4641F20850C1F6FF704EF66811C0F201010BF09CFD4FF000004FF07E5101F5E0014B
S32D0000F9A806F07AF9FEF7C4FBFEF7DEF841F2E840C1F6FF700BF086FB024641F26413C1F6FF731A6041F2E8405C
S32D0000F9D0C1F6FF700BF08AFB024641F26813C1F6FF731A6041F26413C1F6FF731B681846FCF772FE02460B461A
S32D0000F9F841F20850C1F6FF704EF68411C0F201010BF064FD41F26813C1F6FF731B681846FCF75EFE02460B46A7
S32D0000FA2041F20850C1F6FF704EF69C11C0F201010BF050FD4FF000004FF07E5101F5E00106F02EF9FEF778FB71
S32D0000FA48FEF792F841F2E840C1F6FF700BF03AFB024641F27413C1F6FF731A6041F2E840C1F6FF700BF03EFB06
S32D0000FA70024641F27813C1F6FF731A6041F2E840C1F6FF700BF042FB024641F27C13C1F6FF731A6041F274139F
S32D0000FA98C1F6FF731B681846FCF71AFE02460B4641F20850C1F6FF704EF6B411C0F201010BF00CFD41F2781362
S32D0000FAC0C1F6FF731B681846FCF706FE02460B4641F20850C1F6FF704EF6C411C0F201010BF0F8FC41F22C10A2
S32D0000FAE8C1F6FF70024906F0CBFFFEF741F980BD0000F0410000000090B583B000AFFFF707FEFFF71FFE41F2BA
S32D0000FB102C10C1F6FF70324906F0B6FF4FF000037B601EE07B6803F101037B60FEF724F941F28040C1F6FF7043
S32D0000FB384EF6D411C0F2010107F09EFF41F20850C1F6FF704EF6F011C0F201010BF0BEFC1DA1D1E9000106F060
S32D0000FB609FF841F24010C1F6FF7006F0C5FB03461846FCF7B1FD02460B464FF001010C461046194614A3D3E9E5
S32D0000FB880023FDF789F80346002B02D14FF000031C46E3B2002B07D07A6840F22B139A4202DC4FF0010301E005
S32D0000FBB04FF00003002BB5D100F016F8FFF798FD4FF00003184607F10C07BD4690BD00BF9A9999999999B93F62
S32D0000FBD8CDCCCCCCCCCCDC3F0000F041AFF30080B0B586B006AF41F20850C1F6FF704EF60C21C0F201010BF0A7
S32D0000FC0069FC41F24413C1F6FF73196841F24813C1F6FF731A6841F24C13C1F6FF731B684FF001000090019362
S32D0000FC284FF000030293DFF83C3803934FF00003049308461146DFF83028DFF83038FEF7A7FA41F20850C1F632
S32D0000FC50FF704EF62021C0F201010BF03BFC41F22C10C1F6FF70DFF8101806F00DFF4FF000004FF07E5101F5D3
S32D0000FC78E00106F011F841F22C10C1F6FF70DFF8F41706F0FDFE41F20850C1F6FF704EF63421C0F201010BF01D
S32D0000FCA019FC4FF000030093DFF8C03701934FF000030293DFF8B43703934FF000030493DFF8BC07DFF8BC179E
S32D0000FCC8DFF8A427DFF8A437FEF762FA41F20850C1F6FF704EF66021C0F201010BF0F6FB41F25013C1F6FF7394
S32D0000FCF01B681846DFF89017FDF778F803461A4641F25413C1F6FF731B684FF000010091DFF8581701914FF04C
S32D0000FD1800010291DFF84C1703914FF00001049110461946DFF84027DFF84037FEF730FA41F21C10C1F6FF70A1
S32D0000FD4000F096FE41F22410C1F6FF7000F090FE4FF000004FF07E5101F5E00105F0A0FF41F24010C1F6FF70A5
S32D0000FD6806F0C6FA03461846FCF7B2FC02460B4641F20850C1F6FF704EF68421C0F201010BF0A4FB41F240106B
S32D0000FD90C1F6FF7006F0B0FA03464FF0010214461846DFF8E816FDF7E7FA0346002B02D14FF000031C46E3B212
S32D0000FDB8002B00F08180FDF7DBFF41F28040C1F6FF704EF6A021C0F2010107F055FE4FF000004FF07E5101F5D4
S32D0000FDE0E00105F05DFF41F20850C1F6FF704EF6A821C0F201010BF06DFB41F20850C1F6FF704EF6C821C0F25E
S32D0000FE0801010BF063FB41F25013C1F6FF731C6841F25413C1F6FF731B681846DFF86816FCF7E2FF03464FF0D9
S32D0000FE3001020092DFF85C2601924FF000020292DFF8282603924FF00002049220461946DFF84426DFF81C368E
S32D0000FE58FEF79EF941F20850C1F6FF704EF6EC21C0F201010BF032FB41F25013C1F6FF731C6841F25413C1F67E
S32D0000FE80FF731B681846DFF81416FCF7AFFF03464FF000020092DFF8D42501924FF001020292DFF8FC2503927D
S32D0000FEA84FF00002049220461946DFF8E425DFF8EC35FEF76DF98DE0FDF75AFF41F28040C1F6FF704EF60C3109
S32D0000FED0C0F2010107F0D4FD4FF000004FF07E5101F5E00105F0DCFE41F20850C1F6FF704EF61431C0F20101A7
S32D0000FEF80BF0ECFA41F20850C1F6FF704EF63431C0F201010BF0E2FA41F25013C1F6FF731B681846DFF8681522
S32D0000FF20FCF764FF03461C4641F25413C1F6FF731B681846DFF85815FCF75AFF03464FF001020092DFF84C2519
S32D0000FF4801924FF000020292DFF8182503924FF00002049220461946DFF83425DFF80C35FEF716F941F2085007
S32D0000FF70C1F6FF704EF65831C0F201010BF0AAFA41F25013C1F6FF731B681846DFF8F814FCF72CFF03461C46D1
S32D0000FF9841F25413C1F6FF731B681846DFF8F414FCF720FF03464FF000020092DFF8B42401924FF00102029272
S32D0000FFC0DFF8DC2403924FF00002049220461946DFF8C424DFF8CC34FEF7DEF841F20850C1F6FF704EF678310C
S32D0000FFE8C0F201010BF072FA41F25013C1F6FF731B681846DFF8A814FCF7F4FE03461C4641F25413C1F6FF734A
S32D000100101B681846DFF88414FCF7EAFE03464FF000020092DFF8442401924FF000020292DFF8382403924FF0CC
S32D000100380002049220461946DFF82C24DFF86434FEF7A6F841F20850C1F6FF704EF6C431C0F201010BF03AFA46
S32D000100604FF000030093DFF8043401934FF000030293FE4B03934FF000030493DFF81004DFF80C14DFF8282465
S32D00010088DFF82834FEF784F841F20850C1F6FF704EF6F431C0F201010BF018FA41F25813C1F6FF731D6841F24B
S32D000100B05C13C1F6FF731C6841F26013C1F6FF731B681846EF49FCF791FE03464FF00102009201934FF00003A8
S32D000100D80293E44B03934FF00003049328462146F24AE24BFEF754F841F20850C1F6FF704EF61841C0F2010145
S32D000101000BF0E8F941F22C10C1F6FF70EA4906F0BBFC4FF000004FF0804101F5801105F0BFFD41F22C10C1F6E2
S32D00010128FF70D44906F0ACFC41F20850C1F6FF704EF63441C0F201010BF0C8F94FF000030093C84B01934FF0E9
S32D0001015000030293C54B03934FF000030493D748D749CA4AC34BFEF717F841F20850C1F6FF704EF65841C0F2C4
S32D0001017801010BF0ABF94FF000030093B94B01934FF000030293B74B03934FF000030493C848CA49C44ACA4BBC
S32D000101A0FDF7FAFF41F28013C1F6FF731B7883F00103DBB2002B27D041F20850C1F6FF704EF67041C0F2010141
S32D000101C80BF084F941F26413C1F6FF731A6841F26813C1F6FF731B684FF001010091A14901914FF000010291C0
S32D000101F09E4903914FF00001049110461946A34AA24BFDF7C9FF09E041F20850C1F6FF704EF6A441C0F20101CE
S32D000102180BF05CF941F20850C1F6FF704EF6F041C0F201010BF052F941F22C10C1F6FF709F4906F025FC4FF074
S32D0001024000004FF07E5101F5C00105F029FD41F28013C1F6FF731B7883F00103DBB2002B27D041F20850C1F6C5
S32D00010268FF704EF63451C0F201010BF02FF941F26C13C1F6FF731A6841F27013C1F6FF731B684FF000010091C8
S32D00010290764901914FF000010291744903914FF00101049110461946784A784BFDF774FF09E041F20850C1F628
S32D000102B8FF704EF66451C0F201010BF007F941F20850C1F6FF704EF6B851C0F201010BF0FDF841F22C10C1F638
S32D000102E0FF70664906F0D0FB4FF000004FF07E5101F5E00105F0D4FC41F28013C1F6FF731B7883F00103DBB2A1
S32D00010308002B12D04FF000030093564B01934FF000030293534B03934FF00003049369486949514A574BFDF737
S32D0001033033FF41F28013C1F6FF731B7883F00103DBB2002B12D04FF000030093474B01934FF000030293454B77
S32D0001035803934FF0000304934F485B49494A424BFDF716FF41F28013C1F6FF731B7883F00103DBB2002B2BD0F7
S32D0001038041F20850C1F6FF704EF6FC51C0F201010BF0A0F841F27413C1F6FF73196841F27813C1F6FF731A68F8
S32D000103A841F27C13C1F6FF731B684FF00100009001934FF0000302933B4B03934FF00003049308461146324A67
S32D000103D02E4BFDF7E1FE09E041F20850C1F6FF704EF63061C0F201010BF074F841F20850C1F6FF704EF66C6166
S32D000103F8C0F201010BF06AF841F22C10C1F6FF702B4906F03DFB4FF000004FF07E5101F5E00105F041FC41F205
S32D000104202C10C1F6FF70154906F02EFB41F20850C1F6FF704EF6A461C0F201010BF04AF84FF000030093094BBA
S32D0001044801934FF000030293064B03934FF0000304931E481949124A034BFDF799FEBD46B0BD00BF000000002E
S32D000104700000803F0000803E0000F0420000F0410000804100007041000090400000003F0000A0400000874352
S32D000104980000403F00004040000000413333B33E000000409A99993E0000C03FCDCCCC3E0000DC420000E04173
S32D000104C00000864100005C429A99193F0000A041000040420000C04080B582B000AF786039607B68012B36D11D
S32D000104E83A684FF6FF739A4231D141F21C10C1F6FF704FF00001184A00F05EFA41F22410C1F6FF704FF0010171
S32D00010510134A00F055FA41F22C10C1F6FF704FF0000106F091FA41F23810C1F6FF704FF0030105F003FC41F2BF
S32D000105383C10C1F6FF704FF0030105F0FBFB41F24010C1F6FF704FF0000105F0C1FE07F10807BD4680BD00BF51
S32D000105600000104180B500AF4FF001004FF6FF71FFF7B2FF80BD00BF80B500AF41F68812C1F6FF7241F21C1360
S32D00010588C1F6FF73D31A194641F21C13C1F6FF731A460B4610464FF000011A460CF091FC80BD00BF0DF006FD18
S32D000105B000F0B0F9FFF7E0FF0DF0D8FC0DF074FC0DF00CFD00F00CF84FF0000041F29011C1F6FF71FFF794FAB8
S32D000105D8034618460CF050FC80B500AF4FF4E043C4F204034FF4E042C4F2040202F5805202F13802126842F437
S32D00010600785203F5805303F138031A6000F02EF900F094F841F2CC33C1F6FF734FF058021A6041F2CC33C1F6A3
S32D00010628FF731B684FF47A7202FB03F241F2C833C1F6FF731A6041F2C833C1F6FF731B681A464FF4E043C4F266
S32D00010650040303F5825303F104031B6803F070634FEA136303F10103B2FBF3F31A4641F2D033C1F6FF731A60F0
S32D000106784FF4E043C4F204034FF4E042C4F2040202F5805202F13C02126842F0225203F5805303F13C031A607D
S32D000106A04FF4E043C4F204034FF4E042C4F2040202F5805202F13002126842F0006203F5805303F130031A607F
S32D000106C84FF45043C4F203034FF480721A614FF0640005F037F94FF45043C4F203034FF45042C4F2030252691C
S32D000106F022F010025A614FF45043C4F203034FF000021A604FF45043C4F203034FF010025A6105F023FF05F005
S32D00010718CBFF41F2C430C1F6FF7005F097F941F28040C1F6FF7006F06FFD41F2883005F075FA80BD80B400AF2C
S32D000107404FF48043C4F206034FF000025A704FF48043C4F206034FF098021A704FF48043C4F206039B79DBB22C
S32D0001076803F01003002B0CBF00230123DBB2002BF0D14FF48043C4F206039B79DBB203F00C034FEA9303022B42
S32D000107900CBF00230123DBB2002BEED14FF48043C4F206034FF018021A714FF48043C4F206034FF000025A7137
S32D000107B84FF4E043C4F2040303F5825303F104034FF00002C0F213121A604FF48043C4F206034FF054025A7170
S32D000107E000BF4FF48043C4F206039B79DBB203F02003002B14BF00230123DBB2002BF0D100BF4FF48043C4F276
S32D0001080806039B79DBB203F04003002B14BF00230123DBB2002BF0D14FF48043C4F206034FF48042C4F206029B
S32D000108301278D2B202F03F02D2B21A704FF48043C4F206039B79DBB203F00C034FEA9303032B0CBF00230123D3
S32D00010858DBB2002BEED14FF000031846BD4680BC704700BF80B400AF4FF44043C4F204034FF480725A634FF20C
S32D00010880C003C4F20F034FF2C002C4F20F02526942F400525A614FF2C003C4F20F034FF2C002C4F20F021268E6
S32D000108A842F400521A604FF44043C4F2040340F20312C0F20A021A634FF46143CEF200034FF46142CEF20002C8
S32D000108D0D2F8882142F08062C3F888214FF46143CEF200034FF46142CEF20002926842F080629A60BD4680BC75
S32D000108F8704700BF80B483B000AF7860FEE700BF80B400AF00BEBD4680BC704780B400AF4FF0E0224CF20003CD
S32D00010920C0F20003C2F8083D4FF40053C4F205034CF22052DA814FF40053C4F205034DF62812DA814FF40053D3
S32D00010948C4F205034FF0D2021A80BD4680BC704780B500AF4FF44043C4F20403D3F8A03003F48053002B0CBF5D
S32D0001097000230123DBB2002B1FD04FF44043C4F204034FF44042C4F20402D2F8A02022F48052C3F8A02041F246
S32D000109980850C1F6FF700AF07DFD4FF2C003C4F20F034FF2C002C4F20F02126822F400521A6080BD000000000F
S32D000109C090B585B000AFF8600B467A60FB72FB68FA7A1A71FB684FF000025A714FF001031C4678682049FCF73D
S32D000109E8C7FC0346002B02D14FF000031C46E3B2002B02D01A4B7B6011E04FF001031C4678681849FCF7A0FCFA
S32D00010A100346002B02D14FF000031C46E3B2002B01D0124B7B607868FBF756FE02460B46104619460AA3D3E926
S32D00010A380023FBF7A1FE02460B4610461946FCF77DF90246FB681A60FB68184607F11407BD4690BDAFF30080B9
S32D00010A60ABAAAAAAAAAA2040000040410000803F80B582B000AF78607B685B79002B10D07B684FF000025A712B
S32D00010A887B681B7941F2C430C1F6FF7019464FF000024FF01E0305F023F807F10807BD4680BD00BF80B584B0FC
S32D00010AB000AF786039603B687F2B03DD4FF07F03FB7309E03B6813F1800F03DA4FF08003FB7301E03B68FB737D
S32D00010AD87B685B79FA7B9A420FD07B68FA7B5A717B681A79FB7B41F2C430C1F6FF7011461A464FF01E0304F0A1
S32D00010B00F3FF07F11007BD4680BD00BF00000000B0B584B000AF786039604FF001031C4638684D49FCF70AFC39
S32D00010B280346002B02D14FF000031C46E3B2002B02D0474B3B6011E04FF001031C4638684449FCF715FC0346E4
S32D00010B50002B02D14FF000031C46E3B2002B01D03E4B3B603868FBF7B7FD04460D467B681B681846FBF7B0FDD9
S32D00010B7802460B46104619464FF000024FF0804303F5B203FBF722FF02460B4620462946FBF7F2FD02460B4615
S32D00010BA010461946FCF7CEF803463B604FF001031C4638682A49FCF7D5FB0346002B02D14FF000031C46E3B2D9
S32D00010BC8002B14D03868FBF783FD02460B46104619461DA3D3E90023FBF7CEFD02460B4610461946FCF762F898
S32D00010BF00346FB6022E03868FBF76EFD02460B46104619464FF000024FF0804303F5C003FBF7B6FD02460B46A9
S32D00010C18104619464FF000024FF0804303F5B203FBF7D4FE02460B4610461946FCF73EF80346FB607868F968E8
S32D00010C40FFF734FF07F11007BD46B0BDAFF3008052B81E85EB51F43F0000C8C20000C84200000000AFF30080E9
S32D00010C6880B485B000AF02460B46FA71BB71BB79002B07D141F29413C1F6FF734FF000021A7006E041F2941350
S32D00010C90C1F6FF734FF001021A704FF03803FB7341F29413C1F6FF731A78FB7B1343FB734FF4C043C4F2060384
S32D00010CB84FF4C042C4F206029278D2B242F01002D2B29A704FF4C043C4F206034FF4C042C4F206029278D2B214
S32D00010CE042F02002D2B29A704FF4C043C4F20603FA7B1A7107F11407BD4680BC704700BF80B483B000AF4FF0E1
S32D00010D0801037B6004E000BF7B6803F101037B607B68312BCCBF00230123DBB2002BF2D107F10C07BD4680BCAE
S32D00010D30704700BF80B582B000AF02460B46FA71BB7141F29513C1F6FF731B7818464FF00001FFF789FF4FF4E2
S32D00010D58C043C4F20603DB78DBB203F00203002B14BF00230123DBB2002BF0D14FF4C043C4F206034FF4C042CA
S32D00010D80C4F20602D278D2B242F00202D2B2DA704FF4C043C4F20603FA791A714FF4C043C4F20603DB78DBB2CC
S32D00010DA803F00203002B14BF00230123DBB2002BF0D14FF4C043C4F206034FF4C042C4F20602D278D2B242F05E
S32D00010DD00202D2B2DA704FF4C043C4F20603BA791A714FF4C043C4F20603DB78DBB203F00203002B14BF002361
S32D00010DF80123DBB2002BF0D14FF4C043C4F206034FF4C042C4F20602D278D2B242F00202D2B2DA704FF4C0430F
S32D00010E20C4F206034FF4C042C4F206029278D2B222F02002D2B29A704FF4C043C4F206034FF4C042C4F2060289
S32D00010E489278D2B222F01002D2B29A70FFF754FF07F10807BD4680BD80B582B000AF0346FB71FB79184600F01E
S32D00010E706BF807F10807BD4680BD00BF80B582B000AF02460B46FA71BB7100F039F8FB794FEA4303DBB21846A5
S32D00010E98FFF7E2FFBB791846FFF7DEFF00F03EF807F10807BD4680BD80B500AF4FF0FF0000F046F8034618468B
S32D00010EC080BD00BF80B584B000AF0346FB7100F017F8FB794FEA4303DBB243F00103DBB2DBB21846FFF7BCFF5B
S32D00010EE8FFF7E2FF0346FB7300F018F8FB7B184607F11007BD4680BD80B400AF4FF24003C4F20F034FF2400278
S32D00010F10C4F20F02926842F480129A60BD4680BC704700BF80B400AF4FF24003C4F20F034FF24002C4F20F0201
S32D00010F38526842F480125A60BD4680BC704700BF80B485B000AF0346FB714FF00003BB7303E0FB7B03F101030B
S32D00010F60FB734FF44043C4F20A03DB6A4FF00003002BF2D14FF44043C4F20A034FF44042C4F20A02D26A42F078
S32D00010F880042DA624FF44043C4F20A03FA795A6300BF4FF44043C4F20A03DB6A03F40033002B14BF0023012307
S32D00010FB0DBB2002BF1D14FF44043C4F20A039B6BBB73BB7B184607F11407BD4680BC704780B582B000AF4FF4E5
S32D00010FD8E043C4F204034FF4E042C4F2040202F5805202F13002126842F4805203F5805303F130031A604FF4CA
S32D000110002043C4F204034FF480721A654FF24003C4F20F034FF24002C4F20F02526942F480125A61FFF77EFFA6
S32D000110284FF42043C4F204034FF400725A654FF42043C4F204034FF400729A654FF42043C4F204034FF4007293
S32D00011050DA654FF44043C4F20A034FF44062C8F200021A604FF44043C4F20A034FF00502C3F60062DA604FF02B
S32D0001107800037B6007E04FF0FF00FFF7EDFE7B6803F101037B607B68092BCCBF00230123DBB2002BEFD104A1A9
S32D000110A0D1E9000104F0FCFD07F10807BD4680BD9A9999999999B93F90B486B000AFF860B9607A60FA684FF48A
S32D000110C82043C4F206039A4214D14FF4E043C4F204034FF4E042C4F2040202F5805202F13402126842F480624E
S32D000110F003F5805303F134031A6083E0FA684FF43043C4F206039A4214D14FF4E043C4F204034FF4E042C4F228
S32D00011118040202F5805202F13402126842F4006203F5805303F134031A6067E0FA684FF44043C4F206039A4224
S32D0001114014D14FF4E043C4F204034FF4E042C4F2040202F5805202F13402126842F4805203F5805303F13403ED
S32D000111681A604BE0FA684FF45043C4F206039A4214D14FF4E043C4F204034FF4E042C4F2040202F5805202F1FB
S32D000111903402126842F4005203F5805303F134031A602FE0FA684FF42043C4F20E039A4214D14FF4E043C4F2CD
S32D000111B804034FF4E042C4F2040202F5805202F12802126842F4806203F5805303F128031A6013E04FF4E043AB
S32D000111E0C4F204034FF4E042C4F2040202F5805202F12802126842F4006203F5805303F128031A60FB68DB78F0
S32D00011208DBB223F00C03DAB2FB68DA70FB684FF000029A70BB684FF47A7202FB03F27B684FEA031392FBF3F338
S32D000112309CB2FB681B78DBB223F01F03FB75234603F4F8534FEA2323DBB203F01F03DAB2FB7D1343DAB2FB6804
S32D000112581A70E2B2FB685A70BB684FF4FA4202FB03F27B684FEA031392FBF3F39AB2234619464FEAC121CB1ACF
S32D000112804FEA43139BB2D3189CB2FB689B7ADBB223F01F03FB75E3B203F01F03DAB2FB7D1343DAB2FB689A7281
S32D000112A8FB68DB78DBB243F00C03DAB2FB68DA7007F11807BD4690BC704700BF80B483B000AF786000BF7B68ED
S32D000112D01B79DBB203F02003002B14BF00230123DBB2002BF3D17B68DB79DBB2184607F10C07BD4680BC7047D4
S32D000112F880B483B000AF78600B46FB7000BF7B681B79DBB2DBB26FEA0303DBB24FEAD313DBB2002BF3D17B6863
S32D00011320FA78DA7107F10C07BD4680BC704700BF80B487B000AFF860B9607A60FB687B61BB683B610BE03B692F
S32D000113481A787B691A707B6903F101037B613B6903F101033B617B68002B0CBF00230123DBB27A6802F1FF32D3
S32D000113707A60002BE7D107F11C07BD4680BC704780B487B000AFF860B9607A60FB687B6107E0BB68DAB27B6962
S32D000113981A707B6903F101037B617B68002B0CBF00230123DBB27A6802F1FF327A60002BEBD107F11C07BD4652
S32D000113C080BC704780B489B000AFF860B9607A60FB68FB61BB68BB614FF000037B617B68002B0CBF0023012368
S32D000113E8DBB27A6802F1FF327A60002B19D0FB691B781A46BB691B78D31A7B617B69002B14BF00230123DBB2C8
S32D00011410FA6902F10102FA61BA6902F10102BA61002B02D04FF0010301E04FF00003002BD5D17B69184607F157
S32D000114382407BD4680BC704780B483B000AF7860396003E07B6803F101037B607B681B78002B08D07B681B7855
S32D000114601A463B689A4202D04FF0010301E04FF00003002BEAD17B681B78184607F10C07BD4680BC704700BFCC
S32D0001148880B584B000AF786039607B681B6BFB60FA683B689A4264D07B681B79002B43D07B685A787B6803F192
S32D000114B0340310461946FA684FF0010304F0B4F80346002B0CBF00230123DBB2002B02D04FF001034BE07B687B
S32D000114D84FF000021A717B685A6A7B681B6AD218FB689A4220D97B68DB78FB7214E07B681B6AFA68D318FB6041
S32D000115007B685A787B6803F1340310461946FA684FF0010304F088F8FB7A03F1FF33FB72FB7A012B94BF00230C
S32D000115280123DBB2002BE2D13B68002B19D07B685A787B6803F13403104619463A684FF0010303F05FFF034657
S32D00011550002B0CBF00230123DBB2002B02D04FF0010304E07B683A681A634FF00003184607F11007BD4680BD8D
S32D0001157880B584B000AF786078684FF00001FFF77FFF0346FB73FB7B002B40F0AE807B681B78032B40F0958021
S32D000115A07B685B79002B00F090807B684FF000021A637B6803F1340318464FF000014FF40072FFF7DDFE7B6884
S32D000115C84FF0550283F832227B684FF0AA0283F833227B684FF0520283F834207B684FF0520283F835207B6883
S32D000115F04FF0610283F836207B684FF0410283F837207B684FF0720283F818227B684FF0720283F819227B68A8
S32D000116184FF0410283F81A227B684FF0610283F81B227B681B69DAB27B6883F81C227B681B699BB24FEA23236B
S32D00011640DAB27B6883F81D227B681B694FEA1343DAB27B6883F81E227B681B694FEA1363DAB27B6883F81F22F1
S32D000116687B68DB68DAB27B6883F820227B68DB689BB24FEA2323DAB27B6883F821227B68DB684FEA1343DAB2A1
S32D000116907B6883F822227B68DB684FEA1363DAB27B6883F823227B6859787B6803F134027B685B690846114678
S32D000116B81A464FF0010303F0B3FF7B684FF000025A717B685B7818464FF000014FF0000204F08CF80346002B4B
S32D000116E00CBF00230123DBB2002B02D04FF00103FB73FB7B184607F11007BD4680BD00BF80B483B000AF7860BE
S32D0001170839603B68A3F102033B607B68DB69A3F102023B689A4202D84FF0000307E07B689B783A6802FB03F277
S32D000117307B68DB6AD318184607F10C07BD4680BC704700BF80B586B000AF786039603B68012B04D97B68DA69FC
S32D000117583B689A4202D84FF00103D3E07B681B78022B5FD0032B00F08A80012B40F0C8803B687B617B694FEAD9
S32D0001178053037A69D3187B617B685A6A7B694FEA5323D31878681946FFF776FE0346002B0CBF00230123DBB259
S32D000117A8002B40F0A6807B694FEAC3534FEAD3537A68D31893F834303B617B6903F101037B617B685A6A7B6964
S32D000117D04FEA5323D31878681946FFF755FE0346002B0CBF00230123DBB2002B40F087807B694FEAC3534FEAE7
S32D000117F8D3537A68D31893F834304FEA03233A6913433B613B6803F00103DBB2002B03D03B694FEA131304E0E0
S32D000118203B694FEA03534FEA13536FE07B685A6A3B684FEA1323D31878681946FFF724FE0346002B0CBF00231B
S32D000118480123DBB2002B58D13B684FEA43034FEAC3534FEAD35303F130037A68D31803F10403FB60FB6803F1FB
S32D0001187001031B784FEA03239AB2FB681B7813439BB29BB242E07B685A6A3B684FEAD313D31878681946FFF776
S32D00011898F7FD0346002B0CBF00230123DBB2002B2DD13B684FEA83034FEAC3534FEAD35303F130037A68D318ED
S32D000118C003F10403FB60FB6803F103031B784FEA0362FB6803F102031B784FEA03431A43FB6803F101031B785C
S32D000118E84FEA03231A43FB681B78134323F0704308E000BF04E000BF02E000BF00E000BF4FF0FF33184607F1B2
S32D000119101807BD4680BD00BF80B588B000AFF860B9607A60BB68012B04D9FB68DA69BB689A4203D84FF0020333
S32D00011938FB771AE1FB681B78022B00F08580032B00F0AD80012B40F00181BB68BB61BB694FEA5303BA69D318D2
S32D00011960BB61FB685A6ABB694FEA5323D318F8681946FFF789FD0346FB77FB7F002B40F0ED80BB694FEAC353AC
S32D000119884FEAD35303F13003FA68D31803F104037B61BB6803F00103DBB2002B0ED07B691B78DBB203F00F03CD
S32D000119B0DAB27B68DBB24FEA0313DBB21343DBB2DBB201E07B68DBB27A691370BB6903F10103BB61FB684FF02F
S32D000119D801021A71FB685A6ABB694FEA5323D318F8681946FFF74CFD0346FB77FB7F002B40F0B280BB694FEA50
S32D00011A00C3534FEAD35303F13003FA68D31803F104037B61BB6803F00103DBB2002B04D07B684FEA1313DBB282
S32D00011A280FE07B691B78DBB223F00F03DAB27B684FEA1323DBB203F00F03DBB21343DBB2DBB27A6913708CE038
S32D00011A50FB685A6ABB684FEA1323D318F8681946FFF712FD0346FB77FB7F002B7AD1BB684FEA43034FEAC35363
S32D00011A784FEAD35303F13003FA68D31803F104037B617B68DAB27B691A707B6903F101037A6892B24FEA222239
S32D00011AA0D2B21A7061E0FB685A6ABB684FEAD313D318F8681946FFF7E7FC0346FB77FB7F002B51D1BB684FEAFE
S32D00011AC883034FEAC3534FEAD35303F13003FA68D31803F104037B617B6903F103031B784FEA03627B6903F189
S32D00011AF002031B784FEA03431A437B6903F101031B784FEA03231A437B691B78134303F070437A6813437B60A2
S32D00011B187B68DAB27B691A707B6903F101037A6892B24FEA2222D2B21A707B6903F102037A684FEA1242D2B264
S32D00011B401A707B6903F103037A684FEA1262D2B21A700AE04FF00203FB7706E000BF04E000BF02E000BF00E008
S32D00011B6800BFFB684FF001021A71FB7F184607F12007BD4680BD00BF80B584B000AF786039603B68012B04D934
S32D00011B907B68DA693B689A4203D84FF00203FB7345E04FF00003FB7333E078683968FFF7C9FD0346BB60BB6848
S32D00011BB8002B35D0BB68012B03D14FF00203FB7331E0BB68B3F1FF3F03D14FF00103FB7329E0786839684FF095
S32D00011BE00002FFF799FE0346FB73FB7B002B1DD17B681B69B3F1FF3F09D07B681B6903F101027B681A617B6840
S32D00011C084FF001025A71BB683B607B68DA693B689A4294BF00230123DBB2002BC1D102E000BF00E000BFFB7BA3
S32D00011C30184607F11007BD4680BD00BF80B586B000AF786039603B68002B0ED17B68DB683B613B69002B04D07C
S32D00011C587B68DA693B699A4218D84FF001033B6114E078683968FFF769FD0346BB60BB68012B02D84FF0010347
S32D00011C806EE07B68DA69BB689A4201D9BB6867E03B683B613B697B6100E000BF7B6903F101037B617B68DA6942
S32D00011CA87B699A4209D84FF002037B617A693B699A4202D94FF000034EE078687969FFF73DFD0346BB60BB6825
S32D00011CD0002B0FD0BB68B3F1FF3F02D0BB68012B01D1BB683CE07A693B699A42D5D14FF0000335E000BF7868A5
S32D00011CF879696FF07042FFF70BFE0346FB73FB7B002B09D13B68002B06D0786839687A69FFF7FEFD0346FB73E9
S32D00011D20FB7B002B12D17B687A69DA607B681B69B3F1FF3F13D07B681B6903F1FF327B681A617B684FF00102D5
S32D00011D485A7108E0FB7B012B02D14FF0FF3301E04FF001037B617B69184607F11807BD4680BD00BF80B487B010
S32D00011D7000AF786039607B685B6A03F104033B613B684FEA53227B681B689B78B2FBF3F37B613B691B68FB602A
S32D00011D983B6903F104033B61FB68002B02D14FF0000311E07A69FB689A4208D37A69FB68D31A7B613B6903F1A9
S32D00011DC004033B61E5E700BF3B691A687B69D318184607F11C07BD4680BC704780B584B000AF78600B467B8026
S32D00011DE87B687A88DA807B689B68FB60FB68012B05D07B681B68DA69FB689A4202D84FF0020373E0FB68002B01
S32D00011E1008D17B681B681B78032B03D17B681B689B6AFB60FB68002B16D17B68FA68DA607B681B681B897A8809
S32D00011E389A4202D34FF0020358E07B681B689A6A7B884FEA13139BB2D2187B681A613FE07B681B689B784FEA1C
S32D00011E6003137B811EE07B681B681846F968FFF769FC0346FB60FB68B3F1FF3F02D14FF0010337E0FB68012B1E
S32D00011E8805D97B681B68DA69FB689A4202D84FF002032BE07A887B89D31A7B807A887B899A4234BF0023012332
S32D00011EB0DBB2002BD7D17B68FA68DA607B681B681846F968FFF71CFC02467B884FEA13139BB2D2187B681A61B2
S32D00011ED87B681B6803F134027B8803F00F034FEA4313D2187B685A614FF00003184607F11007BD4680BD00BF7E
S32D00011F0090B585B000AF786039607B68DB8803F101033B813B89002B03D07B681B69002B02D14FF00403E4E0ED
S32D00011F283B8903F00F03002B40F0CE807B681B6903F101027B681A617B68DB68002B09D17B681B681B893A8964
S32D00011F509A42C0F0BD804FF00403CAE03B894FEA13139BB21A467B681B689B7803F1FF331340002B40F0AC8060
S32D00011F787B681A687B68DB6810461946FFF7DEFB0346FB60FB68012B02D84FF00203ACE0FB68B3F1FF3F02D136
S32D00011FA04FF00103A5E07B681B68DA69FB689A4200F282803B68002B02D14FF0040398E07B681A687B68DB6884
S32D00011FC810461946FFF736FE0346FB60FB68002B02D14FF0070388E0FB68012B02D14FF0020382E0FB68B3F146
S32D00011FF0FF3F02D14FF001037BE07B681B6818464FF00001FFF740FA0346002B0CBF00230123DBB2002B02D0CF
S32D000120184FF0010369E07B681B6803F1340318464FF000014FF40072FFF7A6F97B681C687B681B681846F96808
S32D00012040FFF75EFB034623634FF00003FB7220E07B681B684FF001021A717B681B6818464FF00001FFF710FA6D
S32D000120680346002B0CBF00230123DBB2002B02D04FF0010339E07B681B681A6B02F101021A63FB7A03F1010312
S32D00012090FB727B681B689B78FA7A9A422CBF00230123DBB2002BD3D17B681B687A681268116BFA7A8A1A1A638A
S32D000120B87B68FA68DA607B681B681846F968FFF71BFB02467B681A617B683A89DA807B681B6803F134023B894F
S32D000120E003F00F034FEA4313D2187B685A614FF00003184607F11407BD4690BD80B586B000AF786078684FF0A1
S32D000121080001FFF767FE0346FB75FB7D002B01D0FB7D47E07B681A687B681B6910461946FFF7AEF90346FB75A9
S32D00012130FB7D002B36D17B685B693B613B691B78FB73FB7B002B03D14FF00403FB752CE03B6903F10B031B787E
S32D0001215803F00803002B0DD17B689B69386919464FF00B02FFF72AF90346002B02D14FF0010301E04FF0000358
S32D00012180002B11D178684FF00001FFF7B9FE0346FB75FB7D002B14BF00230123DBB2002BBCD102E000BF00E01A
S32D000121A800BFFB7D184607F11807BD4680BD00BF80B584B000AF786078684FF00001FFF709FE0346FB73FB7B23
S32D000121D0002B29D17B681A687B681B6910461946FFF752F90346FB73FB7B002B19D17B685B691B78BB73BB7B19
S32D000121F8E52B14D0BB7B002B11D078684FF00101FFF77AFE0346FB73FB7B002B14BF00230123DBB2002BD9D11F
S32D0001222002E000BF00E000BFFB7B002B23D17B681A687B681B6910461946FFF725F90346FB73FB7B002B16D1E6
S32D000122487B685B69BB60B8684FF000014FF02002FFF792F87B689B69B86819464FF00B02FFF762F87B681B68FC
S32D000122704FF001021A71FB7B184607F11007BD4680BD00BF80B588B000AF786039603B681B68FB6003E0FB683C
S32D0001229803F10103FB60FB681B782F2B03D0FB681B785C2B02D14FF0010301E04FF00003002BECD17B689B691C
S32D000122C0BB60B8684FF020014FF00B02FFF758F84FF00003FB774FF000033B613B697B614FF00803BB61FA68E8
S32D000122E87B69D3181B782E2B39D1FA687B69D3181B78BB777B6903F101037B61BB7F2E2B0CD17B69022B09D8F2
S32D00012310BA683B69D318BA7F1A703B6903F101033B61E6E700BFBB7F2F2B08D0BB7F5C2B05D0BB7F202B02D904
S32D000123384FF00603C5E0FA687B69D2183B681A60BB6803F10B02BB7F202B02D84FF0240301E04FF0200313708D
S32D000123604FF00003B1E0FA687B69D3181B78BB777B6903F101037B61BB7F202B68D9BB7F2F2B65D0BB7F5C2B7D
S32D0001238862D0BB7F2E2B03D03A69BB699A4214D3BB69082B02D1BB7F2E2B02D04FF006038FE04FF008033B61D8
S32D000123B04FF00B03BB61FB7F4FEA8303FB7700BFD1E7BB7F5BB2002B0CDAFB7F43F00303FB77BB7FA3F18002A6
S32D000123D84FF2A423C0F201039B5CBB77BB7F4EF6CC60C0F201001946FFF726F80346002B0CBF00230123DBB20C
S32D00012400002B02D04FF006035FE0BB7F402B07D9BB7F5A2B04D8FB7F43F00203FB770DE0BB7F602B0AD9BB7F16
S32D000124287A2B07D8FB7F43F00103FB77BB7FA3F12003BB77BA683B69D318BA7F1A703B6903F101033B618AE79E
S32D0001245000BFFA687B69D2183B681A60BB7F202B02D84FF0040301E04FF00003BB773B69002B02D14FF006036D
S32D0001247827E0BB681B78E52B03D1BB684FF005021A70BB69082B03D1FB7F4FEA8303FB77FB7F03F00303012B2C
S32D000124A003D1BB7F43F01003BB77FB7F03F00C03042B03D1BB7F43F00803BB77BB6803F10B03BA7F1A704FF037
S32D000124C80003184607F12007BD4680BD80B584B000AF786039603B681B782F2B03D03B681B785C2B08D13B6800
S32D000124F003F101033B607B684FF000029A6004E07B681B689A697B689A603B681B781F2B0BD878684FF000015F
S32D00012518FFF760FC0346FB737B684FF000025A6175E03B4678681946FFF7A8FE0346FB73FB7B002B64D178688E
S32D00012540FFF7DCFD0346FB737B689B69DB7ABB73FB7B002B21D0FB7B042B57D1BB7B03F02003002B10D07B68E3
S32D000125684FF000029A607B684FF000025A614FF00003FB73BB7B03F00403002B44D13EE0BB7B03F00403002B91
S32D000125903ED14FF00503FB733AE0BB7B03F00403002B37D17B685B69BB60BB6803F10B031B7803F01003002B30
S32D000125B803D14FF00503FB7329E0BB6803F115031B784FEA03239AB2BB6803F114031B7813439BB29BB24FEA0B
S32D000125E00342BB6803F11B031B784FEA032399B2BB6803F11A031B780B439BB29BB21A437B689A6091E790E73D
S32D0001260800BF04E000BF02E000BF00E000BFFB7B184607F11007BD4680BD00BF80B582B000AF786039607B68B5
S32D000126305A787B6803F13403104619463A684FF0010302F0E3FE0346002B0CBF00230123DBB2002B02D04FF0DF
S32D00012658030356E07B6893F833324FEA03239AB27B6893F8323213439BB21AB24AF65523CFF6FF739A4202D0BB
S32D000126804FF0020341E07B6893F86D304FEA03627B6893F86C304FEA03431A437B6893F86B304FEA03231A4372
S32D000126A87B6893F86A30134323F07F4244F24613C0F254039A4202D14FF0000321E07B6893F889304FEA036282
S32D000126D07B6893F888304FEA03431A437B6893F887304FEA03231A437B6893F88630134323F07F4244F246131B
S32D000126F8C0F254039A4202D14FF0000301E04FF00103184607F10807BD4680BD80B592B000AFF860B960134600
S32D00012720FB71FB681B68FB62FB6A1B78A3F130033B643B6C092B0DD8FB6A03F101031B783A2B07D1FB6A03F137
S32D000127480203FB62FB68FA6A1A6005E041F29E13C1F6FF731B783B643B6C002B02D04FF00B03C9E241F2981321
S32D00012770C1F6FF733A6C53F82230BB62BB68BA6A1A60BB6A002B02D14FF00C03B8E2BB6A1B78002B20D0BB6AED
S32D000127985B78184603F0BEF8034687F8273097F8273003F00103DBB283F00103DBB2002B0ED0FB79002B08D02B
S32D000127C097F8273003F00403002B02D04FF00A0396E24FF0000393E2BB6A4FF000021A703B6CDAB2BB6A5A7080
S32D000127E8BB6A5B78184602F04FFB034687F8273097F8273003F00103DBB2002B02D04FF0030379E2FB79002B6B
S32D0001281008D097F8273003F00403002B02D04FF00A036DE24FF00003FB63B86AF96BFFF7F9FE034687F84730F7
S32D0001283897F84730012B2AD1BB6A03F5F9733B623B6A03F104031B78002B20D03B6A03F10B031B784FEA0362F8
S32D000128603B6A03F10A031B784FEA03431A433B6A03F109031B784FEA03231A433B6A03F108031B781343FB6355
S32D00012888B86AF96BFFF7CAFE034687F8473097F84730032B02D14FF001032DE297F84730002B02D04FF00D03F3
S32D000128B026E2BB6A93F840304FEA03239AB2BB6A93F83F3013439BB21BB2B3F5007F02D04FF00D0314E2BB6A34
S32D000128D893F84B304FEA03239AB2BB6A93F84A3013439BB29BB2BB63BB6B002B15D1BB6A93F85B304FEA0362D8
S32D00012900BB6A93F85A304FEA03431A43BB6A93F859304FEA03231A43BB6A93F858301343BB63BB6ABA6B1A622B
S32D00012928BB6A93F84430FB77BB6AFA7FDA70FB7F012B05D0FB7F022B02D04FF00D03DBE1FA7FBB6B02FB03F371
S32D00012950BB63BB6A93F84130FB77BB6AFA7F9A70FB7F002B06D0FA7FFB7F03F1FF331340002B02D04FF00D03CC
S32D00012978C2E1BB6A93F846304FEA03239AB2BB6A93F8453013439BB29AB2BB6A1A81BB6A1B8903F00F03002BEF
S32D000129A002D04FF00D03ABE1BB6A93F848304FEA03239AB2BB6A93F8473013439BB29BB27B637B6B002B15D19C
S32D000129C8BB6A93F857304FEA0362BB6A93F856304FEA03431A43BB6A93F855304FEA03231A43BB6A93F85430D4
S32D000129F013437B63BB6A93F843304FEA03239AB2BB6A93F8423013439BB2BB83BB8B002B02D14FF00D0373E1CC
S32D00012A18BA8BBB6BD218BB6A1B894FEA13139BB2D318BB617A6BBB699A4202D24FF00D0362E17A6BBB69D21A7E
S32D00012A40BB6A9B78B2FBF3F37B617B69002B02D14FF00D0354E14FF0010387F847307A6940F6F5739A4203D9E8
S32D00012A684FF0020387F847307A694FF6F5739A4203D94FF0030387F847307B6903F10202BB6ADA61FA6BBB69BD
S32D00012A90D218BB6ADA62BA8BFB6BD218BB6A5A6297F84730032B23D1BB6A1B89002B02D04FF00D0324E1BB6AEF
S32D00012AB893F863304FEA0362BB6A93F862304FEA03431A43BB6A93F861304FEA03231A43BB6A93F860301A437B
S32D00012AE0BB6A9A62BB6ADB694FEA83033B6323E0BB6A1B89002B02D14FF00D0300E1BB6A5A6ABB6BD218BB6AC8
S32D00012B089A6297F84730022B04D1BB6ADB694FEA43030CE0BB6ADA6913464FEA43039B184FEA5302BB6ADB69DC
